{
  "_format": "hh-sol-artifact-1",
  "contractName": "LastWill",
  "sourceName": "contracts/LastWill.sol",
  "abi": [
    {
      "inputs": [
        {
          "internalType": "address",
          "name": "_factory",
          "type": "address"
        },
        {
          "internalType": "address",
          "name": "_escrow",
          "type": "address"
        },
        {
          "internalType": "address",
          "name": "_registry",
          "type": "address"
        }
      ],
      "stateMutability": "nonpayable",
      "type": "constructor"
    },
    {
      "inputs": [],
      "name": "AlreadyExecuted",
      "type": "error"
    },
    {
      "inputs": [],
      "name": "AlreadyInitialized",
      "type": "error"
    },
    {
      "inputs": [],
      "name": "AmountMustBeGreaterThanZero",
      "type": "error"
    },
    {
      "inputs": [],
      "name": "ArraysNotSameSize",
      "type": "error"
    },
    {
      "inputs": [],
      "name": "DueDatePassed",
      "type": "error"
    },
    {
      "inputs": [],
      "name": "HeirAlreadyExists",
      "type": "error"
    },
    {
      "inputs": [],
      "name": "HeirNotFound",
      "type": "error"
    },
    {
      "inputs": [],
      "name": "InvalidDueDate",
      "type": "error"
    },
    {
      "inputs": [],
      "name": "InvalidHeirIndex",
      "type": "error"
    },
    {
      "inputs": [],
      "name": "NativeTokenAmountMismatch",
      "type": "error"
    },
    {
      "inputs": [],
      "name": "NotAuthorized",
      "type": "error"
    },
    {
      "inputs": [],
      "name": "NotDueYet",
      "type": "error"
    },
    {
      "inputs": [],
      "name": "NotFactory",
      "type": "error"
    },
    {
      "inputs": [],
      "name": "NotOwner",
      "type": "error"
    },
    {
      "inputs": [],
      "name": "NotOwnerOrFactory",
      "type": "error"
    },
    {
      "inputs": [],
      "name": "NotOwnerOrHeir",
      "type": "error"
    },
    {
      "inputs": [],
      "name": "TokenNotWhitelisted",
      "type": "error"
    },
    {
      "anonymous": false,
      "inputs": [
        {
          "indexed": false,
          "internalType": "uint256",
          "name": "newDate",
          "type": "uint256"
        }
      ],
      "name": "DueDateUpdated",
      "type": "event"
    },
    {
      "anonymous": false,
      "inputs": [
        {
          "indexed": true,
          "internalType": "address",
          "name": "recipient",
          "type": "address"
        },
        {
          "indexed": false,
          "internalType": "uint256",
          "name": "amount",
          "type": "uint256"
        }
      ],
      "name": "ExcessNativeTokenReturned",
      "type": "event"
    },
    {
      "anonymous": false,
      "inputs": [
        {
          "indexed": true,
          "internalType": "address",
          "name": "heir",
          "type": "address"
        },
        {
          "indexed": false,
          "internalType": "address[]",
          "name": "tokens",
          "type": "address[]"
        },
        {
          "indexed": false,
          "internalType": "uint256[]",
          "name": "amounts",
          "type": "uint256[]"
        }
      ],
      "name": "HeirAdded",
      "type": "event"
    },
    {
      "anonymous": false,
      "inputs": [
        {
          "indexed": true,
          "internalType": "address",
          "name": "heir",
          "type": "address"
        }
      ],
      "name": "HeirRemoved",
      "type": "event"
    },
    {
      "anonymous": false,
      "inputs": [
        {
          "indexed": false,
          "internalType": "address",
          "name": "lastWill",
          "type": "address"
        }
      ],
      "name": "LastWillDeployed",
      "type": "event"
    },
    {
      "anonymous": false,
      "inputs": [
        {
          "indexed": false,
          "internalType": "uint256",
          "name": "amount",
          "type": "uint256"
        },
        {
          "indexed": true,
          "internalType": "address",
          "name": "to",
          "type": "address"
        }
      ],
      "name": "NativeTokensReturnedFromEscrow",
      "type": "event"
    },
    {
      "anonymous": false,
      "inputs": [
        {
          "indexed": false,
          "internalType": "uint256",
          "name": "amount",
          "type": "uint256"
        },
        {
          "indexed": true,
          "internalType": "address",
          "name": "from",
          "type": "address"
        }
      ],
      "name": "NativeTokensTransferredToEscrow",
      "type": "event"
    },
    {
      "anonymous": false,
      "inputs": [
        {
          "indexed": true,
          "internalType": "address",
          "name": "token",
          "type": "address"
        },
        {
          "indexed": false,
          "internalType": "uint256",
          "name": "amount",
          "type": "uint256"
        },
        {
          "indexed": true,
          "internalType": "address",
          "name": "to",
          "type": "address"
        }
      ],
      "name": "TokensReturnedFromEscrow",
      "type": "event"
    },
    {
      "anonymous": false,
      "inputs": [
        {
          "indexed": true,
          "internalType": "address",
          "name": "token",
          "type": "address"
        },
        {
          "indexed": false,
          "internalType": "uint256",
          "name": "amount",
          "type": "uint256"
        },
        {
          "indexed": true,
          "internalType": "address",
          "name": "from",
          "type": "address"
        }
      ],
      "name": "TokensTransferredToEscrow",
      "type": "event"
    },
    {
      "inputs": [
        {
          "internalType": "address",
          "name": "wallet",
          "type": "address"
        },
        {
          "internalType": "address[]",
          "name": "tokens",
          "type": "address[]"
        },
        {
          "internalType": "uint256[]",
          "name": "amounts",
          "type": "uint256[]"
        }
      ],
      "name": "addHeir",
      "outputs": [],
      "stateMutability": "payable",
      "type": "function"
    },
    {
      "inputs": [],
      "name": "dueDate",
      "outputs": [
        {
          "internalType": "uint256",
          "name": "",
          "type": "uint256"
        }
      ],
      "stateMutability": "view",
      "type": "function"
    },
    {
      "inputs": [],
      "name": "escrow",
      "outputs": [
        {
          "internalType": "contract WillEscrow",
          "name": "",
          "type": "address"
        }
      ],
      "stateMutability": "view",
      "type": "function"
    },
    {
      "inputs": [
        {
          "internalType": "address",
          "name": "heirAddress",
          "type": "address"
        }
      ],
      "name": "executeLastWill",
      "outputs": [],
      "stateMutability": "nonpayable",
      "type": "function"
    },
    {
      "inputs": [],
      "name": "factory",
      "outputs": [
        {
          "internalType": "address",
          "name": "",
          "type": "address"
        }
      ],
      "stateMutability": "view",
      "type": "function"
    },
    {
      "inputs": [
        {
          "internalType": "address",
          "name": "heir",
          "type": "address"
        }
      ],
      "name": "getHeirByAddress",
      "outputs": [
        {
          "components": [
            {
              "internalType": "address",
              "name": "wallet",
              "type": "address"
            },
            {
              "internalType": "address[]",
              "name": "tokens",
              "type": "address[]"
            },
            {
              "internalType": "uint256[]",
              "name": "amounts",
              "type": "uint256[]"
            },
            {
              "internalType": "bool",
              "name": "executed",
              "type": "bool"
            }
          ],
          "internalType": "struct LastWill.Heir",
          "name": "",
          "type": "tuple"
        },
        {
          "internalType": "uint256",
          "name": "",
          "type": "uint256"
        },
        {
          "internalType": "uint256",
          "name": "",
          "type": "uint256"
        },
        {
          "internalType": "bool",
          "name": "",
          "type": "bool"
        }
      ],
      "stateMutability": "view",
      "type": "function"
    },
    {
      "inputs": [],
      "name": "getHeirs",
      "outputs": [
        {
          "components": [
            {
              "internalType": "address",
              "name": "wallet",
              "type": "address"
            },
            {
              "internalType": "address[]",
              "name": "tokens",
              "type": "address[]"
            },
            {
              "internalType": "uint256[]",
              "name": "amounts",
              "type": "uint256[]"
            },
            {
              "internalType": "bool",
              "name": "executed",
              "type": "bool"
            }
          ],
          "internalType": "struct LastWill.Heir[]",
          "name": "",
          "type": "tuple[]"
        }
      ],
      "stateMutability": "view",
      "type": "function"
    },
    {
      "inputs": [
        {
          "internalType": "address",
          "name": "heir",
          "type": "address"
        }
      ],
      "name": "getNativeTokenAmount",
      "outputs": [
        {
          "internalType": "uint256",
          "name": "",
          "type": "uint256"
        }
      ],
      "stateMutability": "view",
      "type": "function"
    },
    {
      "inputs": [],
      "name": "getTotalTokenAmounts",
      "outputs": [
        {
          "internalType": "address[]",
          "name": "",
          "type": "address[]"
        },
        {
          "internalType": "uint256[]",
          "name": "",
          "type": "uint256[]"
        },
        {
          "internalType": "uint256",
          "name": "",
          "type": "uint256"
        }
      ],
      "stateMutability": "view",
      "type": "function"
    },
    {
      "inputs": [
        {
          "internalType": "uint256",
          "name": "",
          "type": "uint256"
        }
      ],
      "name": "heirs",
      "outputs": [
        {
          "internalType": "address",
          "name": "wallet",
          "type": "address"
        },
        {
          "internalType": "bool",
          "name": "executed",
          "type": "bool"
        }
      ],
      "stateMutability": "view",
      "type": "function"
    },
    {
      "inputs": [
        {
          "internalType": "address",
          "name": "_owner",
          "type": "address"
        },
        {
          "internalType": "uint256",
          "name": "_dueDate",
          "type": "uint256"
        }
      ],
      "name": "initialize",
      "outputs": [],
      "stateMutability": "nonpayable",
      "type": "function"
    },
    {
      "inputs": [
        {
          "internalType": "address",
          "name": "heir",
          "type": "address"
        }
      ],
      "name": "isExistingHeir",
      "outputs": [
        {
          "internalType": "bool",
          "name": "",
          "type": "bool"
        }
      ],
      "stateMutability": "view",
      "type": "function"
    },
    {
      "inputs": [],
      "name": "owner",
      "outputs": [
        {
          "internalType": "address",
          "name": "",
          "type": "address"
        }
      ],
      "stateMutability": "view",
      "type": "function"
    },
    {
      "inputs": [],
      "name": "registry",
      "outputs": [
        {
          "internalType": "contract WillRegistry",
          "name": "",
          "type": "address"
        }
      ],
      "stateMutability": "view",
      "type": "function"
    },
    {
      "inputs": [
        {
          "internalType": "address",
          "name": "wallet",
          "type": "address"
        }
      ],
      "name": "removeHeir",
      "outputs": [],
      "stateMutability": "nonpayable",
      "type": "function"
    },
    {
      "inputs": [
        {
          "internalType": "uint256",
          "name": "_dueDate",
          "type": "uint256"
        }
      ],
      "name": "updateDueDate",
      "outputs": [],
      "stateMutability": "nonpayable",
      "type": "function"
    }
  ],
  "bytecode": "0x60e060405234801561001057600080fd5b5060405161247c38038061247c83398101604081905261002f91610067565b6001600160a01b03928316608052821660a0521660c0526100aa565b80516001600160a01b038116811461006257600080fd5b919050565b60008060006060848603121561007c57600080fd5b6100858461004b565b92506100936020850161004b565b91506100a16040850161004b565b90509250925092565b60805160a05160c05161235661012660003960008181610336015281816108640152818161090b01528181610fc501528181611094015281816113480152818161142a015281816118b501526119a50152600061022e0152600081816102e201528181610da401528181610e5e015261175901526123566000f3fe6080604052600436106100f35760003560e01c80638c8682b01161008a578063cd6dc68711610059578063cd6dc68714610304578063e2fdcc1714610324578063ebb9d2e314610358578063ffab88101461037857600080fd5b80638c8682b0146102685780638da5cb5b1461027b578063c063d923146102a0578063c45a0155146102d057600080fd5b80634da2f2f9116100c65780634da2f2f9146101a65780634eae51f4146101d6578063786716fe146101f85780637b1039991461021c57600080fd5b806304710656146100f85780631c0795c314610125578063239e02481461016457806324f5ba4d14610186575b600080fd5b34801561010457600080fd5b5061010d610398565b60405161011c93929190611e7b565b60405180910390f35b34801561013157600080fd5b50610145610140366004611ee4565b610707565b604080516001600160a01b03909316835290151560208301520161011c565b34801561017057600080fd5b5061018461017f366004611f19565b610742565b005b34801561019257600080fd5b506101846101a1366004611ee4565b610994565b3480156101b257600080fd5b506101c66101c1366004611f19565b610a1f565b60405161011c9493929190611fd2565b3480156101e257600080fd5b506101eb610c16565b60405161011c9190612003565b34801561020457600080fd5b5061020e60015481565b60405190815260200161011c565b34801561022857600080fd5b506102507f000000000000000000000000000000000000000000000000000000000000000081565b6040516001600160a01b03909116815260200161011c565b6101846102763660046120b4565b610d7e565b34801561028757600080fd5b506000546102509061010090046001600160a01b031681565b3480156102ac57600080fd5b506102c06102bb366004611f19565b6116ea565b604051901515815260200161011c565b3480156102dc57600080fd5b506102507f000000000000000000000000000000000000000000000000000000000000000081565b34801561031057600080fd5b5061018461031f36600461213a565b61174e565b34801561033057600080fd5b506102507f000000000000000000000000000000000000000000000000000000000000000081565b34801561036457600080fd5b50610184610373366004611f19565b61181a565b34801561038457600080fd5b5061020e610393366004611f19565b611c8c565b60008054606091829161010090046001600160a01b031633146103ce576040516330cd747160e01b815260040160405180910390fd5b600254600090819081906103e390600a61217a565b67ffffffffffffffff8111156103fb576103fb612197565b604051908082528060200260200182016040528015610424578160200160208202803683370190505b5060025490915060009061043990600a61217a565b67ffffffffffffffff81111561045157610451612197565b60405190808252806020026020018201604052801561047a578160200160208202803683370190505b50905060005b6002548110156106f95760006002828154811061049f5761049f6121ad565b600091825260209182902060408051608081018252600490930290910180546001600160a01b0316835260018101805483518187028101870190945280845293949193858301939283018282801561052057602002820191906000526020600020905b81546001600160a01b03168152600190910190602001808311610502575b505050505081526020016002820180548060200260200160405190810160405280929190818152602001828054801561057857602002820191906000526020600020905b815481526020019060010190808311610564575b50505091835250506003919091015460ff16151560209091015280519091506000906105a390611c8c565b90506105af81876121c3565b955060005b8260200151518110156106ee576000836020015182815181106105d9576105d96121ad565b602002602001015190506000846040015183815181106105fb576105fb6121ad565b602002602001015190506000805b8b81101561067e57836001600160a01b03168a828151811061062d5761062d6121ad565b60200260200101516001600160a01b0316036106765782898281518110610656576106566121ad565b6020026020010181815161066a91906121c3565b9052506001915061067e565b600101610609565b50806106e35782898c81518110610697576106976121ad565b60200260200101906001600160a01b031690816001600160a01b03168152505081888c815181106106ca576106ca6121ad565b60209081029190910101528a6106df816121d6565b9b50505b5050506001016105b4565b505050600101610480565b509095509350915050909192565b6002818154811061071757600080fd5b6000918252602090912060049091020180546003909101546001600160a01b03909116915060ff1682565b60008061074e83610a1f565b935050925050801561097b5760006002838154811061076f5761076f6121ad565b60009182526020909120600490910201600381015490915060ff16156107a857604051630dc1019760e01b815260040160405180910390fd5b6001544210156107cb57604051630fabf49160e31b815260040160405180910390fd5b60038101805460ff1916600117905560005b6001820154811015610974576000826001018281548110610800576108006121ad565b60009182526020822001546002850180546001600160a01b039092169350908490811061082f5761082f6121ad565b60009182526020909120015490506001600160a01b0382166108d5578354604051631c024c5f60e21b81526001600160a01b037f0000000000000000000000000000000000000000000000000000000000000000811692637009317c9261089e923092169086906004016121ef565b600060405180830381600087803b1580156108b857600080fd5b505af11580156108cc573d6000803e3d6000fd5b5050505061096a565b835460405163368fa33960e21b81523060048201526001600160a01b0384811660248301529182166044820152606481018390527f00000000000000000000000000000000000000000000000000000000000000009091169063da3e8ce490608401600060405180830381600087803b15801561095157600080fd5b505af1158015610965573d6000803e3d6000fd5b505050505b50506001016107dd565b5050505050565b604051635d87380560e11b815260040160405180910390fd5b60005461010090046001600160a01b031633146109c4576040516330cd747160e01b815260040160405180910390fd5b4281116109e45760405163a1ff8dcd60e01b815260040160405180910390fd5b60018190556040518181527f55d7e6f1a179e3ea50ffc19aaf954604d6fe7263c7afd9d254f0f52ec8c6396a9060200160405180910390a150565b610a55604051806080016040528060006001600160a01b0316815260200160608152602001606081526020016000151581525090565b60008080805b600254811015610bc857856001600160a01b031660028281548110610a8257610a826121ad565b60009182526020909120600490910201546001600160a01b031603610bc05760028181548110610ab457610ab46121ad565b60009182526020918290206001805460408051608081018252600490950290930180546001600160a01b0316855282810180548551818902810189019096528086529196889693958893858301939192830182828015610b3d57602002820191906000526020600020905b81546001600160a01b03168152600190910190602001808311610b1f575b5050505050815260200160028201805480602002602001604051908101604052809291908181526020018280548015610b9557602002820191906000526020600020905b815481526020019060010190808311610b81575b50505091835250506003919091015460ff161515602090910152985091965094509250610c0f915050565b600101610a5b565b50610bff604051806080016040528060006001600160a01b0316815260200160608152602001606081526020016000151581525090565b6001549094506000935091508290505b9193509193565b60005460609061010090046001600160a01b03163314610c49576040516330cd747160e01b815260040160405180910390fd5b6002805480602002602001604051908101604052809291908181526020016000905b82821015610d75576000848152602090819020604080516080810182526004860290920180546001600160a01b03168352600181018054835181870281018701909452808452939491938583019392830182828015610cf357602002820191906000526020600020905b81546001600160a01b03168152600190910190602001808311610cd5575b5050505050815260200160028201805480602002602001604051908101604052809291908181526020018280548015610d4b57602002820191906000526020600020905b815481526020019060010190808311610d37575b50505091835250506003919091015460ff1615156020918201529082526001929092019101610c6b565b50505050905090565b60005461010090046001600160a01b03163314801590610dc75750336001600160a01b037f00000000000000000000000000000000000000000000000000000000000000001614155b15610de55760405163fa49961f60e01b815260040160405180910390fd5b600154421115610e0857604051630c88fd1360e41b815260040160405180910390fd5b610e11856116ea565b15610e2f5760405163a7ed968360e01b815260040160405180910390fd5b828114610e4f57604051635fc168dd60e01b815260040160405180910390fd5b60005b83811015610fba5760007f00000000000000000000000000000000000000000000000000000000000000006001600160a01b031663522c1d58878785818110610e9d57610e9d6121ad565b9050602002016020810190610eb29190611f19565b6040516001600160e01b031960e084901b1681526001600160a01b0390911660048201526024016040805180830381865afa158015610ef5573d6000803e3d6000fd5b505050506040513d601f19601f82011682018060405250810190610f199190612223565b50905080158015610f5a57506000868684818110610f3957610f396121ad565b9050602002016020810190610f4e9190611f19565b6001600160a01b031614155b15610f78576040516307c241ad60e51b815260040160405180910390fd5b838383818110610f8a57610f8a6121ad565b90506020020135600003610fb157604051635e85ae7360e01b815260040160405180910390fd5b50600101610e52565b5034156111375760007f00000000000000000000000000000000000000000000000000000000000000006001600160a01b03163460405160006040518083038185875af1925050503d806000811461102e576040519150601f19603f3d011682016040523d82523d6000602084013e611033565b606091505b505090508061107d5760405162461bcd60e51b815260206004820152601160248201527011551208195cd8dc9bddc819985a5b1959607a1b60448201526064015b60405180910390fd5b6040516352a664d960e01b81526001600160a01b037f000000000000000000000000000000000000000000000000000000000000000016906352a664d9906110ce90309060009034906004016121ef565b600060405180830381600087803b1580156110e857600080fd5b505af11580156110fc573d6000803e3d6000fd5b50506040513481523392507feae5b80234999a4b42b46917a5dab593f3c42f9d37fe8f2039418b9d38714d8e915060200160405180910390a2505b6000805b848110156111ad576000868683818110611157576111576121ad565b905060200201602081019061116c9190611f19565b6001600160a01b0316036111a55783838281811061118c5761118c6121ad565b905060200201358261119e91906121c3565b91506111ad565b60010161113b565b50348111156111cf576040516342f7487960e11b815260040160405180910390fd5b60006111db8234612260565b905080156112a657604051600090339083908381818185875af1925050503d8060008114611225576040519150601f19603f3d011682016040523d82523d6000602084013e61122a565b606091505b505090508061126f5760405162461bcd60e51b8152602060048201526011602482015270115512081c995d1d5c9b8819985a5b1959607a1b6044820152606401611074565b60405182815233907f6f27e80f202b24c64ffdcbf7a0835230ff4bc1c0d3ba24c78d642c9ed47e14c19060200160405180910390a2505b60005b8581101561157d5760008585838181106112c5576112c56121ad565b90506020020135118015611309575060008787838181106112e8576112e86121ad565b90506020020160208101906112fd9190611f19565b6001600160a01b031614155b15611575576000878783818110611322576113226121ad565b90506020020160208101906113379190611f19565b6001600160a01b03166323b872dd337f0000000000000000000000000000000000000000000000000000000000000000898987818110611379576113796121ad565b905060200201356040518463ffffffff1660e01b815260040161139e939291906121ef565b6020604051808303816000875af11580156113bd573d6000803e3d6000fd5b505050506040513d601f19601f820116820180604052508101906113e19190612273565b9050806114285760405162461bcd60e51b8152602060048201526015602482015274151bdad95b881d1c985b9cd9995c8819985a5b1959605a1b6044820152606401611074565b7f00000000000000000000000000000000000000000000000000000000000000006001600160a01b03166352a664d9308a8a8681811061146a5761146a6121ad565b905060200201602081019061147f9190611f19565b898987818110611491576114916121ad565b905060200201356040518463ffffffff1660e01b81526004016114b6939291906121ef565b600060405180830381600087803b1580156114d057600080fd5b505af11580156114e4573d6000803e3d6000fd5b50505050336001600160a01b0316888884818110611504576115046121ad565b90506020020160208101906115199190611f19565b6001600160a01b03167f32a93f8a38bc516fc22f65806911afd3e0129ecf96868676c9c60ff5ba4868dd888886818110611555576115556121ad565b9050602002013560405161156b91815260200190565b60405180910390a3505b6001016112a9565b5060026040518060800160405280896001600160a01b0316815260200188888080602002602001604051908101604052809392919081815260200183836020028082843760009201919091525050509082525060408051602088810282810182019093528882529283019290918991899182918501908490808284376000920182905250938552505050602091820181905283546001808201865594825290829020835160049092020180546001600160a01b0319166001600160a01b039092169190911781558282015180519394919361166093928501929190910190611d29565b506040820151805161167c916002840191602090910190611d8e565b50606091909101516003909101805460ff19169115159190911790556040516001600160a01b038816907f9510aa1c262d7a3afd173216aa08c0ff9e61ee8412d17732c67487b39a7e0e9e906116d990899089908990899061228e565b60405180910390a250505050505050565b6000805b60025481101561174557826001600160a01b031660028281548110611715576117156121ad565b60009182526020909120600490910201546001600160a01b03160361173d5750600192915050565b6001016116ee565b50600092915050565b336001600160a01b037f0000000000000000000000000000000000000000000000000000000000000000161461179757604051631966391b60e11b815260040160405180910390fd5b60005460ff16156117ba5760405162dc149f60e41b815260040160405180910390fd5b6000805460016001600160a81b03199091166101006001600160a01b038616021781179091558190556040513081527f97cd7b8b8920f0a9a090edccf4e2be3e26140dbc939b0242e8d8b7b218ad50029060200160405180910390a15050565b60005461010090046001600160a01b0316331461184a576040516330cd747160e01b815260040160405180910390fd5b60015442111561186d57604051630c88fd1360e41b815260040160405180910390fd5b600080600061187b84610a1f565b93505092509250801561097b57600061189385611c8c565b9050801561196d57600054604051631c024c5f60e21b81526001600160a01b037f0000000000000000000000000000000000000000000000000000000000000000811692637009317c926118f49230926101009004169086906004016121ef565b600060405180830381600087803b15801561190e57600080fd5b505af1158015611922573d6000803e3d6000fd5b50506000546040518481526101009091046001600160a01b031692507f1106cc671dfb7223886e8547434ee324eebf38142ef82a994a844836320688d9915060200160405180910390a25b60005b846020015151811015611b3d57600085604001518281518110611995576119956121ad565b60200260200101511115611b35577f00000000000000000000000000000000000000000000000000000000000000006001600160a01b031663da3e8ce430876020015184815181106119e9576119e96121ad565b6020026020010151600060019054906101000a90046001600160a01b031689604001518681518110611a1d57611a1d6121ad565b60209081029190910101516040516001600160e01b031960e087901b1681526001600160a01b0394851660048201529284166024840152921660448201526064810191909152608401600060405180830381600087803b158015611a8057600080fd5b505af1158015611a94573d6000803e3d6000fd5b50505050600060019054906101000a90046001600160a01b03166001600160a01b031685602001518281518110611acd57611acd6121ad565b60200260200101516001600160a01b03167f2c7402912a005a8b8fa7095a2810dec8789391b772fb8a5e09817a177c76d3e687604001518481518110611b1557611b156121ad565b6020026020010151604051611b2c91815260200190565b60405180910390a35b600101611970565b5060028054611b4e90600190612260565b81548110611b5e57611b5e6121ad565b906000526020600020906004020160028481548110611b7f57611b7f6121ad565b60009182526020909120825460049092020180546001600160a01b0319166001600160a01b0390921691909117815560018083018054611bc29284019190611dc9565b5060028281018054611bd79284019190611dc9565b506003918201549101805460ff191660ff90921615159190911790556002805480611c0457611c0461230a565b60008281526020812060046000199093019283020180546001600160a01b031916815590611c356001830182611e09565b611c43600283016000611e09565b50600301805460ff1916905590556040516001600160a01b038616907f1a7209727e630887f10df0c1048028b1b5d634699b5b845f1d10e7156cb0e6bd90600090a25050505050565b6000806000611c9a84610a1f565b9350505091508015611d1f5760005b826020015151811015611d1d5760006001600160a01b031683602001518281518110611cd757611cd76121ad565b60200260200101516001600160a01b031603611d155782604001518181518110611d0357611d036121ad565b60200260200101519350505050919050565b600101611ca9565b505b5060009392505050565b828054828255906000526020600020908101928215611d7e579160200282015b82811115611d7e57825182546001600160a01b0319166001600160a01b03909116178255602090920191600190910190611d49565b50611d8a929150611e2a565b5090565b828054828255906000526020600020908101928215611d7e579160200282015b82811115611d7e578251825591602001919060010190611dae565b828054828255906000526020600020908101928215611d7e5760005260206000209182015b82811115611d7e578254825591600101919060010190611dee565b5080546000825590600052602060002090810190611e279190611e2a565b50565b5b80821115611d8a5760008155600101611e2b565b600081518084526020840193506020830160005b82811015611e71578151865260209586019590910190600101611e53565b5093949350505050565b6060808252845190820181905260009060208601906080840190835b81811015611ebe5783516001600160a01b0316835260209384019390920191600101611e97565b50508381036020850152611ed28187611e3f565b92505050826040830152949350505050565b600060208284031215611ef657600080fd5b5035919050565b80356001600160a01b0381168114611f1457600080fd5b919050565b600060208284031215611f2b57600080fd5b611f3482611efd565b9392505050565b80516001600160a01b03168252602080820151608082850181905281519085018190526000929190910190829060a08601905b80831015611f995783516001600160a01b031682526020938401936001939093019290910190611f6e565b50604085015192508581036040870152611fb38184611e3f565b925050506060830151611fca606086018215159052565b509392505050565b608081526000611fe56080830187611f3b565b60208301959095525060408101929092521515606090910152919050565b6000602082016020835280845180835260408501915060408160051b86010192506020860160005b8281101561205c57603f19878603018452612047858351611f3b565b9450602093840193919091019060010161202b565b50929695505050505050565b60008083601f84011261207a57600080fd5b50813567ffffffffffffffff81111561209257600080fd5b6020830191508360208260051b85010111156120ad57600080fd5b9250929050565b6000806000806000606086880312156120cc57600080fd5b6120d586611efd565b9450602086013567ffffffffffffffff8111156120f157600080fd5b6120fd88828901612068565b909550935050604086013567ffffffffffffffff81111561211d57600080fd5b61212988828901612068565b969995985093965092949392505050565b6000806040838503121561214d57600080fd5b61215683611efd565b946020939093013593505050565b634e487b7160e01b600052601160045260246000fd5b808202811582820484141761219157612191612164565b92915050565b634e487b7160e01b600052604160045260246000fd5b634e487b7160e01b600052603260045260246000fd5b8082018082111561219157612191612164565b6000600182016121e8576121e8612164565b5060010190565b6001600160a01b039384168152919092166020820152604081019190915260600190565b80518015158114611f1457600080fd5b6000806040838503121561223657600080fd5b61223f83612213565b9150602083015160ff8116811461225557600080fd5b809150509250929050565b8181038181111561219157612191612164565b60006020828403121561228557600080fd5b611f3482612213565b6040808252810184905260008560608301825b878110156122cf576001600160a01b036122ba84611efd565b168252602092830192909101906001016122a1565b5083810360208501528481526001600160fb1b038511156122ef57600080fd5b8460051b915081866020830137016020019695505050505050565b634e487b7160e01b600052603160045260246000fdfea2646970667358221220a3e887fd9a6b3355dd6157f437ba7adb1a4ff8b2c0d2d11ba5744912ab2857f264736f6c634300081c0033",
  "linkReferences": {},
  "deployedLinkReferences": {}
}