{
  "_format": "hh-sol-artifact-1",
  "contractName": "LastWill",
  "sourceName": "contracts/LastWill.sol",
  "abi": [
    {
      "inputs": [
        {
          "internalType": "address",
          "name": "_factory",
          "type": "address"
        },
        {
          "internalType": "address",
          "name": "_escrow",
          "type": "address"
        },
        {
          "internalType": "address",
          "name": "_registry",
          "type": "address"
        }
      ],
      "stateMutability": "nonpayable",
      "type": "constructor"
    },
    {
      "inputs": [],
      "name": "AlreadyExecuted",
      "type": "error"
    },
    {
      "inputs": [],
      "name": "AlreadyInitialized",
      "type": "error"
    },
    {
      "inputs": [],
      "name": "InvalidDueDate",
      "type": "error"
    },
    {
      "inputs": [],
      "name": "NotDueYet",
      "type": "error"
    },
    {
      "inputs": [],
      "name": "NotFactory",
      "type": "error"
    },
    {
      "inputs": [],
      "name": "NotOwner",
      "type": "error"
    },
    {
      "inputs": [],
      "name": "NotOwnerOrFactory",
      "type": "error"
    },
    {
      "anonymous": false,
      "inputs": [
        {
          "indexed": false,
          "internalType": "uint256",
          "name": "newDate",
          "type": "uint256"
        }
      ],
      "name": "DueDateUpdated",
      "type": "event"
    },
    {
      "anonymous": false,
      "inputs": [
        {
          "indexed": true,
          "internalType": "address",
          "name": "heir",
          "type": "address"
        },
        {
          "indexed": false,
          "internalType": "address[]",
          "name": "tokens",
          "type": "address[]"
        },
        {
          "indexed": false,
          "internalType": "uint256[]",
          "name": "amounts",
          "type": "uint256[]"
        },
        {
          "indexed": false,
          "internalType": "uint256",
          "name": "nativeAmounts",
          "type": "uint256"
        }
      ],
      "name": "HeirAdded",
      "type": "event"
    },
    {
      "anonymous": false,
      "inputs": [
        {
          "indexed": true,
          "internalType": "uint256",
          "name": "index",
          "type": "uint256"
        }
      ],
      "name": "HeirRemoved",
      "type": "event"
    },
    {
      "anonymous": false,
      "inputs": [
        {
          "indexed": false,
          "internalType": "address",
          "name": "lastWill",
          "type": "address"
        }
      ],
      "name": "LastWillDeployed",
      "type": "event"
    },
    {
      "inputs": [
        {
          "internalType": "address",
          "name": "wallet",
          "type": "address"
        },
        {
          "internalType": "address[]",
          "name": "tokens",
          "type": "address[]"
        },
        {
          "internalType": "uint256[]",
          "name": "amounts",
          "type": "uint256[]"
        },
        {
          "internalType": "uint256",
          "name": "nativeAmounts",
          "type": "uint256"
        }
      ],
      "name": "addHeir",
      "outputs": [],
      "stateMutability": "nonpayable",
      "type": "function"
    },
    {
      "inputs": [],
      "name": "dueDate",
      "outputs": [
        {
          "internalType": "uint256",
          "name": "",
          "type": "uint256"
        }
      ],
      "stateMutability": "view",
      "type": "function"
    },
    {
      "inputs": [],
      "name": "escrow",
      "outputs": [
        {
          "internalType": "contract WillEscrow",
          "name": "",
          "type": "address"
        }
      ],
      "stateMutability": "view",
      "type": "function"
    },
    {
      "inputs": [],
      "name": "executeLastWill",
      "outputs": [],
      "stateMutability": "nonpayable",
      "type": "function"
    },
    {
      "inputs": [],
      "name": "executed",
      "outputs": [
        {
          "internalType": "bool",
          "name": "",
          "type": "bool"
        }
      ],
      "stateMutability": "view",
      "type": "function"
    },
    {
      "inputs": [],
      "name": "factory",
      "outputs": [
        {
          "internalType": "address",
          "name": "",
          "type": "address"
        }
      ],
      "stateMutability": "view",
      "type": "function"
    },
    {
      "inputs": [],
      "name": "getHeirs",
      "outputs": [
        {
          "components": [
            {
              "internalType": "address",
              "name": "wallet",
              "type": "address"
            },
            {
              "internalType": "address[]",
              "name": "tokens",
              "type": "address[]"
            },
            {
              "internalType": "uint256[]",
              "name": "amounts",
              "type": "uint256[]"
            },
            {
              "internalType": "uint256",
              "name": "nativeAmounts",
              "type": "uint256"
            }
          ],
          "internalType": "struct LastWill.Heir[]",
          "name": "",
          "type": "tuple[]"
        }
      ],
      "stateMutability": "view",
      "type": "function"
    },
    {
      "inputs": [],
      "name": "getTotalTokenAmounts",
      "outputs": [
        {
          "internalType": "address[]",
          "name": "",
          "type": "address[]"
        },
        {
          "internalType": "uint256[]",
          "name": "",
          "type": "uint256[]"
        },
        {
          "internalType": "uint256",
          "name": "",
          "type": "uint256"
        }
      ],
      "stateMutability": "view",
      "type": "function"
    },
    {
      "inputs": [
        {
          "internalType": "uint256",
          "name": "",
          "type": "uint256"
        }
      ],
      "name": "heirs",
      "outputs": [
        {
          "internalType": "address",
          "name": "wallet",
          "type": "address"
        },
        {
          "internalType": "uint256",
          "name": "nativeAmounts",
          "type": "uint256"
        }
      ],
      "stateMutability": "view",
      "type": "function"
    },
    {
      "inputs": [
        {
          "internalType": "address",
          "name": "_owner",
          "type": "address"
        },
        {
          "internalType": "uint256",
          "name": "_dueDate",
          "type": "uint256"
        }
      ],
      "name": "initialize",
      "outputs": [],
      "stateMutability": "nonpayable",
      "type": "function"
    },
    {
      "inputs": [],
      "name": "owner",
      "outputs": [
        {
          "internalType": "address",
          "name": "",
          "type": "address"
        }
      ],
      "stateMutability": "view",
      "type": "function"
    },
    {
      "inputs": [],
      "name": "registry",
      "outputs": [
        {
          "internalType": "contract WillRegistry",
          "name": "",
          "type": "address"
        }
      ],
      "stateMutability": "view",
      "type": "function"
    },
    {
      "inputs": [
        {
          "internalType": "uint256",
          "name": "index",
          "type": "uint256"
        }
      ],
      "name": "removeHeir",
      "outputs": [],
      "stateMutability": "nonpayable",
      "type": "function"
    },
    {
      "inputs": [
        {
          "internalType": "uint256",
          "name": "_dueDate",
          "type": "uint256"
        }
      ],
      "name": "updateDueDate",
      "outputs": [],
      "stateMutability": "nonpayable",
      "type": "function"
    }
  ],
  "bytecode": "0x60e060405234801561001057600080fd5b5060405161156538038061156583398101604081905261002f91610068565b6001600160a01b0392831660805290821660a0521660c0526100ab565b80516001600160a01b038116811461006357600080fd5b919050565b60008060006060848603121561007d57600080fd5b6100868461004c565b92506100946020850161004c565b91506100a26040850161004c565b90509250925092565b60805160a05160c05161146f6100f660003960006101d2015260008181610263015281816107db015261086e01526000818161022901528181610b6c0152610e43015261146f6000f3fe608060405234801561001057600080fd5b50600436106100ea5760003560e01c80634eae51f41161008c5780638da5cb5b116100665780638da5cb5b1461020c578063c45a015514610224578063cd6dc6871461024b578063e2fdcc171461025e57600080fd5b80634eae51f4146101a1578063786716fe146101b65780637b103999146101cd57600080fd5b806324f5ba4d116100c857806324f5ba4d1461014b57806331a38c891461015e5780633ca6a0b71461017b578063410d18da1461018e57600080fd5b806304710656146100ef5780630e5ae7d61461010f5780631c0795c314610119575b600080fd5b6100f7610285565b60405161010693929190611017565b60405180910390f35b6101176105e1565b005b61012c6101273660046110aa565b6108e4565b604080516001600160a01b039093168352602083019190915201610106565b6101176101593660046110aa565b61091c565b60025461016b9060ff1681565b6040519015158152602001610106565b6101176101893660046110aa565b6109a7565b61011761019c36600461112b565b610b46565b6101a9610d09565b60405161010691906111f5565b6101bf60015481565b604051908152602001610106565b6101f47f000000000000000000000000000000000000000000000000000000000000000081565b6040516001600160a01b039091168152602001610106565b6000546101f49061010090046001600160a01b031681565b6101f47f000000000000000000000000000000000000000000000000000000000000000081565b6101176102593660046112d6565b610e38565b6101f47f000000000000000000000000000000000000000000000000000000000000000081565b60008054606091829161010090046001600160a01b031633146102bb576040516330cd747160e01b815260040160405180910390fd5b600354600090819081906102d090600a611316565b67ffffffffffffffff8111156102e8576102e8611333565b604051908082528060200260200182016040528015610311578160200160208202803683370190505b5060035490915060009061032690600a611316565b67ffffffffffffffff81111561033e5761033e611333565b604051908082528060200260200182016040528015610367578160200160208202803683370190505b50905060005b6003548110156105d35760006003828154811061038c5761038c611349565b600091825260209182902060408051608081018252600490930290910180546001600160a01b0316835260018101805483518187028101870190945280845293949193858301939283018282801561040d57602002820191906000526020600020905b81546001600160a01b031681526001909101906020018083116103ef575b505050505081526020016002820180548060200260200160405190810160405280929190818152602001828054801561046557602002820191906000526020600020905b815481526020019060010190808311610451575b50505050508152602001600382015481525050905080606001518561048a919061135f565b945060005b8160200151518110156105c9576000826020015182815181106104b4576104b4611349565b602002602001015190506000836040015183815181106104d6576104d6611349565b602002602001015190506000805b8a81101561055957836001600160a01b031689828151811061050857610508611349565b60200260200101516001600160a01b031603610551578288828151811061053157610531611349565b60200260200101818151610545919061135f565b90525060019150610559565b6001016104e4565b50806105be5782888b8151811061057257610572611349565b60200260200101906001600160a01b031690816001600160a01b03168152505081878b815181106105a5576105a5611349565b6020908102919091010152896105ba81611372565b9a50505b50505060010161048f565b505060010161036d565b509095509350915050909192565b60025460ff161561060557604051630dc1019760e01b815260040160405180910390fd5b60015442101561062857604051630fabf49160e31b815260040160405180910390fd5b6002805460ff1916600117905560005b6003548110156108e15760006003828154811061065757610657611349565b600091825260209182902060408051608081018252600490930290910180546001600160a01b031683526001810180548351818702810187019094528084529394919385830193928301828280156106d857602002820191906000526020600020905b81546001600160a01b031681526001909101906020018083116106ba575b505050505081526020016002820180548060200260200160405190810160405280929190818152602001828054801561073057602002820191906000526020600020905b81548152602001906001019080831161071c575b50505050508152602001600382015481525050905060005b8160200151518110156108d75760008260200151828151811061076d5761076d611349565b6020026020010151905060008360400151838151811061078f5761078f611349565b6020026020010151905060006001600160a01b0316826001600160a01b03160361083e578351604051637b1a490960e01b81526001600160a01b039182166004820152602481018390527f000000000000000000000000000000000000000000000000000000000000000090911690637b1a490990604401600060405180830381600087803b15801561082157600080fd5b505af1158015610835573d6000803e3d6000fd5b505050506108cd565b835160405163276d76f960e21b81526001600160a01b0384811660048301529182166024820152604481018390527f000000000000000000000000000000000000000000000000000000000000000090911690639db5dbe490606401600060405180830381600087803b1580156108b457600080fd5b505af11580156108c8573d6000803e3d6000fd5b505050505b5050600101610748565b5050600101610638565b50565b600381815481106108f457600080fd5b6000918252602090912060049091020180546003909101546001600160a01b03909116915082565b60005461010090046001600160a01b0316331461094c576040516330cd747160e01b815260040160405180910390fd5b42811161096c5760405163a1ff8dcd60e01b815260040160405180910390fd5b60018190556040518181527f55d7e6f1a179e3ea50ffc19aaf954604d6fe7263c7afd9d254f0f52ec8c6396a9060200160405180910390a150565b60005461010090046001600160a01b031633146109d7576040516330cd747160e01b815260040160405180910390fd5b6003548110610a1c5760405162461bcd60e51b815260206004820152600d60248201526c092dcecc2d8d2c840d2dcc8caf609b1b604482015260640160405180910390fd5b60038054610a2c9060019061138b565b81548110610a3c57610a3c611349565b906000526020600020906004020160038281548110610a5d57610a5d611349565b60009182526020909120825460049092020180546001600160a01b0319166001600160a01b0390921691909117815560018083018054610aa09284019190610f04565b5060028281018054610ab59284019190610f04565b5060039182015490820155805480610acf57610acf61139e565b60008281526020812060046000199093019283020180546001600160a01b031916815590610b006001830182610f54565b610b0e600283016000610f54565b506000600391909101819055915560405182917e6919dd8a1349e0dea30e0baae839446d936adab36e3427e1abf17857dca37591a250565b60005461010090046001600160a01b03163314801590610b8f5750336001600160a01b037f00000000000000000000000000000000000000000000000000000000000000001614155b15610bad5760405163fa49961f60e01b815260040160405180910390fd5b60036040518060800160405280886001600160a01b0316815260200187878080602002602001604051908101604052809392919081815260200183836020028082843760009201919091525050509082525060408051602087810282810182019093528782529283019290918891889182918501908490808284376000920182905250938552505050602091820185905283546001808201865594825290829020835160049092020180546001600160a01b0319166001600160a01b0390921691909117815582820151805193949193610c8f93928501929190910190610f72565b5060408201518051610cab916002840191602090910190610fc7565b50606082015181600301555050856001600160a01b03167f9f589da83daa77c2e9c8af88bdd471d4d949ce719c3f9e872eb37299c69675e88686868686604051610cf99594939291906113b4565b60405180910390a2505050505050565b60606003805480602002602001604051908101604052809291908181526020016000905b82821015610e2f576000848152602090819020604080516080810182526004860290920180546001600160a01b03168352600181018054835181870281018701909452808452939491938583019392830182828015610db557602002820191906000526020600020905b81546001600160a01b03168152600190910190602001808311610d97575b5050505050815260200160028201805480602002602001604051908101604052809291908181526020018280548015610e0d57602002820191906000526020600020905b815481526020019060010190808311610df9575b5050505050815260200160038201548152505081526020019060010190610d2d565b50505050905090565b336001600160a01b037f00000000000000000000000000000000000000000000000000000000000000001614610e8157604051631966391b60e11b815260040160405180910390fd5b60005460ff1615610ea45760405162dc149f60e41b815260040160405180910390fd5b6000805460016001600160a81b03199091166101006001600160a01b038616021781179091558190556040513081527f97cd7b8b8920f0a9a090edccf4e2be3e26140dbc939b0242e8d8b7b218ad50029060200160405180910390a15050565b828054828255906000526020600020908101928215610f445760005260206000209182015b82811115610f44578254825591600101919060010190610f29565b50610f50929150611002565b5090565b50805460008255906000526020600020908101906108e19190611002565b828054828255906000526020600020908101928215610f44579160200282015b82811115610f4457825182546001600160a01b0319166001600160a01b03909116178255602090920191600190910190610f92565b828054828255906000526020600020908101928215610f44579160200282015b82811115610f44578251825591602001919060010190610fe7565b5b80821115610f505760008155600101611003565b6060808252845190820181905260009060208601906080840190835b8181101561105a5783516001600160a01b0316835260209384019390920191600101611033565b50508381036020808601919091528651808352918101925086019060005b81811015611096578251845260209384019390920191600101611078565b505050604092909201929092529392505050565b6000602082840312156110bc57600080fd5b5035919050565b80356001600160a01b03811681146110da57600080fd5b919050565b60008083601f8401126110f157600080fd5b50813567ffffffffffffffff81111561110957600080fd5b6020830191508360208260051b850101111561112457600080fd5b9250929050565b6000806000806000806080878903121561114457600080fd5b61114d876110c3565b9550602087013567ffffffffffffffff81111561116957600080fd5b61117589828a016110df565b909650945050604087013567ffffffffffffffff81111561119557600080fd5b6111a189828a016110df565b979a9699509497949695606090950135949350505050565b600081518084526020840193506020830160005b828110156111eb5781518652602095860195909101906001016111cd565b5093949350505050565b6000602082016020835280845180835260408501915060408160051b86010192506020860160005b828110156112ca57868503603f19018452815180516001600160a01b031686526020808201516080828901819052815190890181905291019060009060a08901905b8083101561128a5783516001600160a01b03168252602093840193600193909301929091019061125f565b506040840151925088810360408a01526112a481846111b9565b60609485015199909401989098525090955050602093840193919091019060010161121d565b50929695505050505050565b600080604083850312156112e957600080fd5b6112f2836110c3565b946020939093013593505050565b634e487b7160e01b600052601160045260246000fd5b808202811582820484141761132d5761132d611300565b92915050565b634e487b7160e01b600052604160045260246000fd5b634e487b7160e01b600052603260045260246000fd5b8082018082111561132d5761132d611300565b60006001820161138457611384611300565b5060010190565b8181038181111561132d5761132d611300565b634e487b7160e01b600052603160045260246000fd5b6060808252810185905260008660808301825b888110156113f5576001600160a01b036113e0846110c3565b168252602092830192909101906001016113c7565b5083810360208501528581526001600160fb1b0386111561141557600080fd5b8560051b91508187602083013760409390930193909352500160200194935050505056fea2646970667358221220ed0ab9ac3f580ec99d316a223e8e023258fb13f685d101c551180735221dc2fa64736f6c634300081c0033",
  "linkReferences": {},
  "deployedLinkReferences": {}
}