{
  "_format": "hh-sol-artifact-1",
  "contractName": "LastWill",
  "sourceName": "contracts/LastWill.sol",
  "abi": [
    {
      "inputs": [
        {
          "internalType": "address",
          "name": "_factory",
          "type": "address"
        },
        {
          "internalType": "address",
          "name": "_escrow",
          "type": "address"
        },
        {
          "internalType": "address",
          "name": "_registry",
          "type": "address"
        }
      ],
      "stateMutability": "nonpayable",
      "type": "constructor"
    },
    {
      "inputs": [],
      "name": "AlreadyExecuted",
      "type": "error"
    },
    {
      "inputs": [],
      "name": "AlreadyInitialized",
      "type": "error"
    },
    {
      "inputs": [],
      "name": "NotDueYet",
      "type": "error"
    },
    {
      "anonymous": false,
      "inputs": [
        {
          "indexed": false,
          "internalType": "uint256",
          "name": "newDate",
          "type": "uint256"
        }
      ],
      "name": "DueDateUpdated",
      "type": "event"
    },
    {
      "anonymous": false,
      "inputs": [
        {
          "indexed": true,
          "internalType": "address",
          "name": "heir",
          "type": "address"
        },
        {
          "indexed": false,
          "internalType": "address[]",
          "name": "tokens",
          "type": "address[]"
        },
        {
          "indexed": false,
          "internalType": "uint256[]",
          "name": "amounts",
          "type": "uint256[]"
        }
      ],
      "name": "HeirAdded",
      "type": "event"
    },
    {
      "anonymous": false,
      "inputs": [
        {
          "indexed": false,
          "internalType": "address",
          "name": "lastWill",
          "type": "address"
        }
      ],
      "name": "LastWillDeployed",
      "type": "event"
    },
    {
      "inputs": [],
      "name": "dueDate",
      "outputs": [
        {
          "internalType": "uint256",
          "name": "",
          "type": "uint256"
        }
      ],
      "stateMutability": "view",
      "type": "function"
    },
    {
      "inputs": [],
      "name": "escrow",
      "outputs": [
        {
          "internalType": "contract WillEscrow",
          "name": "",
          "type": "address"
        }
      ],
      "stateMutability": "view",
      "type": "function"
    },
    {
      "inputs": [],
      "name": "executeLasWill",
      "outputs": [],
      "stateMutability": "nonpayable",
      "type": "function"
    },
    {
      "inputs": [],
      "name": "executed",
      "outputs": [
        {
          "internalType": "bool",
          "name": "",
          "type": "bool"
        }
      ],
      "stateMutability": "view",
      "type": "function"
    },
    {
      "inputs": [],
      "name": "factory",
      "outputs": [
        {
          "internalType": "address",
          "name": "",
          "type": "address"
        }
      ],
      "stateMutability": "view",
      "type": "function"
    },
    {
      "inputs": [],
      "name": "getHeirs",
      "outputs": [
        {
          "components": [
            {
              "internalType": "address",
              "name": "wallet",
              "type": "address"
            },
            {
              "internalType": "address[]",
              "name": "tokens",
              "type": "address[]"
            },
            {
              "internalType": "uint256[]",
              "name": "amounts",
              "type": "uint256[]"
            }
          ],
          "internalType": "struct LastWill.Heir[]",
          "name": "",
          "type": "tuple[]"
        }
      ],
      "stateMutability": "view",
      "type": "function"
    },
    {
      "inputs": [
        {
          "internalType": "uint256",
          "name": "",
          "type": "uint256"
        }
      ],
      "name": "heirs",
      "outputs": [
        {
          "internalType": "address",
          "name": "wallet",
          "type": "address"
        }
      ],
      "stateMutability": "view",
      "type": "function"
    },
    {
      "inputs": [
        {
          "internalType": "address",
          "name": "_owner",
          "type": "address"
        },
        {
          "internalType": "uint256",
          "name": "_dueDate",
          "type": "uint256"
        }
      ],
      "name": "initialize",
      "outputs": [],
      "stateMutability": "nonpayable",
      "type": "function"
    },
    {
      "inputs": [],
      "name": "initialized",
      "outputs": [
        {
          "internalType": "bool",
          "name": "",
          "type": "bool"
        }
      ],
      "stateMutability": "view",
      "type": "function"
    },
    {
      "inputs": [
        {
          "internalType": "uint256",
          "name": "newDate",
          "type": "uint256"
        }
      ],
      "name": "updateDueDate",
      "outputs": [],
      "stateMutability": "nonpayable",
      "type": "function"
    }
  ],
  "bytecode": "0x60a0604052348015600f57600080fd5b5060405161064e38038061064e833981016040819052602c916076565b506001600160a01b03918216608052600280549190921661010002610100600160a81b031990911617905560b2565b80516001600160a01b0381168114607157600080fd5b919050565b600080600060608486031215608a57600080fd5b609184605b565b9250609d60208501605b565b915060a960408501605b565b90509250925092565b6080516105816100cd600039600061014b01526105816000f3fe608060405234801561001057600080fd5b506004361061009e5760003560e01c80636c9e538c116100665780636c9e538c14610127578063786716fe1461012f578063c45a015514610146578063cd6dc6871461016d578063e2fdcc171461018057600080fd5b8063158ef93e146100a35780631c0795c3146100c557806324f5ba4d146100f057806331a38c89146101055780634eae51f414610112575b600080fd5b6000546100b09060ff1681565b60405190151581526020015b60405180910390f35b6100d86100d33660046103ea565b610198565b6040516001600160a01b0390911681526020016100bc565b6101036100fe3660046103ea565b6101c7565b005b6002546100b09060ff1681565b61011a610202565b6040516100bc919061043f565b610103610327565b61013860015481565b6040519081526020016100bc565b6100d87f000000000000000000000000000000000000000000000000000000000000000081565b61010361017b366004610513565b61037d565b6002546100d89061010090046001600160a01b031681565b600381815481106101a857600080fd5b60009182526020909120600390910201546001600160a01b0316905081565b60018190556040518181527f55d7e6f1a179e3ea50ffc19aaf954604d6fe7263c7afd9d254f0f52ec8c6396a9060200160405180910390a150565b60606003805480602002602001604051908101604052809291908181526020016000905b8282101561031e576000848152602090819020604080516060810182526003860290920180546001600160a01b031683526001810180548351818702810187019094528084529394919385830193928301828280156102ae57602002820191906000526020600020905b81546001600160a01b03168152600190910190602001808311610290575b505050505081526020016002820180548060200260200160405190810160405280929190818152602001828054801561030657602002820191906000526020600020905b8154815260200190600101908083116102f2575b50505050508152505081526020019060010190610226565b50505050905090565b60025460ff161561034b57604051630dc1019760e01b815260040160405180910390fd5b60015442101561036e57604051630fabf49160e31b815260040160405180910390fd5b6002805460ff19166001179055565b60005460ff16156103a05760405162dc149f60e41b815260040160405180910390fd5b6000805460ff191660019081179091558190556040513081527f97cd7b8b8920f0a9a090edccf4e2be3e26140dbc939b0242e8d8b7b218ad50029060200160405180910390a15050565b6000602082840312156103fc57600080fd5b5035919050565b600081518084526020840193506020830160005b82811015610435578151865260209586019590910190600101610417565b5093949350505050565b6000602082016020835280845180835260408501915060408160051b86010192506020860160005b8281101561050757868503603f19018452815180516001600160a01b031686526020808201516060828901819052815190890181905291019060009060808901905b808310156104d45783516001600160a01b0316825260209384019360019390930192909101906104a9565b506040840151935088810360408a01526104ee8185610403565b9850505060209586019593909301925050600101610467565b50929695505050505050565b6000806040838503121561052657600080fd5b82356001600160a01b038116811461053d57600080fd5b94602093909301359350505056fea2646970667358221220978f2260f771438a3e34bcf840191ce74b1c7d39892f12722b1c5acc1319949764736f6c634300081c0033",
  "linkReferences": {},
  "deployedLinkReferences": {}
}