{
  "_format": "hh-sol-artifact-1",
  "contractName": "LastWill",
  "sourceName": "contracts/LastWill.sol",
  "abi": [
    {
      "inputs": [
        {
          "internalType": "address",
          "name": "_factory",
          "type": "address"
        },
        {
          "internalType": "address",
          "name": "_escrow",
          "type": "address"
        },
        {
          "internalType": "address",
          "name": "_registry",
          "type": "address"
        }
      ],
      "stateMutability": "nonpayable",
      "type": "constructor"
    },
    {
      "inputs": [],
      "name": "AlreadyExecuted",
      "type": "error"
    },
    {
      "inputs": [],
      "name": "AlreadyInitialized",
      "type": "error"
    },
    {
      "inputs": [],
      "name": "InvalidDueDate",
      "type": "error"
    },
    {
      "inputs": [],
      "name": "NotDueYet",
      "type": "error"
    },
    {
      "inputs": [],
      "name": "NotFactory",
      "type": "error"
    },
    {
      "inputs": [],
      "name": "NotOwner",
      "type": "error"
    },
    {
      "inputs": [],
      "name": "NotOwnerOrFactory",
      "type": "error"
    },
    {
      "anonymous": false,
      "inputs": [
        {
          "indexed": false,
          "internalType": "uint256",
          "name": "newDate",
          "type": "uint256"
        }
      ],
      "name": "DueDateUpdated",
      "type": "event"
    },
    {
      "anonymous": false,
      "inputs": [
        {
          "indexed": true,
          "internalType": "address",
          "name": "heir",
          "type": "address"
        },
        {
          "indexed": false,
          "internalType": "address[]",
          "name": "tokens",
          "type": "address[]"
        },
        {
          "indexed": false,
          "internalType": "uint256[]",
          "name": "amounts",
          "type": "uint256[]"
        },
        {
          "indexed": false,
          "internalType": "uint256",
          "name": "nativeAmounts",
          "type": "uint256"
        }
      ],
      "name": "HeirAdded",
      "type": "event"
    },
    {
      "anonymous": false,
      "inputs": [
        {
          "indexed": true,
          "internalType": "uint256",
          "name": "index",
          "type": "uint256"
        }
      ],
      "name": "HeirRemoved",
      "type": "event"
    },
    {
      "anonymous": false,
      "inputs": [
        {
          "indexed": false,
          "internalType": "address",
          "name": "lastWill",
          "type": "address"
        }
      ],
      "name": "LastWillDeployed",
      "type": "event"
    },
    {
      "inputs": [
        {
          "internalType": "address",
          "name": "wallet",
          "type": "address"
        },
        {
          "internalType": "address[]",
          "name": "tokens",
          "type": "address[]"
        },
        {
          "internalType": "uint256[]",
          "name": "amounts",
          "type": "uint256[]"
        },
        {
          "internalType": "uint256",
          "name": "nativeAmounts",
          "type": "uint256"
        }
      ],
      "name": "addHeir",
      "outputs": [],
      "stateMutability": "nonpayable",
      "type": "function"
    },
    {
      "inputs": [],
      "name": "dueDate",
      "outputs": [
        {
          "internalType": "uint256",
          "name": "",
          "type": "uint256"
        }
      ],
      "stateMutability": "view",
      "type": "function"
    },
    {
      "inputs": [],
      "name": "escrow",
      "outputs": [
        {
          "internalType": "contract WillEscrow",
          "name": "",
          "type": "address"
        }
      ],
      "stateMutability": "view",
      "type": "function"
    },
    {
      "inputs": [],
      "name": "executeLastWill",
      "outputs": [],
      "stateMutability": "nonpayable",
      "type": "function"
    },
    {
      "inputs": [],
      "name": "executed",
      "outputs": [
        {
          "internalType": "bool",
          "name": "",
          "type": "bool"
        }
      ],
      "stateMutability": "view",
      "type": "function"
    },
    {
      "inputs": [],
      "name": "factory",
      "outputs": [
        {
          "internalType": "address",
          "name": "",
          "type": "address"
        }
      ],
      "stateMutability": "view",
      "type": "function"
    },
    {
      "inputs": [],
      "name": "getHeirs",
      "outputs": [
        {
          "components": [
            {
              "internalType": "address",
              "name": "wallet",
              "type": "address"
            },
            {
              "internalType": "address[]",
              "name": "tokens",
              "type": "address[]"
            },
            {
              "internalType": "uint256[]",
              "name": "amounts",
              "type": "uint256[]"
            },
            {
              "internalType": "uint256",
              "name": "nativeAmounts",
              "type": "uint256"
            }
          ],
          "internalType": "struct LastWill.Heir[]",
          "name": "",
          "type": "tuple[]"
        }
      ],
      "stateMutability": "view",
      "type": "function"
    },
    {
      "inputs": [
        {
          "internalType": "uint256",
          "name": "",
          "type": "uint256"
        }
      ],
      "name": "heirs",
      "outputs": [
        {
          "internalType": "address",
          "name": "wallet",
          "type": "address"
        },
        {
          "internalType": "uint256",
          "name": "nativeAmounts",
          "type": "uint256"
        }
      ],
      "stateMutability": "view",
      "type": "function"
    },
    {
      "inputs": [
        {
          "internalType": "address",
          "name": "_owner",
          "type": "address"
        },
        {
          "internalType": "uint256",
          "name": "_dueDate",
          "type": "uint256"
        }
      ],
      "name": "initialize",
      "outputs": [],
      "stateMutability": "nonpayable",
      "type": "function"
    },
    {
      "inputs": [],
      "name": "owner",
      "outputs": [
        {
          "internalType": "address",
          "name": "",
          "type": "address"
        }
      ],
      "stateMutability": "view",
      "type": "function"
    },
    {
      "inputs": [],
      "name": "registry",
      "outputs": [
        {
          "internalType": "contract WillRegistry",
          "name": "",
          "type": "address"
        }
      ],
      "stateMutability": "view",
      "type": "function"
    },
    {
      "inputs": [
        {
          "internalType": "uint256",
          "name": "index",
          "type": "uint256"
        }
      ],
      "name": "removeHeir",
      "outputs": [],
      "stateMutability": "nonpayable",
      "type": "function"
    },
    {
      "inputs": [
        {
          "internalType": "uint256",
          "name": "_dueDate",
          "type": "uint256"
        }
      ],
      "name": "updateDueDate",
      "outputs": [],
      "stateMutability": "nonpayable",
      "type": "function"
    }
  ],
  "bytecode": "0x60e060405234801561001057600080fd5b506040516110df3803806110df83398101604081905261002f91610068565b6001600160a01b0392831660805290821660a0521660c0526100ab565b80516001600160a01b038116811461006357600080fd5b919050565b60008060006060848603121561007d57600080fd5b6100868461004c565b92506100946020850161004c565b91506100a26040850161004c565b90509250925092565b60805160a05160c051610fe96100f6600039600061019c01526000818161022d0152818161044901526104dc0152600081816101f3015281816107da0152610ab10152610fe96000f3fe608060405234801561001057600080fd5b50600436106100cf5760003560e01c80634eae51f41161008c5780638da5cb5b116100665780638da5cb5b146101d6578063c45a0155146101ee578063cd6dc68714610215578063e2fdcc171461022857600080fd5b80634eae51f41461016b578063786716fe146101805780637b1039991461019757600080fd5b80630e5ae7d6146100d45780631c0795c3146100de57806324f5ba4d1461011557806331a38c89146101285780633ca6a0b714610145578063410d18da14610158575b600080fd5b6100dc61024f565b005b6100f16100ec366004610c85565b610552565b604080516001600160a01b0390931683526020830191909152015b60405180910390f35b6100dc610123366004610c85565b61058a565b6002546101359060ff1681565b604051901515815260200161010c565b6100dc610153366004610c85565b610615565b6100dc610166366004610d06565b6107b4565b610173610977565b60405161010c9190610dd0565b61018960015481565b60405190815260200161010c565b6101be7f000000000000000000000000000000000000000000000000000000000000000081565b6040516001600160a01b03909116815260200161010c565b6000546101be9061010090046001600160a01b031681565b6101be7f000000000000000000000000000000000000000000000000000000000000000081565b6100dc610223366004610eb1565b610aa6565b6101be7f000000000000000000000000000000000000000000000000000000000000000081565b60025460ff161561027357604051630dc1019760e01b815260040160405180910390fd5b60015442101561029657604051630fabf49160e31b815260040160405180910390fd5b6002805460ff1916600117905560005b60035481101561054f576000600382815481106102c5576102c5610edb565b600091825260209182902060408051608081018252600490930290910180546001600160a01b0316835260018101805483518187028101870190945280845293949193858301939283018282801561034657602002820191906000526020600020905b81546001600160a01b03168152600190910190602001808311610328575b505050505081526020016002820180548060200260200160405190810160405280929190818152602001828054801561039e57602002820191906000526020600020905b81548152602001906001019080831161038a575b50505050508152602001600382015481525050905060005b816020015151811015610545576000826020015182815181106103db576103db610edb565b602002602001015190506000836040015183815181106103fd576103fd610edb565b6020026020010151905060006001600160a01b0316826001600160a01b0316036104ac578351604051637b1a490960e01b81526001600160a01b039182166004820152602481018390527f000000000000000000000000000000000000000000000000000000000000000090911690637b1a490990604401600060405180830381600087803b15801561048f57600080fd5b505af11580156104a3573d6000803e3d6000fd5b5050505061053b565b835160405163276d76f960e21b81526001600160a01b0384811660048301529182166024820152604481018390527f000000000000000000000000000000000000000000000000000000000000000090911690639db5dbe490606401600060405180830381600087803b15801561052257600080fd5b505af1158015610536573d6000803e3d6000fd5b505050505b50506001016103b6565b50506001016102a6565b50565b6003818154811061056257600080fd5b6000918252602090912060049091020180546003909101546001600160a01b03909116915082565b60005461010090046001600160a01b031633146105ba576040516330cd747160e01b815260040160405180910390fd5b4281116105da5760405163a1ff8dcd60e01b815260040160405180910390fd5b60018190556040518181527f55d7e6f1a179e3ea50ffc19aaf954604d6fe7263c7afd9d254f0f52ec8c6396a9060200160405180910390a150565b60005461010090046001600160a01b03163314610645576040516330cd747160e01b815260040160405180910390fd5b600354811061068a5760405162461bcd60e51b815260206004820152600d60248201526c092dcecc2d8d2c840d2dcc8caf609b1b604482015260640160405180910390fd5b6003805461069a90600190610ef1565b815481106106aa576106aa610edb565b9060005260206000209060040201600382815481106106cb576106cb610edb565b60009182526020909120825460049092020180546001600160a01b0319166001600160a01b039092169190911781556001808301805461070e9284019190610b72565b50600282810180546107239284019190610b72565b506003918201549082015580548061073d5761073d610f18565b60008281526020812060046000199093019283020180546001600160a01b03191681559061076e6001830182610bc2565b61077c600283016000610bc2565b506000600391909101819055915560405182917e6919dd8a1349e0dea30e0baae839446d936adab36e3427e1abf17857dca37591a250565b60005461010090046001600160a01b031633148015906107fd5750336001600160a01b037f00000000000000000000000000000000000000000000000000000000000000001614155b1561081b5760405163fa49961f60e01b815260040160405180910390fd5b60036040518060800160405280886001600160a01b0316815260200187878080602002602001604051908101604052809392919081815260200183836020028082843760009201919091525050509082525060408051602087810282810182019093528782529283019290918891889182918501908490808284376000920182905250938552505050602091820185905283546001808201865594825290829020835160049092020180546001600160a01b0319166001600160a01b03909216919091178155828201518051939491936108fd93928501929190910190610be0565b5060408201518051610919916002840191602090910190610c35565b50606082015181600301555050856001600160a01b03167f9f589da83daa77c2e9c8af88bdd471d4d949ce719c3f9e872eb37299c69675e88686868686604051610967959493929190610f2e565b60405180910390a2505050505050565b60606003805480602002602001604051908101604052809291908181526020016000905b82821015610a9d576000848152602090819020604080516080810182526004860290920180546001600160a01b03168352600181018054835181870281018701909452808452939491938583019392830182828015610a2357602002820191906000526020600020905b81546001600160a01b03168152600190910190602001808311610a05575b5050505050815260200160028201805480602002602001604051908101604052809291908181526020018280548015610a7b57602002820191906000526020600020905b815481526020019060010190808311610a67575b505050505081526020016003820154815250508152602001906001019061099b565b50505050905090565b336001600160a01b037f00000000000000000000000000000000000000000000000000000000000000001614610aef57604051631966391b60e11b815260040160405180910390fd5b60005460ff1615610b125760405162dc149f60e41b815260040160405180910390fd5b6000805460016001600160a81b03199091166101006001600160a01b038616021781179091558190556040513081527f97cd7b8b8920f0a9a090edccf4e2be3e26140dbc939b0242e8d8b7b218ad50029060200160405180910390a15050565b828054828255906000526020600020908101928215610bb25760005260206000209182015b82811115610bb2578254825591600101919060010190610b97565b50610bbe929150610c70565b5090565b508054600082559060005260206000209081019061054f9190610c70565b828054828255906000526020600020908101928215610bb2579160200282015b82811115610bb257825182546001600160a01b0319166001600160a01b03909116178255602090920191600190910190610c00565b828054828255906000526020600020908101928215610bb2579160200282015b82811115610bb2578251825591602001919060010190610c55565b5b80821115610bbe5760008155600101610c71565b600060208284031215610c9757600080fd5b5035919050565b80356001600160a01b0381168114610cb557600080fd5b919050565b60008083601f840112610ccc57600080fd5b50813567ffffffffffffffff811115610ce457600080fd5b6020830191508360208260051b8501011115610cff57600080fd5b9250929050565b60008060008060008060808789031215610d1f57600080fd5b610d2887610c9e565b9550602087013567ffffffffffffffff811115610d4457600080fd5b610d5089828a01610cba565b909650945050604087013567ffffffffffffffff811115610d7057600080fd5b610d7c89828a01610cba565b979a9699509497949695606090950135949350505050565b600081518084526020840193506020830160005b82811015610dc6578151865260209586019590910190600101610da8565b5093949350505050565b6000602082016020835280845180835260408501915060408160051b86010192506020860160005b82811015610ea557868503603f19018452815180516001600160a01b031686526020808201516080828901819052815190890181905291019060009060a08901905b80831015610e655783516001600160a01b031682526020938401936001939093019290910190610e3a565b506040840151925088810360408a0152610e7f8184610d94565b606094850151999094019890985250909550506020938401939190910190600101610df8565b50929695505050505050565b60008060408385031215610ec457600080fd5b610ecd83610c9e565b946020939093013593505050565b634e487b7160e01b600052603260045260246000fd5b81810381811115610f1257634e487b7160e01b600052601160045260246000fd5b92915050565b634e487b7160e01b600052603160045260246000fd5b6060808252810185905260008660808301825b88811015610f6f576001600160a01b03610f5a84610c9e565b16825260209283019290910190600101610f41565b5083810360208501528581526001600160fb1b03861115610f8f57600080fd5b8560051b91508187602083013760409390930193909352500160200194935050505056fea2646970667358221220ba40b19b412ef8327ac7a4adc75a0475d7e185f617ffc37b05aaa88ab1e241b664736f6c634300081c0033",
  "linkReferences": {},
  "deployedLinkReferences": {}
}