{
  "_format": "hh-sol-artifact-1",
  "contractName": "WillFactory",
  "sourceName": "contracts/WillFactory.sol",
  "abi": [
    {
      "inputs": [
        {
          "internalType": "address",
          "name": "_registry",
          "type": "address"
        },
        {
          "internalType": "address",
          "name": "_escrow",
          "type": "address"
        }
      ],
      "stateMutability": "nonpayable",
      "type": "constructor"
    },
    {
      "inputs": [],
      "name": "AlreadyHasWill",
      "type": "error"
    },
    {
      "inputs": [],
      "name": "FailedDeployment",
      "type": "error"
    },
    {
      "inputs": [
        {
          "internalType": "uint256",
          "name": "balance",
          "type": "uint256"
        },
        {
          "internalType": "uint256",
          "name": "needed",
          "type": "uint256"
        }
      ],
      "name": "InsufficientBalance",
      "type": "error"
    },
    {
      "inputs": [],
      "name": "InvalidDueDate",
      "type": "error"
    },
    {
      "inputs": [],
      "name": "InvalidWill",
      "type": "error"
    },
    {
      "inputs": [
        {
          "internalType": "address",
          "name": "owner",
          "type": "address"
        }
      ],
      "name": "OwnableInvalidOwner",
      "type": "error"
    },
    {
      "inputs": [
        {
          "internalType": "address",
          "name": "account",
          "type": "address"
        }
      ],
      "name": "OwnableUnauthorizedAccount",
      "type": "error"
    },
    {
      "inputs": [],
      "name": "TokenAlreadyWhitelisted",
      "type": "error"
    },
    {
      "inputs": [],
      "name": "TokenNotWhitelisted",
      "type": "error"
    },
    {
      "inputs": [],
      "name": "Unauthorized",
      "type": "error"
    },
    {
      "inputs": [],
      "name": "WillNotRegisteredForHeir",
      "type": "error"
    },
    {
      "anonymous": false,
      "inputs": [
        {
          "indexed": true,
          "internalType": "address",
          "name": "previousOwner",
          "type": "address"
        },
        {
          "indexed": true,
          "internalType": "address",
          "name": "newOwner",
          "type": "address"
        }
      ],
      "name": "OwnershipTransferred",
      "type": "event"
    },
    {
      "anonymous": false,
      "inputs": [
        {
          "indexed": false,
          "internalType": "address",
          "name": "virtualLiquidityToken",
          "type": "address"
        }
      ],
      "name": "TokenAddedToWhiteList",
      "type": "event"
    },
    {
      "anonymous": false,
      "inputs": [
        {
          "indexed": false,
          "internalType": "address",
          "name": "virtualLiquidityToken",
          "type": "address"
        }
      ],
      "name": "TokenRemovedFromWhiteList",
      "type": "event"
    },
    {
      "anonymous": false,
      "inputs": [
        {
          "indexed": true,
          "internalType": "address",
          "name": "will",
          "type": "address"
        },
        {
          "indexed": true,
          "internalType": "address",
          "name": "creator",
          "type": "address"
        },
        {
          "indexed": false,
          "internalType": "uint256",
          "name": "dueDate",
          "type": "uint256"
        }
      ],
      "name": "WillInitialized",
      "type": "event"
    },
    {
      "inputs": [
        {
          "internalType": "address",
          "name": "token",
          "type": "address"
        }
      ],
      "name": "addTokenToWhiteList",
      "outputs": [],
      "stateMutability": "nonpayable",
      "type": "function"
    },
    {
      "inputs": [
        {
          "internalType": "address",
          "name": "heir",
          "type": "address"
        }
      ],
      "name": "addWillForHeir",
      "outputs": [],
      "stateMutability": "nonpayable",
      "type": "function"
    },
    {
      "inputs": [
        {
          "internalType": "uint256",
          "name": "dueDate",
          "type": "uint256"
        }
      ],
      "name": "createLastWill",
      "outputs": [
        {
          "internalType": "address",
          "name": "lastWill",
          "type": "address"
        }
      ],
      "stateMutability": "nonpayable",
      "type": "function"
    },
    {
      "inputs": [
        {
          "internalType": "address",
          "name": "",
          "type": "address"
        }
      ],
      "name": "creatorToWill",
      "outputs": [
        {
          "internalType": "address",
          "name": "",
          "type": "address"
        }
      ],
      "stateMutability": "view",
      "type": "function"
    },
    {
      "inputs": [],
      "name": "escrow",
      "outputs": [
        {
          "internalType": "address payable",
          "name": "",
          "type": "address"
        }
      ],
      "stateMutability": "view",
      "type": "function"
    },
    {
      "inputs": [],
      "name": "getCreatedWill",
      "outputs": [
        {
          "internalType": "address",
          "name": "will",
          "type": "address"
        }
      ],
      "stateMutability": "view",
      "type": "function"
    },
    {
      "inputs": [],
      "name": "getInheritedWills",
      "outputs": [
        {
          "internalType": "address[]",
          "name": "",
          "type": "address[]"
        }
      ],
      "stateMutability": "view",
      "type": "function"
    },
    {
      "inputs": [],
      "name": "getWhiteListedTokens",
      "outputs": [
        {
          "internalType": "address[]",
          "name": "",
          "type": "address[]"
        },
        {
          "internalType": "uint8[]",
          "name": "",
          "type": "uint8[]"
        }
      ],
      "stateMutability": "view",
      "type": "function"
    },
    {
      "inputs": [
        {
          "internalType": "address",
          "name": "",
          "type": "address"
        },
        {
          "internalType": "uint256",
          "name": "",
          "type": "uint256"
        }
      ],
      "name": "heirToWills",
      "outputs": [
        {
          "internalType": "address",
          "name": "",
          "type": "address"
        }
      ],
      "stateMutability": "view",
      "type": "function"
    },
    {
      "inputs": [
        {
          "internalType": "address",
          "name": "",
          "type": "address"
        }
      ],
      "name": "isValidWill",
      "outputs": [
        {
          "internalType": "bool",
          "name": "",
          "type": "bool"
        }
      ],
      "stateMutability": "view",
      "type": "function"
    },
    {
      "inputs": [],
      "name": "lastWillImplementation",
      "outputs": [
        {
          "internalType": "address",
          "name": "",
          "type": "address"
        }
      ],
      "stateMutability": "view",
      "type": "function"
    },
    {
      "inputs": [],
      "name": "owner",
      "outputs": [
        {
          "internalType": "address",
          "name": "",
          "type": "address"
        }
      ],
      "stateMutability": "view",
      "type": "function"
    },
    {
      "inputs": [],
      "name": "registry",
      "outputs": [
        {
          "internalType": "address",
          "name": "",
          "type": "address"
        }
      ],
      "stateMutability": "view",
      "type": "function"
    },
    {
      "inputs": [
        {
          "internalType": "address",
          "name": "token",
          "type": "address"
        }
      ],
      "name": "removeTokenFromWhiteList",
      "outputs": [],
      "stateMutability": "nonpayable",
      "type": "function"
    },
    {
      "inputs": [
        {
          "internalType": "address",
          "name": "heir",
          "type": "address"
        }
      ],
      "name": "removeWillFromHeir",
      "outputs": [],
      "stateMutability": "nonpayable",
      "type": "function"
    },
    {
      "inputs": [],
      "name": "renounceOwnership",
      "outputs": [],
      "stateMutability": "nonpayable",
      "type": "function"
    },
    {
      "inputs": [],
      "name": "resetLastWill",
      "outputs": [],
      "stateMutability": "nonpayable",
      "type": "function"
    },
    {
      "inputs": [
        {
          "internalType": "address",
          "name": "",
          "type": "address"
        }
      ],
      "name": "tokenWhiteList",
      "outputs": [
        {
          "internalType": "bool",
          "name": "allowed",
          "type": "bool"
        },
        {
          "internalType": "uint8",
          "name": "decimals",
          "type": "uint8"
        }
      ],
      "stateMutability": "view",
      "type": "function"
    },
    {
      "inputs": [
        {
          "internalType": "address",
          "name": "newOwner",
          "type": "address"
        }
      ],
      "name": "transferOwnership",
      "outputs": [],
      "stateMutability": "nonpayable",
      "type": "function"
    },
    {
      "inputs": [
        {
          "internalType": "uint256",
          "name": "",
          "type": "uint256"
        }
      ],
      "name": "whiteListedTokens",
      "outputs": [
        {
          "internalType": "address",
          "name": "",
          "type": "address"
        }
      ],
      "stateMutability": "view",
      "type": "function"
    }
  ],
  "bytecode": "0x60c060405234801561001057600080fd5b506040516139bf3803806139bf83398101604081905261002f91610153565b338061005557604051631e4fbdf760e01b81526000600482015260240160405180910390fd5b61005e816100da565b5030818360405161006e9061012a565b6001600160a01b03938416815291831660208301529091166040820152606001604051809103906000f0801580156100aa573d6000803e3d6000fd5b506001600160a01b03908116608052600180546001600160a01b031916938216939093179092551660a052610186565b600080546001600160a01b038381166001600160a01b0319831681178455604051919092169283917f8be0079c531659141344cd1fd0a4f28419497f9722a3daafe3b4186f6b6457e09190a35050565b6127d1806111ee83390190565b80516001600160a01b038116811461014e57600080fd5b919050565b6000806040838503121561016657600080fd5b61016f83610137565b915061017d60208401610137565b90509250929050565b60805160a0516110356101b9600039600081816103220152610a9c01526000818161016d0152610a5601526110356000f3fe608060405234801561001057600080fd5b506004361061012c5760003560e01c80638da5cb5b116100ad578063d1440f5011610071578063d1440f50146102d7578063e2415c9f1461030a578063e2fdcc171461031d578063f2dc892b14610344578063f2fde38b1461035757600080fd5b80638da5cb5b1461026657806399da578814610277578063aaf2e85f1461028d578063c3968111146102af578063c4d24acd146102c457600080fd5b80636aee0e63116100f45780636aee0e63146101fc578063715018a61461020f5780637951b5cf146102175780637b1039991461022a578063811e72941461023d57600080fd5b8063124830f21461013157806335fd539b1461016857806342a7a6691461018f578063522c1d58146101a457806367a332ae146101e9575b600080fd5b336000908152600360205260409020546001600160a01b03165b6040516001600160a01b0390911681526020015b60405180910390f35b61014b7f000000000000000000000000000000000000000000000000000000000000000081565b6101a261019d366004610e5f565b61036a565b005b6101d06101b2366004610e5f565b60056020526000908152604090205460ff8082169161010090041682565b60408051921515835260ff90911660208301520161015f565b6101a26101f7366004610e5f565b610522565b61014b61020a366004610e81565b610697565b6101a26106c1565b6101a2610225366004610e5f565b6106d5565b60015461014b906001600160a01b031681565b61014b61024b366004610e5f565b6003602052600090815260409020546001600160a01b031681565b6000546001600160a01b031661014b565b61027f610834565b60405161015f929190610edf565b6101a233600090815260036020526040902080546001600160a01b0319169055565b6102b761098d565b60405161015f9190610f3c565b61014b6102d2366004610e81565b6109f8565b6102fa6102e5366004610e5f565b60026020526000908152604090205460ff1681565b604051901515815260200161015f565b6101a2610318366004610e5f565b610c3c565b61014b7f000000000000000000000000000000000000000000000000000000000000000081565b61014b610352366004610f4f565b610ca5565b6101a2610365366004610e5f565b610cdd565b610372610d1d565b6001600160a01b03811660009081526005602052604090205460ff161561051f57604080518082018252600080825260208083018281526001600160a01b0386168352600590915292812091518254935161ffff1990941690151561ff0019161761010060ff909416939093029290921790555b6006548110156104e157816001600160a01b03166006828154811061040d5761040d610f79565b6000918252602090912001546001600160a01b0316036104d9576006805461043790600190610f8f565b8154811061044757610447610f79565b600091825260209091200154600680546001600160a01b03909216918390811061047357610473610f79565b9060005260206000200160006101000a8154816001600160a01b0302191690836001600160a01b0316021790555060068054806104b2576104b2610fb0565b600082815260209020810160001990810180546001600160a01b03191690550190556104e1565b6001016103e6565b506040516001600160a01b03821681527fdb65ca12c74e820c195286369a2a2aa73d182657f18e9bd39aac77baf88c3af69060200160405180910390a15b50565b61052a610d1d565b6001600160a01b03811660009081526005602052604090205460ff161561056457604051634424109160e01b815260040160405180910390fd5b6000816001600160a01b031663313ce5676040518163ffffffff1660e01b8152600401602060405180830381865afa1580156105a4573d6000803e3d6000fd5b505050506040513d601f19601f820116820180604052508101906105c89190610fc6565b604080518082018252600180825260ff84811660208085019182526001600160a01b03891660008181526005835287812096518754945161ffff1990951690151561ff0019161761010094909516939093029390931790945560068054938401815590527ff652222313e28459528d920b65115c16c04f3efc82aaedc97be59f3f377c0d3f90910180546001600160a01b0319168217905591519182529192507f23352a89f03ccc858cb204b2e383f548e48fa238ad69cf3209e6428771ae8811910160405180910390a15050565b600681815481106106a757600080fd5b6000918252602090912001546001600160a01b0316905081565b6106c9610d1d565b6106d36000610d4a565b565b3360009081526002602052604090205460ff16610705576040516325c2b28360e01b815260040160405180910390fd5b6001600160a01b0381166000908152600460205260408120805490915b8181101561081a57336001600160a01b031683828154811061074657610746610f79565b6000918252602090912001546001600160a01b031603610812578261076c600184610f8f565b8154811061077c5761077c610f79565b9060005260206000200160009054906101000a90046001600160a01b03168382815481106107ac576107ac610f79565b9060005260206000200160006101000a8154816001600160a01b0302191690836001600160a01b03160217905550828054806107ea576107ea610fb0565b600082815260209020810160001990810180546001600160a01b031916905501905550505050565b600101610722565b50604051634efbb54760e01b815260040160405180910390fd5b600654606090819060008167ffffffffffffffff81111561085757610857610fe9565b604051908082528060200260200182016040528015610880578160200160208202803683370190505b50905060008267ffffffffffffffff81111561089e5761089e610fe9565b6040519080825280602002602001820160405280156108c7578160200160208202803683370190505b50905060005b83811015610982576000600682815481106108ea576108ea610f79565b9060005260206000200160009054906101000a90046001600160a01b031690508084838151811061091d5761091d610f79565b6001600160a01b03928316602091820292909201810191909152908216600090815260059091526040902054835161010090910460ff169084908490811061096757610967610f79565b60ff90921660209283029190910190910152506001016108cd565b509094909350915050565b336000908152600460209081526040918290208054835181840281018401909452808452606093928301828280156109ee57602002820191906000526020600020905b81546001600160a01b031681526001909101906020018083116109d0575b5050505050905090565b6000428211610a1a5760405163a1ff8dcd60e01b815260040160405180910390fd5b336000908152600360205260409020546001600160a01b031615610a5157604051636efa1c0b60e11b815260040160405180910390fd5b610a7a7f0000000000000000000000000000000000000000000000000000000000000000610d9a565b604051630ca3319560e11b81526001600160a01b0380831660048301529192507f000000000000000000000000000000000000000000000000000000000000000090911690631946632a90602401600060405180830381600087803b158015610ae257600080fd5b505af1158015610af6573d6000803e3d6000fd5b505033600090815260036020908152604080832080546001600160a01b0319166001600160a01b03888116918217909255808552600290935292819020805460ff19166001908117909155549051630ca3319560e11b815260048101929092529091169250631946632a9150602401600060405180830381600087803b158015610b7f57600080fd5b505af1158015610b93573d6000803e3d6000fd5b505060405163cd6dc68760e01b8152336004820152602481018590526001600160a01b038416925063cd6dc6879150604401600060405180830381600087803b158015610bdf57600080fd5b505af1158015610bf3573d6000803e3d6000fd5b50506040518481523392506001600160a01b03841691507fdfa6f1f9b85face8f90d2ec39035322d7d66e2962d491482e3079120f77985f69060200160405180910390a3919050565b3360009081526002602052604090205460ff16610c6c576040516325c2b28360e01b815260040160405180910390fd5b6001600160a01b031660009081526004602090815260408220805460018101825590835291200180546001600160a01b03191633179055565b60046020528160005260406000208181548110610cc157600080fd5b6000918252602090912001546001600160a01b03169150829050565b610ce5610d1d565b6001600160a01b038116610d1457604051631e4fbdf760e01b8152600060048201526024015b60405180910390fd5b61051f81610d4a565b6000546001600160a01b031633146106d35760405163118cdaa760e01b8152336004820152602401610d0b565b600080546001600160a01b038381166001600160a01b0319831681178455604051919092169283917f8be0079c531659141344cd1fd0a4f28419497f9722a3daafe3b4186f6b6457e09190a35050565b6000610da7826000610dad565b92915050565b600081471015610dd95760405163cf47918160e01b815247600482015260248101839052604401610d0b565b763d602d80600a3d3981f3363d3d373d3d3d363d730000008360601b60e81c176000526e5af43d82803e903d91602b57fd5bf38360781b176020526037600983f090506001600160a01b038116610da75760405163b06ebf3d60e01b815260040160405180910390fd5b80356001600160a01b0381168114610e5a57600080fd5b919050565b600060208284031215610e7157600080fd5b610e7a82610e43565b9392505050565b600060208284031215610e9357600080fd5b5035919050565b600081518084526020840193506020830160005b82811015610ed55781516001600160a01b0316865260209586019590910190600101610eae565b5093949350505050565b604081526000610ef26040830185610e9a565b828103602084015280845180835260208301915060208601925060005b81811015610f3057835160ff16835260209384019390920191600101610f0f565b50909695505050505050565b602081526000610e7a6020830184610e9a565b60008060408385031215610f6257600080fd5b610f6b83610e43565b946020939093013593505050565b634e487b7160e01b600052603260045260246000fd5b81810381811115610da757634e487b7160e01b600052601160045260246000fd5b634e487b7160e01b600052603160045260246000fd5b600060208284031215610fd857600080fd5b815160ff81168114610e7a57600080fd5b634e487b7160e01b600052604160045260246000fdfea2646970667358221220e94fd66f1a9d946e869932a9621a11f484a874af7a0f08097b37eac1f639830864736f6c634300081c003360e060405234801561001057600080fd5b506040516127d13803806127d183398101604081905261002f91610067565b6001600160a01b03928316608052821660a0521660c0526100aa565b80516001600160a01b038116811461006257600080fd5b919050565b60008060006060848603121561007c57600080fd5b6100858461004b565b92506100936020850161004b565b91506100a16040850161004b565b90509250925092565b60805160a05160c0516126a461012d60003960008181610354015281816108820152818161092901528181610f9e0152818161106d015281816113210152818161140301528181611ab00152611bd80152600061023901526000818161030001528181610e3701528181611576015281816119540152611ea301526126a46000f3fe6080604052600436106100fe5760003560e01c80638c8682b011610095578063c45a015511610064578063c45a0155146102ee578063cd6dc68714610322578063e2fdcc1714610342578063ebb9d2e314610376578063ffab88101461039657600080fd5b80638c8682b0146102735780638da5cb5b14610286578063c0612c49146102ab578063c063d923146102be57600080fd5b80634da2f2f9116100d15780634da2f2f9146101b15780634eae51f4146101e1578063786716fe146102035780637b1039991461022757600080fd5b806304710656146101035780631c0795c314610130578063239e02481461016f57806324f5ba4d14610191575b600080fd5b34801561010f57600080fd5b506101186103b6565b60405161012793929190612129565b60405180910390f35b34801561013c57600080fd5b5061015061014b366004612192565b610725565b604080516001600160a01b039093168352901515602083015201610127565b34801561017b57600080fd5b5061018f61018a3660046121c7565b610760565b005b34801561019d57600080fd5b5061018f6101ac366004612192565b6109b2565b3480156101bd57600080fd5b506101d16101cc3660046121c7565b610a60565b6040516101279493929190612280565b3480156101ed57600080fd5b506101f6610c57565b60405161012791906122b1565b34801561020f57600080fd5b5061021960015481565b604051908152602001610127565b34801561023357600080fd5b5061025b7f000000000000000000000000000000000000000000000000000000000000000081565b6040516001600160a01b039091168152602001610127565b61018f610281366004612362565b610d8e565b34801561029257600080fd5b5060005461025b9061010090046001600160a01b031681565b61018f6102b93660046123e8565b61173e565b3480156102ca57600080fd5b506102de6102d93660046121c7565b6118e5565b6040519015158152602001610127565b3480156102fa57600080fd5b5061025b7f000000000000000000000000000000000000000000000000000000000000000081565b34801561032e57600080fd5b5061018f61033d36600461241e565b611949565b34801561034e57600080fd5b5061025b7f000000000000000000000000000000000000000000000000000000000000000081565b34801561038257600080fd5b5061018f6103913660046121c7565b611a15565b3480156103a257600080fd5b506102196103b13660046121c7565b611f3a565b60008054606091829161010090046001600160a01b031633146103ec576040516330cd747160e01b815260040160405180910390fd5b6002546000908190819061040190600a61245e565b67ffffffffffffffff8111156104195761041961247b565b604051908082528060200260200182016040528015610442578160200160208202803683370190505b5060025490915060009061045790600a61245e565b67ffffffffffffffff81111561046f5761046f61247b565b604051908082528060200260200182016040528015610498578160200160208202803683370190505b50905060005b600254811015610717576000600282815481106104bd576104bd612491565b600091825260209182902060408051608081018252600490930290910180546001600160a01b0316835260018101805483518187028101870190945280845293949193858301939283018282801561053e57602002820191906000526020600020905b81546001600160a01b03168152600190910190602001808311610520575b505050505081526020016002820180548060200260200160405190810160405280929190818152602001828054801561059657602002820191906000526020600020905b815481526020019060010190808311610582575b50505091835250506003919091015460ff16151560209091015280519091506000906105c190611f3a565b90506105cd81876124a7565b955060005b82602001515181101561070c576000836020015182815181106105f7576105f7612491565b6020026020010151905060008460400151838151811061061957610619612491565b602002602001015190506000805b8b81101561069c57836001600160a01b03168a828151811061064b5761064b612491565b60200260200101516001600160a01b031603610694578289828151811061067457610674612491565b6020026020010181815161068891906124a7565b9052506001915061069c565b600101610627565b50806107015782898c815181106106b5576106b5612491565b60200260200101906001600160a01b031690816001600160a01b03168152505081888c815181106106e8576106e8612491565b60209081029190910101528a6106fd816124ba565b9b50505b5050506001016105d2565b50505060010161049e565b509095509350915050909192565b6002818154811061073557600080fd5b6000918252602090912060049091020180546003909101546001600160a01b03909116915060ff1682565b60008061076c83610a60565b93505092505080156109995760006002838154811061078d5761078d612491565b60009182526020909120600490910201600381015490915060ff16156107c657604051630dc1019760e01b815260040160405180910390fd5b6001544210156107e957604051630fabf49160e31b815260040160405180910390fd5b60038101805460ff1916600117905560005b600182015481101561099257600082600101828154811061081e5761081e612491565b60009182526020822001546002850180546001600160a01b039092169350908490811061084d5761084d612491565b60009182526020909120015490506001600160a01b0382166108f3578354604051631c024c5f60e21b81526001600160a01b037f0000000000000000000000000000000000000000000000000000000000000000811692637009317c926108bc923092169086906004016124d3565b600060405180830381600087803b1580156108d657600080fd5b505af11580156108ea573d6000803e3d6000fd5b50505050610988565b835460405163368fa33960e21b81523060048201526001600160a01b0384811660248301529182166044820152606481018390527f00000000000000000000000000000000000000000000000000000000000000009091169063da3e8ce490608401600060405180830381600087803b15801561096f57600080fd5b505af1158015610983573d6000803e3d6000fd5b505050505b50506001016107fb565b5050505050565b604051635d87380560e11b815260040160405180910390fd5b60005461010090046001600160a01b031633146109e2576040516330cd747160e01b815260040160405180910390fd5b600154421115610a0557604051630c88fd1360e41b815260040160405180910390fd5b428111610a255760405163a1ff8dcd60e01b815260040160405180910390fd5b60018190556040518181527f55d7e6f1a179e3ea50ffc19aaf954604d6fe7263c7afd9d254f0f52ec8c6396a9060200160405180910390a150565b610a96604051806080016040528060006001600160a01b0316815260200160608152602001606081526020016000151581525090565b60008080805b600254811015610c0957856001600160a01b031660028281548110610ac357610ac3612491565b60009182526020909120600490910201546001600160a01b031603610c015760028181548110610af557610af5612491565b60009182526020918290206001805460408051608081018252600490950290930180546001600160a01b0316855282810180548551818902810189019096528086529196889693958893858301939192830182828015610b7e57602002820191906000526020600020905b81546001600160a01b03168152600190910190602001808311610b60575b5050505050815260200160028201805480602002602001604051908101604052809291908181526020018280548015610bd657602002820191906000526020600020905b815481526020019060010190808311610bc2575b50505091835250506003919091015460ff161515602090910152985091965094509250610c50915050565b600101610a9c565b50610c40604051806080016040528060006001600160a01b0316815260200160608152602001606081526020016000151581525090565b6001549094506000935091508290505b9193509193565b60606002805480602002602001604051908101604052809291908181526020016000905b82821015610d85576000848152602090819020604080516080810182526004860290920180546001600160a01b03168352600181018054835181870281018701909452808452939491938583019392830182828015610d0357602002820191906000526020600020905b81546001600160a01b03168152600190910190602001808311610ce5575b5050505050815260200160028201805480602002602001604051908101604052809291908181526020018280548015610d5b57602002820191906000526020600020905b815481526020019060010190808311610d47575b50505091835250506003919091015460ff1615156020918201529082526001929092019101610c7b565b50505050905090565b60005461010090046001600160a01b03163314610dbe576040516330cd747160e01b815260040160405180910390fd5b600154421115610de157604051630c88fd1360e41b815260040160405180910390fd5b610dea856118e5565b15610e085760405163a7ed968360e01b815260040160405180910390fd5b828114610e2857604051635fc168dd60e01b815260040160405180910390fd5b60005b83811015610f935760007f00000000000000000000000000000000000000000000000000000000000000006001600160a01b031663522c1d58878785818110610e7657610e76612491565b9050602002016020810190610e8b91906121c7565b6040516001600160e01b031960e084901b1681526001600160a01b0390911660048201526024016040805180830381865afa158015610ece573d6000803e3d6000fd5b505050506040513d601f19601f82011682018060405250810190610ef29190612507565b50905080158015610f3357506000868684818110610f1257610f12612491565b9050602002016020810190610f2791906121c7565b6001600160a01b031614155b15610f51576040516307c241ad60e51b815260040160405180910390fd5b838383818110610f6357610f63612491565b90506020020135600003610f8a57604051635e85ae7360e01b815260040160405180910390fd5b50600101610e2b565b5034156111105760007f00000000000000000000000000000000000000000000000000000000000000006001600160a01b03163460405160006040518083038185875af1925050503d8060008114611007576040519150601f19603f3d011682016040523d82523d6000602084013e61100c565b606091505b50509050806110565760405162461bcd60e51b815260206004820152601160248201527011551208195cd8dc9bddc819985a5b1959607a1b60448201526064015b60405180910390fd5b6040516352a664d960e01b81526001600160a01b037f000000000000000000000000000000000000000000000000000000000000000016906352a664d9906110a790309060009034906004016124d3565b600060405180830381600087803b1580156110c157600080fd5b505af11580156110d5573d6000803e3d6000fd5b50506040513481523392507feae5b80234999a4b42b46917a5dab593f3c42f9d37fe8f2039418b9d38714d8e915060200160405180910390a2505b6000805b8481101561118657600086868381811061113057611130612491565b905060200201602081019061114591906121c7565b6001600160a01b03160361117e5783838281811061116557611165612491565b905060200201358261117791906124a7565b9150611186565b600101611114565b50348111156111a8576040516342f7487960e11b815260040160405180910390fd5b60006111b48234612544565b9050801561127f57604051600090339083908381818185875af1925050503d80600081146111fe576040519150601f19603f3d011682016040523d82523d6000602084013e611203565b606091505b50509050806112485760405162461bcd60e51b8152602060048201526011602482015270115512081c995d1d5c9b8819985a5b1959607a1b604482015260640161104d565b60405182815233907f6f27e80f202b24c64ffdcbf7a0835230ff4bc1c0d3ba24c78d642c9ed47e14c19060200160405180910390a2505b60005b8581101561155657600085858381811061129e5761129e612491565b905060200201351180156112e2575060008787838181106112c1576112c1612491565b90506020020160208101906112d691906121c7565b6001600160a01b031614155b1561154e5760008787838181106112fb576112fb612491565b905060200201602081019061131091906121c7565b6001600160a01b03166323b872dd337f000000000000000000000000000000000000000000000000000000000000000089898781811061135257611352612491565b905060200201356040518463ffffffff1660e01b8152600401611377939291906124d3565b6020604051808303816000875af1158015611396573d6000803e3d6000fd5b505050506040513d601f19601f820116820180604052508101906113ba9190612557565b9050806114015760405162461bcd60e51b8152602060048201526015602482015274151bdad95b881d1c985b9cd9995c8819985a5b1959605a1b604482015260640161104d565b7f00000000000000000000000000000000000000000000000000000000000000006001600160a01b03166352a664d9308a8a8681811061144357611443612491565b905060200201602081019061145891906121c7565b89898781811061146a5761146a612491565b905060200201356040518463ffffffff1660e01b815260040161148f939291906124d3565b600060405180830381600087803b1580156114a957600080fd5b505af11580156114bd573d6000803e3d6000fd5b50505050336001600160a01b03168888848181106114dd576114dd612491565b90506020020160208101906114f291906121c7565b6001600160a01b03167f32a93f8a38bc516fc22f65806911afd3e0129ecf96868676c9c60ff5ba4868dd88888681811061152e5761152e612491565b9050602002013560405161154491815260200190565b60405180910390a3505b600101611282565b5060405163e2415c9f60e01b81526001600160a01b0388811660048301527f0000000000000000000000000000000000000000000000000000000000000000169063e2415c9f90602401600060405180830381600087803b1580156115ba57600080fd5b505af11580156115ce573d6000803e3d6000fd5b5050505060026040518060800160405280896001600160a01b0316815260200188888080602002602001604051908101604052809392919081815260200183836020028082843760009201919091525050509082525060408051602088810282810182019093528882529283019290918991899182918501908490808284376000920182905250938552505050602091820181905283546001808201865594825290829020835160049092020180546001600160a01b0319166001600160a01b03909216919091178155828201518051939491936116b493928501929190910190611fd7565b50604082015180516116d091600284019160209091019061203c565b50606091909101516003909101805460ff19169115159190911790556040516001600160a01b038816907f9510aa1c262d7a3afd173216aa08c0ff9e61ee8412d17732c67487b39a7e0e9e9061172d908990899089908990612572565b60405180910390a250505050505050565b60005461010090046001600160a01b0316331461176e576040516330cd747160e01b815260040160405180910390fd5b60015442111561179157604051630c88fd1360e41b815260040160405180910390fd5b60015485146117f3574285116117ba5760405163a1ff8dcd60e01b815260040160405180910390fd5b60018590556040518581527f55d7e6f1a179e3ea50ffc19aaf954604d6fe7263c7afd9d254f0f52ec8c6396a9060200160405180910390a15b60005b818110156118305761182883838381811061181357611813612491565b905060200201602081019061039191906121c7565b6001016117f6565b5060005b838110156118dd576118d585858381811061185157611851612491565b905060200281019061186391906125ee565b6118719060208101906121c7565b86868481811061188357611883612491565b905060200281019061189591906125ee565b6118a390602081019061260e565b8888868181106118b5576118b5612491565b90506020028101906118c791906125ee565b61028190604081019061260e565b600101611834565b505050505050565b6000805b60025481101561194057826001600160a01b03166002828154811061191057611910612491565b60009182526020909120600490910201546001600160a01b0316036119385750600192915050565b6001016118e9565b50600092915050565b336001600160a01b037f0000000000000000000000000000000000000000000000000000000000000000161461199257604051631966391b60e11b815260040160405180910390fd5b60005460ff16156119b55760405162dc149f60e41b815260040160405180910390fd5b6000805460016001600160a81b03199091166101006001600160a01b038616021781179091558190556040513081527f97cd7b8b8920f0a9a090edccf4e2be3e26140dbc939b0242e8d8b7b218ad50029060200160405180910390a15050565b60005461010090046001600160a01b03163314611a45576040516330cd747160e01b815260040160405180910390fd5b600154421115611a6857604051630c88fd1360e41b815260040160405180910390fd5b6000806000611a7684610a60565b935050925092508015610999576000611a8e85611f3a565b90508015611b6857600054604051631c024c5f60e21b81526001600160a01b037f0000000000000000000000000000000000000000000000000000000000000000811692637009317c92611aef9230926101009004169086906004016124d3565b600060405180830381600087803b158015611b0957600080fd5b505af1158015611b1d573d6000803e3d6000fd5b50506000546040518481526101009091046001600160a01b031692507f1106cc671dfb7223886e8547434ee324eebf38142ef82a994a844836320688d9915060200160405180910390a25b60005b846020015151811015611d705760006001600160a01b031685602001518281518110611b9957611b99612491565b60200260200101516001600160a01b03160315611d6857600085604001518281518110611bc857611bc8612491565b60200260200101511115611d68577f00000000000000000000000000000000000000000000000000000000000000006001600160a01b031663da3e8ce43087602001518481518110611c1c57611c1c612491565b6020026020010151600060019054906101000a90046001600160a01b031689604001518681518110611c5057611c50612491565b60209081029190910101516040516001600160e01b031960e087901b1681526001600160a01b0394851660048201529284166024840152921660448201526064810191909152608401600060405180830381600087803b158015611cb357600080fd5b505af1158015611cc7573d6000803e3d6000fd5b50505050600060019054906101000a90046001600160a01b03166001600160a01b031685602001518281518110611d0057611d00612491565b60200260200101516001600160a01b03167f2c7402912a005a8b8fa7095a2810dec8789391b772fb8a5e09817a177c76d3e687604001518481518110611d4857611d48612491565b6020026020010151604051611d5f91815260200190565b60405180910390a35b600101611b6b565b5060028054611d8190600190612544565b81548110611d9157611d91612491565b906000526020600020906004020160028481548110611db257611db2612491565b60009182526020909120825460049092020180546001600160a01b0319166001600160a01b0390921691909117815560018083018054611df59284019190612077565b5060028281018054611e0a9284019190612077565b506003918201549101805460ff191660ff90921615159190911790556002805480611e3757611e37612658565b60008281526020812060046000199093019283020180546001600160a01b031916815590611e6860018301826120b7565b611e766002830160006120b7565b50600301805460ff191690559055604051637951b5cf60e01b81526001600160a01b0386811660048301527f00000000000000000000000000000000000000000000000000000000000000001690637951b5cf90602401600060405180830381600087803b158015611ee757600080fd5b505af1158015611efb573d6000803e3d6000fd5b50506040516001600160a01b03881692507f1a7209727e630887f10df0c1048028b1b5d634699b5b845f1d10e7156cb0e6bd9150600090a25050505050565b6000806000611f4884610a60565b9350505091508015611fcd5760005b826020015151811015611fcb5760006001600160a01b031683602001518281518110611f8557611f85612491565b60200260200101516001600160a01b031603611fc35782604001518181518110611fb157611fb1612491565b60200260200101519350505050919050565b600101611f57565b505b5060009392505050565b82805482825590600052602060002090810192821561202c579160200282015b8281111561202c57825182546001600160a01b0319166001600160a01b03909116178255602090920191600190910190611ff7565b506120389291506120d8565b5090565b82805482825590600052602060002090810192821561202c579160200282015b8281111561202c57825182559160200191906001019061205c565b82805482825590600052602060002090810192821561202c5760005260206000209182015b8281111561202c57825482559160010191906001019061209c565b50805460008255906000526020600020908101906120d591906120d8565b50565b5b8082111561203857600081556001016120d9565b600081518084526020840193506020830160005b8281101561211f578151865260209586019590910190600101612101565b5093949350505050565b6060808252845190820181905260009060208601906080840190835b8181101561216c5783516001600160a01b0316835260209384019390920191600101612145565b5050838103602085015261218081876120ed565b92505050826040830152949350505050565b6000602082840312156121a457600080fd5b5035919050565b80356001600160a01b03811681146121c257600080fd5b919050565b6000602082840312156121d957600080fd5b6121e2826121ab565b9392505050565b80516001600160a01b03168252602080820151608082850181905281519085018190526000929190910190829060a08601905b808310156122475783516001600160a01b03168252602093840193600193909301929091019061221c565b5060408501519250858103604087015261226181846120ed565b925050506060830151612278606086018215159052565b509392505050565b60808152600061229360808301876121e9565b60208301959095525060408101929092521515606090910152919050565b6000602082016020835280845180835260408501915060408160051b86010192506020860160005b8281101561230a57603f198786030184526122f58583516121e9565b945060209384019391909101906001016122d9565b50929695505050505050565b60008083601f84011261232857600080fd5b50813567ffffffffffffffff81111561234057600080fd5b6020830191508360208260051b850101111561235b57600080fd5b9250929050565b60008060008060006060868803121561237a57600080fd5b612383866121ab565b9450602086013567ffffffffffffffff81111561239f57600080fd5b6123ab88828901612316565b909550935050604086013567ffffffffffffffff8111156123cb57600080fd5b6123d788828901612316565b969995985093965092949392505050565b60008060008060006060868803121561240057600080fd5b85359450602086013567ffffffffffffffff81111561239f57600080fd5b6000806040838503121561243157600080fd5b61243a836121ab565b946020939093013593505050565b634e487b7160e01b600052601160045260246000fd5b808202811582820484141761247557612475612448565b92915050565b634e487b7160e01b600052604160045260246000fd5b634e487b7160e01b600052603260045260246000fd5b8082018082111561247557612475612448565b6000600182016124cc576124cc612448565b5060010190565b6001600160a01b039384168152919092166020820152604081019190915260600190565b805180151581146121c257600080fd5b6000806040838503121561251a57600080fd5b612523836124f7565b9150602083015160ff8116811461253957600080fd5b809150509250929050565b8181038181111561247557612475612448565b60006020828403121561256957600080fd5b6121e2826124f7565b6040808252810184905260008560608301825b878110156125b3576001600160a01b0361259e846121ab565b16825260209283019290910190600101612585565b5083810360208501528481526001600160fb1b038511156125d357600080fd5b8460051b915081866020830137016020019695505050505050565b60008235607e1983360301811261260457600080fd5b9190910192915050565b6000808335601e1984360301811261262557600080fd5b83018035915067ffffffffffffffff82111561264057600080fd5b6020019150600581901b360382131561235b57600080fd5b634e487b7160e01b600052603160045260246000fdfea264697066735822122088c10384c02a5fdc8ad225eebc8a820f992a32538a661cba00464fe699a3b24e64736f6c634300081c0033",
  "linkReferences": {},
  "deployedLinkReferences": {}
}