{
  "_format": "hh-sol-artifact-1",
  "contractName": "WillEscrow",
  "sourceName": "contracts/WillEscrow.sol",
  "abi": [
    {
      "inputs": [],
      "stateMutability": "nonpayable",
      "type": "constructor"
    },
    {
      "inputs": [],
      "name": "AlreadyExecuted",
      "type": "error"
    },
    {
      "inputs": [],
      "name": "InsufficientBalance",
      "type": "error"
    },
    {
      "inputs": [],
      "name": "InvalidTransfer",
      "type": "error"
    },
    {
      "inputs": [],
      "name": "NotDueYet",
      "type": "error"
    },
    {
      "inputs": [
        {
          "internalType": "address",
          "name": "owner",
          "type": "address"
        }
      ],
      "name": "OwnableInvalidOwner",
      "type": "error"
    },
    {
      "inputs": [
        {
          "internalType": "address",
          "name": "account",
          "type": "address"
        }
      ],
      "name": "OwnableUnauthorizedAccount",
      "type": "error"
    },
    {
      "inputs": [],
      "name": "UnauthorizedCaller",
      "type": "error"
    },
    {
      "inputs": [],
      "name": "WillNotRegistered",
      "type": "error"
    },
    {
      "anonymous": false,
      "inputs": [
        {
          "indexed": true,
          "internalType": "address",
          "name": "previousOwner",
          "type": "address"
        },
        {
          "indexed": true,
          "internalType": "address",
          "name": "newOwner",
          "type": "address"
        }
      ],
      "name": "OwnershipTransferred",
      "type": "event"
    },
    {
      "inputs": [
        {
          "internalType": "address",
          "name": "caller",
          "type": "address"
        }
      ],
      "name": "authorize",
      "outputs": [],
      "stateMutability": "nonpayable",
      "type": "function"
    },
    {
      "inputs": [
        {
          "internalType": "address",
          "name": "",
          "type": "address"
        }
      ],
      "name": "authorizedCallers",
      "outputs": [
        {
          "internalType": "bool",
          "name": "",
          "type": "bool"
        }
      ],
      "stateMutability": "view",
      "type": "function"
    },
    {
      "inputs": [],
      "name": "factory",
      "outputs": [
        {
          "internalType": "address",
          "name": "",
          "type": "address"
        }
      ],
      "stateMutability": "view",
      "type": "function"
    },
    {
      "inputs": [
        {
          "internalType": "address",
          "name": "",
          "type": "address"
        }
      ],
      "name": "nativeBalances",
      "outputs": [
        {
          "internalType": "uint256",
          "name": "",
          "type": "uint256"
        }
      ],
      "stateMutability": "view",
      "type": "function"
    },
    {
      "inputs": [],
      "name": "owner",
      "outputs": [
        {
          "internalType": "address",
          "name": "",
          "type": "address"
        }
      ],
      "stateMutability": "view",
      "type": "function"
    },
    {
      "inputs": [
        {
          "internalType": "address",
          "name": "will",
          "type": "address"
        },
        {
          "internalType": "address",
          "name": "token",
          "type": "address"
        },
        {
          "internalType": "uint256",
          "name": "amount",
          "type": "uint256"
        }
      ],
      "name": "registerDeposit",
      "outputs": [],
      "stateMutability": "nonpayable",
      "type": "function"
    },
    {
      "inputs": [
        {
          "internalType": "address",
          "name": "will",
          "type": "address"
        }
      ],
      "name": "registerWill",
      "outputs": [],
      "stateMutability": "nonpayable",
      "type": "function"
    },
    {
      "inputs": [
        {
          "internalType": "address",
          "name": "",
          "type": "address"
        }
      ],
      "name": "registeredWills",
      "outputs": [
        {
          "internalType": "bool",
          "name": "",
          "type": "bool"
        }
      ],
      "stateMutability": "view",
      "type": "function"
    },
    {
      "inputs": [],
      "name": "renounceOwnership",
      "outputs": [],
      "stateMutability": "nonpayable",
      "type": "function"
    },
    {
      "inputs": [
        {
          "internalType": "address",
          "name": "_factory",
          "type": "address"
        }
      ],
      "name": "setFactory",
      "outputs": [],
      "stateMutability": "nonpayable",
      "type": "function"
    },
    {
      "inputs": [
        {
          "internalType": "address",
          "name": "",
          "type": "address"
        },
        {
          "internalType": "address",
          "name": "",
          "type": "address"
        }
      ],
      "name": "tokenBalances",
      "outputs": [
        {
          "internalType": "uint256",
          "name": "amount",
          "type": "uint256"
        },
        {
          "internalType": "address",
          "name": "owner",
          "type": "address"
        }
      ],
      "stateMutability": "view",
      "type": "function"
    },
    {
      "inputs": [
        {
          "internalType": "address",
          "name": "will",
          "type": "address"
        },
        {
          "internalType": "address",
          "name": "token",
          "type": "address"
        },
        {
          "internalType": "address",
          "name": "to",
          "type": "address"
        },
        {
          "internalType": "uint256",
          "name": "amount",
          "type": "uint256"
        }
      ],
      "name": "transferERC20",
      "outputs": [],
      "stateMutability": "nonpayable",
      "type": "function"
    },
    {
      "inputs": [
        {
          "internalType": "address",
          "name": "will",
          "type": "address"
        },
        {
          "internalType": "address payable",
          "name": "to",
          "type": "address"
        },
        {
          "internalType": "uint256",
          "name": "amount",
          "type": "uint256"
        }
      ],
      "name": "transferETH",
      "outputs": [],
      "stateMutability": "nonpayable",
      "type": "function"
    },
    {
      "inputs": [
        {
          "internalType": "address",
          "name": "newOwner",
          "type": "address"
        }
      ],
      "name": "transferOwnership",
      "outputs": [],
      "stateMutability": "nonpayable",
      "type": "function"
    },
    {
      "stateMutability": "payable",
      "type": "receive"
    }
  ],
  "bytecode": "0x6080604052348015600f57600080fd5b503380603557604051631e4fbdf760e01b81526000600482015260240160405180910390fd5b603c816041565b506091565b600080546001600160a01b038381166001600160a01b0319831681178455604051919092169283917f8be0079c531659141344cd1fd0a4f28419497f9722a3daafe3b4186f6b6457e09190a35050565b6110b5806100a06000396000f3fe6080604052600436106100e15760003560e01c8063715018a61161007f578063b6a5d7de11610059578063b6a5d7de146102cb578063c45a0155146102eb578063da3e8ce41461030b578063f2fde38b1461032b57600080fd5b8063715018a6146102495780638da5cb5b1461025e57806395ad89e61461029057600080fd5b806352a664d9116100bb57806352a664d9146101b9578063536fff6c146101d95780635bb47808146102095780637009317c1461022957600080fd5b806317186e40146100ed5780631946632a146101325780634dbf6c5a1461015457600080fd5b366100e857005b600080fd5b3480156100f957600080fd5b5061011d610108366004610ca2565b60056020526000908152604090205460ff1681565b60405190151581526020015b60405180910390f35b34801561013e57600080fd5b5061015261014d366004610ca2565b61034b565b005b34801561016057600080fd5b5061019c61016f366004610cc6565b6002602090815260009283526040808420909152908252902080546001909101546001600160a01b031682565b604080519283526001600160a01b03909116602083015201610129565b3480156101c557600080fd5b506101526101d4366004610cff565b61039f565b3480156101e557600080fd5b5061011d6101f4366004610ca2565b60046020526000908152604090205460ff1681565b34801561021557600080fd5b50610152610224366004610ca2565b6104b7565b34801561023557600080fd5b50610152610244366004610cff565b6104fa565b34801561025557600080fd5b50610152610752565b34801561026a57600080fd5b506000546001600160a01b03165b6040516001600160a01b039091168152602001610129565b34801561029c57600080fd5b506102bd6102ab366004610ca2565b60036020526000908152604090205481565b604051908152602001610129565b3480156102d757600080fd5b506101526102e6366004610ca2565b610766565b3480156102f757600080fd5b50600154610278906001600160a01b031681565b34801561031757600080fd5b50610152610326366004610d40565b6107b5565b34801561033757600080fd5b50610152610346366004610ca2565b610a09565b3360009081526004602052604090205460ff1661037b57604051635c427cd960e01b815260040160405180910390fd5b6001600160a01b03166000908152600560205260409020805460ff19166001179055565b3360009081526004602052604090205460ff166103cf57604051635c427cd960e01b815260040160405180910390fd5b6001600160a01b038216610461576001600160a01b03831660009081526003602052604081208054839290610405908490610da7565b90915550506040805180820182529182523360208084019182526001600160a01b03958616600090815260028252838120818052909152919091209151825551600190910180546001600160a01b031916919093161790915550565b6040805180820182529182523360208084019182526001600160a01b0395861660009081526002825283812095871681529490529220905181559051600190910180546001600160a01b03191691909216179055565b6104bf610a47565b600180546001600160a01b039092166001600160a01b031990921682178155600091825260046020526040909120805460ff19169091179055565b3360009081526004602052604090205460ff1661052a57604051635c427cd960e01b815260040160405180910390fd5b3360009081526005602052604090205460ff1661055a57604051635aa22c7960e01b815260040160405180910390fd5b6001600160a01b03831660009081526003602052604090205481111561059357604051631e9acf1760e31b815260040160405180910390fd5b6001600160a01b0383811660009081526002602090815260408083208380529091528120600101549091163314906105cd85858584610a74565b9050801561065757846001600160a01b031663786716fe6040518163ffffffff1660e01b8152600401602060405180830381865afa158015610613573d6000803e3d6000fd5b505050506040513d601f19601f820116820180604052508101906106379190610dc0565b42101561065757604051630fabf49160e31b815260040160405180910390fd5b81158015610663575080155b1561068157604051632f35253160e01b815260040160405180910390fd5b6001600160a01b038516600090815260036020526040812080548592906106a9908490610dd9565b90915550506040516000906001600160a01b0386169085908381818185875af1925050503d80600081146106f9576040519150601f19603f3d011682016040523d82523d6000602084013e6106fe565b606091505b505090508061074a5760405162461bcd60e51b8152602060048201526013602482015272115512081d1c985b9cd9995c8819985a5b1959606a1b60448201526064015b60405180910390fd5b505050505050565b61075a610a47565b6107646000610c3d565b565b6001546001600160a01b0316331461079157604051635c427cd960e01b815260040160405180910390fd5b6001600160a01b03166000908152600460205260409020805460ff19166001179055565b3360009081526004602052604090205460ff166107e557604051635c427cd960e01b815260040160405180910390fd5b3360009081526005602052604090205460ff1661081557604051635aa22c7960e01b815260040160405180910390fd5b6001600160a01b038085166000908152600260209081526040808320938716835292905220805482111561085c57604051631e9acf1760e31b815260040160405180910390fd5b60018101546001600160a01b03163314600061087a87868689610a74565b9050801561090457866001600160a01b031663786716fe6040518163ffffffff1660e01b8152600401602060405180830381865afa1580156108c0573d6000803e3d6000fd5b505050506040513d601f19601f820116820180604052508101906108e49190610dc0565b42101561090457604051630fabf49160e31b815260040160405180910390fd5b81158015610910575080155b1561092e57604051632f35253160e01b815260040160405180910390fd5b838360000160008282546109429190610dd9565b909155505060405163a9059cbb60e01b81526001600160a01b038681166004830152602482018690526000919088169063a9059cbb906044016020604051808303816000875af115801561099a573d6000803e3d6000fd5b505050506040513d601f19601f820116820180604052508101906109be9190610e01565b9050806109ff5760405162461bcd60e51b815260206004820152600f60248201526e151c985b9cd9995c8819985a5b1959608a1b6044820152606401610741565b5050505050505050565b610a11610a47565b6001600160a01b038116610a3b57604051631e4fbdf760e01b815260006004820152602401610741565b610a4481610c3d565b50565b6000546001600160a01b031633146107645760405163118cdaa760e01b8152336004820152602401610741565b604051634da2f2f960e01b81526001600160a01b038481166004830152600091869183918291841690634da2f2f990602401600060405180830381865afa158015610ac3573d6000803e3d6000fd5b505050506040513d6000823e601f3d908101601f19168201604052610aeb9190810190610f1d565b9350505091508015610c2d57816060015115610b1a57604051630dc1019760e01b815260040160405180910390fd5b6001600160a01b038516610ba75760405160016205477f60e41b031981526001600160a01b0388811660048301526000919085169063ffab881090602401602060405180830381865afa158015610b75573d6000803e3d6000fd5b505050506040513d601f19601f82011682018060405250810190610b999190610dc0565b87149450610c359350505050565b60005b826020015151811015610c2b57856001600160a01b031683602001518281518110610bd757610bd7611069565b60200260200101516001600160a01b0316148015610c1157508683604001518281518110610c0757610c07611069565b6020026020010151145b15610c23576001945050505050610c35565b600101610baa565b505b600093505050505b949350505050565b600080546001600160a01b038381166001600160a01b0319831681178455604051919092169283917f8be0079c531659141344cd1fd0a4f28419497f9722a3daafe3b4186f6b6457e09190a35050565b6001600160a01b0381168114610a4457600080fd5b600060208284031215610cb457600080fd5b8135610cbf81610c8d565b9392505050565b60008060408385031215610cd957600080fd5b8235610ce481610c8d565b91506020830135610cf481610c8d565b809150509250929050565b600080600060608486031215610d1457600080fd5b8335610d1f81610c8d565b92506020840135610d2f81610c8d565b929592945050506040919091013590565b60008060008060808587031215610d5657600080fd5b8435610d6181610c8d565b93506020850135610d7181610c8d565b92506040850135610d8181610c8d565b9396929550929360600135925050565b634e487b7160e01b600052601160045260246000fd5b80820180821115610dba57610dba610d91565b92915050565b600060208284031215610dd257600080fd5b5051919050565b81810381811115610dba57610dba610d91565b80518015158114610dfc57600080fd5b919050565b600060208284031215610e1357600080fd5b610cbf82610dec565b634e487b7160e01b600052604160045260246000fd5b6040516080810167ffffffffffffffff81118282101715610e5557610e55610e1c565b60405290565b604051601f8201601f1916810167ffffffffffffffff81118282101715610e8457610e84610e1c565b604052919050565b600067ffffffffffffffff821115610ea657610ea6610e1c565b5060051b60200190565b600082601f830112610ec157600080fd5b8151610ed4610ecf82610e8c565b610e5b565b8082825260208201915060208360051b860101925085831115610ef657600080fd5b602085015b83811015610f13578051835260209283019201610efb565b5095945050505050565b60008060008060808587031215610f3357600080fd5b845167ffffffffffffffff811115610f4a57600080fd5b850160808188031215610f5c57600080fd5b610f64610e32565b8151610f6f81610c8d565b8152602082015167ffffffffffffffff811115610f8b57600080fd5b8201601f81018913610f9c57600080fd5b8051610faa610ecf82610e8c565b8082825260208201915060208360051b85010192508b831115610fcc57600080fd5b6020840193505b82841015610ff7578351610fe681610c8d565b825260209384019390910190610fd3565b6020850152505050604082015167ffffffffffffffff81111561101957600080fd5b61102589828501610eb0565b60408301525061103760608301610dec565b60608281019190915260208801516040890151929750955090935061105e91508601610dec565b905092959194509250565b634e487b7160e01b600052603260045260246000fdfea2646970667358221220f4cea60262ad9df792f6968c5d9f625a7c367cd8865ca105bc23d9f7cae66f3e64736f6c634300081c0033",
  "linkReferences": {},
  "deployedLinkReferences": {}
}