{
  "_format": "hh-sol-artifact-1",
  "contractName": "WillFactory",
  "sourceName": "contracts/WillFactory.sol",
  "abi": [
    {
      "inputs": [
        {
          "internalType": "address",
          "name": "_registry",
          "type": "address"
        },
        {
          "internalType": "address",
          "name": "_escrow",
          "type": "address"
        }
      ],
      "stateMutability": "nonpayable",
      "type": "constructor"
    },
    {
      "inputs": [],
      "name": "FailedDeployment",
      "type": "error"
    },
    {
      "inputs": [
        {
          "internalType": "uint256",
          "name": "balance",
          "type": "uint256"
        },
        {
          "internalType": "uint256",
          "name": "needed",
          "type": "uint256"
        }
      ],
      "name": "InsufficientBalance",
      "type": "error"
    },
    {
      "inputs": [],
      "name": "InvalidDueDate",
      "type": "error"
    },
    {
      "inputs": [
        {
          "internalType": "address",
          "name": "owner",
          "type": "address"
        }
      ],
      "name": "OwnableInvalidOwner",
      "type": "error"
    },
    {
      "inputs": [
        {
          "internalType": "address",
          "name": "account",
          "type": "address"
        }
      ],
      "name": "OwnableUnauthorizedAccount",
      "type": "error"
    },
    {
      "inputs": [],
      "name": "TokenAlreadyWhitelisted",
      "type": "error"
    },
    {
      "inputs": [],
      "name": "TokenNotWhitelisted",
      "type": "error"
    },
    {
      "inputs": [],
      "name": "Unauthorized",
      "type": "error"
    },
    {
      "anonymous": false,
      "inputs": [
        {
          "indexed": true,
          "internalType": "address",
          "name": "previousOwner",
          "type": "address"
        },
        {
          "indexed": true,
          "internalType": "address",
          "name": "newOwner",
          "type": "address"
        }
      ],
      "name": "OwnershipTransferred",
      "type": "event"
    },
    {
      "anonymous": false,
      "inputs": [
        {
          "indexed": false,
          "internalType": "address",
          "name": "virtualLiquidityToken",
          "type": "address"
        }
      ],
      "name": "TokenAddedToWhiteList",
      "type": "event"
    },
    {
      "anonymous": false,
      "inputs": [
        {
          "indexed": false,
          "internalType": "address",
          "name": "virtualLiquidityToken",
          "type": "address"
        }
      ],
      "name": "TokenRemovedFromWhiteList",
      "type": "event"
    },
    {
      "anonymous": false,
      "inputs": [
        {
          "indexed": true,
          "internalType": "address",
          "name": "will",
          "type": "address"
        },
        {
          "indexed": true,
          "internalType": "address",
          "name": "creator",
          "type": "address"
        },
        {
          "indexed": false,
          "internalType": "uint256",
          "name": "dueDate",
          "type": "uint256"
        }
      ],
      "name": "WillInitialized",
      "type": "event"
    },
    {
      "inputs": [
        {
          "internalType": "address",
          "name": "token",
          "type": "address"
        }
      ],
      "name": "addTokenToWhiteList",
      "outputs": [],
      "stateMutability": "nonpayable",
      "type": "function"
    },
    {
      "inputs": [
        {
          "internalType": "uint256",
          "name": "dueDate",
          "type": "uint256"
        }
      ],
      "name": "createLastWill",
      "outputs": [
        {
          "internalType": "address",
          "name": "lastWill",
          "type": "address"
        }
      ],
      "stateMutability": "nonpayable",
      "type": "function"
    },
    {
      "inputs": [
        {
          "internalType": "address",
          "name": "",
          "type": "address"
        }
      ],
      "name": "creatorToWill",
      "outputs": [
        {
          "internalType": "address",
          "name": "",
          "type": "address"
        }
      ],
      "stateMutability": "view",
      "type": "function"
    },
    {
      "inputs": [],
      "name": "escrow",
      "outputs": [
        {
          "internalType": "address payable",
          "name": "",
          "type": "address"
        }
      ],
      "stateMutability": "view",
      "type": "function"
    },
    {
      "inputs": [],
      "name": "getCreatedWill",
      "outputs": [
        {
          "internalType": "address",
          "name": "will",
          "type": "address"
        }
      ],
      "stateMutability": "view",
      "type": "function"
    },
    {
      "inputs": [],
      "name": "getInheritedWills",
      "outputs": [
        {
          "internalType": "address[]",
          "name": "",
          "type": "address[]"
        }
      ],
      "stateMutability": "view",
      "type": "function"
    },
    {
      "inputs": [],
      "name": "getWhiteListedTokens",
      "outputs": [
        {
          "internalType": "address[]",
          "name": "",
          "type": "address[]"
        },
        {
          "internalType": "uint8[]",
          "name": "",
          "type": "uint8[]"
        }
      ],
      "stateMutability": "view",
      "type": "function"
    },
    {
      "inputs": [
        {
          "internalType": "address",
          "name": "",
          "type": "address"
        },
        {
          "internalType": "uint256",
          "name": "",
          "type": "uint256"
        }
      ],
      "name": "heirToWills",
      "outputs": [
        {
          "internalType": "address",
          "name": "",
          "type": "address"
        }
      ],
      "stateMutability": "view",
      "type": "function"
    },
    {
      "inputs": [],
      "name": "lastWillImplementation",
      "outputs": [
        {
          "internalType": "address",
          "name": "",
          "type": "address"
        }
      ],
      "stateMutability": "view",
      "type": "function"
    },
    {
      "inputs": [],
      "name": "owner",
      "outputs": [
        {
          "internalType": "address",
          "name": "",
          "type": "address"
        }
      ],
      "stateMutability": "view",
      "type": "function"
    },
    {
      "inputs": [],
      "name": "registry",
      "outputs": [
        {
          "internalType": "address",
          "name": "",
          "type": "address"
        }
      ],
      "stateMutability": "view",
      "type": "function"
    },
    {
      "inputs": [
        {
          "internalType": "address",
          "name": "token",
          "type": "address"
        }
      ],
      "name": "removeTokenFromWhiteList",
      "outputs": [],
      "stateMutability": "nonpayable",
      "type": "function"
    },
    {
      "inputs": [],
      "name": "renounceOwnership",
      "outputs": [],
      "stateMutability": "nonpayable",
      "type": "function"
    },
    {
      "inputs": [
        {
          "internalType": "address",
          "name": "",
          "type": "address"
        }
      ],
      "name": "tokenWhiteList",
      "outputs": [
        {
          "internalType": "bool",
          "name": "allowed",
          "type": "bool"
        },
        {
          "internalType": "uint8",
          "name": "decimals",
          "type": "uint8"
        }
      ],
      "stateMutability": "view",
      "type": "function"
    },
    {
      "inputs": [
        {
          "internalType": "address",
          "name": "newOwner",
          "type": "address"
        }
      ],
      "name": "transferOwnership",
      "outputs": [],
      "stateMutability": "nonpayable",
      "type": "function"
    },
    {
      "inputs": [
        {
          "internalType": "uint256",
          "name": "",
          "type": "uint256"
        }
      ],
      "name": "whiteListedTokens",
      "outputs": [
        {
          "internalType": "address",
          "name": "",
          "type": "address"
        }
      ],
      "stateMutability": "view",
      "type": "function"
    }
  ],
  "bytecode": "0x60c060405234801561001057600080fd5b506040516133ee3803806133ee83398101604081905261002f91610153565b338061005557604051631e4fbdf760e01b81526000600482015260240160405180910390fd5b61005e816100da565b5030818360405161006e9061012a565b6001600160a01b03938416815291831660208301529091166040820152606001604051809103906000f0801580156100aa573d6000803e3d6000fd5b506001600160a01b03908116608052600180546001600160a01b031916938216939093179092551660a052610186565b600080546001600160a01b038381166001600160a01b0319831681178455604051919092169283917f8be0079c531659141344cd1fd0a4f28419497f9722a3daafe3b4186f6b6457e09190a35050565b61243e80610fb083390190565b80516001600160a01b038116811461014e57600080fd5b919050565b6000806040838503121561016657600080fd5b61016f83610137565b915061017d60208401610137565b90509250929050565b60805160a051610df06101c06000396000818161027b0152818161085f01526108da01526000818161014101526108190152610df06000f3fe608060405234801561001057600080fd5b50600436106101005760003560e01c8063811e729411610097578063c4d24acd11610066578063c4d24acd14610263578063e2fdcc1714610276578063f2dc892b1461029d578063f2fde38b146102b057600080fd5b8063811e7294146101fe5780638da5cb5b1461022757806399da578814610238578063c39681111461024e57600080fd5b806367a332ae116100d357806367a332ae146101bd5780636aee0e63146101d0578063715018a6146101e35780637b103999146101eb57600080fd5b8063124830f21461010557806335fd539b1461013c57806342a7a66914610163578063522c1d5814610178575b600080fd5b336000908152600260205260409020546001600160a01b03165b6040516001600160a01b0390911681526020015b60405180910390f35b61011f7f000000000000000000000000000000000000000000000000000000000000000081565b610176610171366004610c1a565b6102c3565b005b6101a4610186366004610c1a565b60046020526000908152604090205460ff8082169161010090041682565b60408051921515835260ff909116602083015201610133565b6101766101cb366004610c1a565b61047b565b61011f6101de366004610c3c565b6105f0565b61017661061a565b60015461011f906001600160a01b031681565b61011f61020c366004610c1a565b6002602052600090815260409020546001600160a01b031681565b6000546001600160a01b031661011f565b61024061062e565b604051610133929190610c9a565b610256610787565b6040516101339190610cf7565b61011f610271366004610c3c565b6107f2565b61011f7f000000000000000000000000000000000000000000000000000000000000000081565b61011f6102ab366004610d0a565b610a60565b6101766102be366004610c1a565b610a98565b6102cb610ad8565b6001600160a01b03811660009081526004602052604090205460ff161561047857604080518082018252600080825260208083018281526001600160a01b0386168352600490915292812091518254935161ffff1990941690151561ff0019161761010060ff909416939093029290921790555b60055481101561043a57816001600160a01b03166005828154811061036657610366610d34565b6000918252602090912001546001600160a01b031603610432576005805461039090600190610d4a565b815481106103a0576103a0610d34565b600091825260209091200154600580546001600160a01b0390921691839081106103cc576103cc610d34565b9060005260206000200160006101000a8154816001600160a01b0302191690836001600160a01b03160217905550600580548061040b5761040b610d6b565b600082815260209020810160001990810180546001600160a01b031916905501905561043a565b60010161033f565b506040516001600160a01b03821681527fdb65ca12c74e820c195286369a2a2aa73d182657f18e9bd39aac77baf88c3af69060200160405180910390a15b50565b610483610ad8565b6001600160a01b03811660009081526004602052604090205460ff16156104bd57604051634424109160e01b815260040160405180910390fd5b6000816001600160a01b031663313ce5676040518163ffffffff1660e01b8152600401602060405180830381865afa1580156104fd573d6000803e3d6000fd5b505050506040513d601f19601f820116820180604052508101906105219190610d81565b604080518082018252600180825260ff84811660208085019182526001600160a01b03891660008181526004835287812096518754945161ffff1990951690151561ff0019161761010094909516939093029390931790945560058054938401815590527f036b6384b5eca791c62761152d0c79bb0604c104a5fb6f4eb0703f3154bb3db090910180546001600160a01b0319168217905591519182529192507f23352a89f03ccc858cb204b2e383f548e48fa238ad69cf3209e6428771ae8811910160405180910390a15050565b6005818154811061060057600080fd5b6000918252602090912001546001600160a01b0316905081565b610622610ad8565b61062c6000610b05565b565b600554606090819060008167ffffffffffffffff81111561065157610651610da4565b60405190808252806020026020018201604052801561067a578160200160208202803683370190505b50905060008267ffffffffffffffff81111561069857610698610da4565b6040519080825280602002602001820160405280156106c1578160200160208202803683370190505b50905060005b8381101561077c576000600582815481106106e4576106e4610d34565b9060005260206000200160009054906101000a90046001600160a01b031690508084838151811061071757610717610d34565b6001600160a01b03928316602091820292909201810191909152908216600090815260049091526040902054835161010090910460ff169084908490811061076157610761610d34565b60ff90921660209283029190910190910152506001016106c7565b509094909350915050565b336000908152600360209081526040918290208054835181840281018401909452808452606093928301828280156107e857602002820191906000526020600020905b81546001600160a01b031681526001909101906020018083116107ca575b5050505050905090565b60004282116108145760405163a1ff8dcd60e01b815260040160405180910390fd5b61083d7f0000000000000000000000000000000000000000000000000000000000000000610b55565b604051635b52ebef60e11b81526001600160a01b0380831660048301529192507f00000000000000000000000000000000000000000000000000000000000000009091169063b6a5d7de90602401600060405180830381600087803b1580156108a557600080fd5b505af11580156108b9573d6000803e3d6000fd5b5050604051630ca3319560e11b81526001600160a01b0384811660048301527f0000000000000000000000000000000000000000000000000000000000000000169250631946632a9150602401600060405180830381600087803b15801561092057600080fd5b505af1158015610934573d6000803e3d6000fd5b5050336000908152600260205260409081902080546001600160a01b0319166001600160a01b038681169182179092556001549251630ca3319560e11b8152600481019190915291169250631946632a9150602401600060405180830381600087803b1580156109a357600080fd5b505af11580156109b7573d6000803e3d6000fd5b505060405163cd6dc68760e01b8152336004820152602481018590526001600160a01b038416925063cd6dc6879150604401600060405180830381600087803b158015610a0357600080fd5b505af1158015610a17573d6000803e3d6000fd5b50506040518481523392506001600160a01b03841691507fdfa6f1f9b85face8f90d2ec39035322d7d66e2962d491482e3079120f77985f69060200160405180910390a3919050565b60036020528160005260406000208181548110610a7c57600080fd5b6000918252602090912001546001600160a01b03169150829050565b610aa0610ad8565b6001600160a01b038116610acf57604051631e4fbdf760e01b8152600060048201526024015b60405180910390fd5b61047881610b05565b6000546001600160a01b0316331461062c5760405163118cdaa760e01b8152336004820152602401610ac6565b600080546001600160a01b038381166001600160a01b0319831681178455604051919092169283917f8be0079c531659141344cd1fd0a4f28419497f9722a3daafe3b4186f6b6457e09190a35050565b6000610b62826000610b68565b92915050565b600081471015610b945760405163cf47918160e01b815247600482015260248101839052604401610ac6565b763d602d80600a3d3981f3363d3d373d3d3d363d730000008360601b60e81c176000526e5af43d82803e903d91602b57fd5bf38360781b176020526037600983f090506001600160a01b038116610b625760405163b06ebf3d60e01b815260040160405180910390fd5b80356001600160a01b0381168114610c1557600080fd5b919050565b600060208284031215610c2c57600080fd5b610c3582610bfe565b9392505050565b600060208284031215610c4e57600080fd5b5035919050565b600081518084526020840193506020830160005b82811015610c905781516001600160a01b0316865260209586019590910190600101610c69565b5093949350505050565b604081526000610cad6040830185610c55565b828103602084015280845180835260208301915060208601925060005b81811015610ceb57835160ff16835260209384019390920191600101610cca565b50909695505050505050565b602081526000610c356020830184610c55565b60008060408385031215610d1d57600080fd5b610d2683610bfe565b946020939093013593505050565b634e487b7160e01b600052603260045260246000fd5b81810381811115610b6257634e487b7160e01b600052601160045260246000fd5b634e487b7160e01b600052603160045260246000fd5b600060208284031215610d9357600080fd5b815160ff81168114610c3557600080fd5b634e487b7160e01b600052604160045260246000fdfea264697066735822122038ed840daece762c2dd162df191d389598972c11e5696f1976fbf5a3c9ce6c9b64736f6c634300081c003360e060405234801561001057600080fd5b5060405161243e38038061243e83398101604081905261002f91610067565b6001600160a01b03928316608052821660a0521660c0526100aa565b80516001600160a01b038116811461006257600080fd5b919050565b60008060006060848603121561007c57600080fd5b6100858461004b565b92506100936020850161004b565b91506100a16040850161004b565b90509250925092565b60805160a05160c05161231861012660003960008181610336015281816108640152818161090b01528181610f87015281816110560152818161130a015281816113ec0152818161187701526119670152600061022e0152600081816102e201528181610da401528181610e5e015261171b01526123186000f3fe6080604052600436106100f35760003560e01c80638c8682b01161008a578063cd6dc68711610059578063cd6dc68714610304578063e2fdcc1714610324578063ebb9d2e314610358578063ffab88101461037857600080fd5b80638c8682b0146102685780638da5cb5b1461027b578063c063d923146102a0578063c45a0155146102d057600080fd5b80634da2f2f9116100c65780634da2f2f9146101a65780634eae51f4146101d6578063786716fe146101f85780637b1039991461021c57600080fd5b806304710656146100f85780631c0795c314610125578063239e02481461016457806324f5ba4d14610186575b600080fd5b34801561010457600080fd5b5061010d610398565b60405161011c93929190611e3d565b60405180910390f35b34801561013157600080fd5b50610145610140366004611ea6565b610707565b604080516001600160a01b03909316835290151560208301520161011c565b34801561017057600080fd5b5061018461017f366004611edb565b610742565b005b34801561019257600080fd5b506101846101a1366004611ea6565b610994565b3480156101b257600080fd5b506101c66101c1366004611edb565b610a1f565b60405161011c9493929190611f94565b3480156101e257600080fd5b506101eb610c16565b60405161011c9190611fc5565b34801561020457600080fd5b5061020e60015481565b60405190815260200161011c565b34801561022857600080fd5b506102507f000000000000000000000000000000000000000000000000000000000000000081565b6040516001600160a01b03909116815260200161011c565b610184610276366004612076565b610d7e565b34801561028757600080fd5b506000546102509061010090046001600160a01b031681565b3480156102ac57600080fd5b506102c06102bb366004611edb565b6116ac565b604051901515815260200161011c565b3480156102dc57600080fd5b506102507f000000000000000000000000000000000000000000000000000000000000000081565b34801561031057600080fd5b5061018461031f3660046120fc565b611710565b34801561033057600080fd5b506102507f000000000000000000000000000000000000000000000000000000000000000081565b34801561036457600080fd5b50610184610373366004611edb565b6117dc565b34801561038457600080fd5b5061020e610393366004611edb565b611c4e565b60008054606091829161010090046001600160a01b031633146103ce576040516330cd747160e01b815260040160405180910390fd5b600254600090819081906103e390600a61213c565b67ffffffffffffffff8111156103fb576103fb612159565b604051908082528060200260200182016040528015610424578160200160208202803683370190505b5060025490915060009061043990600a61213c565b67ffffffffffffffff81111561045157610451612159565b60405190808252806020026020018201604052801561047a578160200160208202803683370190505b50905060005b6002548110156106f95760006002828154811061049f5761049f61216f565b600091825260209182902060408051608081018252600490930290910180546001600160a01b0316835260018101805483518187028101870190945280845293949193858301939283018282801561052057602002820191906000526020600020905b81546001600160a01b03168152600190910190602001808311610502575b505050505081526020016002820180548060200260200160405190810160405280929190818152602001828054801561057857602002820191906000526020600020905b815481526020019060010190808311610564575b50505091835250506003919091015460ff16151560209091015280519091506000906105a390611c4e565b90506105af8187612185565b955060005b8260200151518110156106ee576000836020015182815181106105d9576105d961216f565b602002602001015190506000846040015183815181106105fb576105fb61216f565b602002602001015190506000805b8b81101561067e57836001600160a01b03168a828151811061062d5761062d61216f565b60200260200101516001600160a01b03160361067657828982815181106106565761065661216f565b6020026020010181815161066a9190612185565b9052506001915061067e565b600101610609565b50806106e35782898c815181106106975761069761216f565b60200260200101906001600160a01b031690816001600160a01b03168152505081888c815181106106ca576106ca61216f565b60209081029190910101528a6106df81612198565b9b50505b5050506001016105b4565b505050600101610480565b509095509350915050909192565b6002818154811061071757600080fd5b6000918252602090912060049091020180546003909101546001600160a01b03909116915060ff1682565b60008061074e83610a1f565b935050925050801561097b5760006002838154811061076f5761076f61216f565b60009182526020909120600490910201600381015490915060ff16156107a857604051630dc1019760e01b815260040160405180910390fd5b6001544210156107cb57604051630fabf49160e31b815260040160405180910390fd5b60038101805460ff1916600117905560005b60018201548110156109745760008260010182815481106108005761080061216f565b60009182526020822001546002850180546001600160a01b039092169350908490811061082f5761082f61216f565b60009182526020909120015490506001600160a01b0382166108d5578354604051631c024c5f60e21b81526001600160a01b037f0000000000000000000000000000000000000000000000000000000000000000811692637009317c9261089e923092169086906004016121b1565b600060405180830381600087803b1580156108b857600080fd5b505af11580156108cc573d6000803e3d6000fd5b5050505061096a565b835460405163368fa33960e21b81523060048201526001600160a01b0384811660248301529182166044820152606481018390527f00000000000000000000000000000000000000000000000000000000000000009091169063da3e8ce490608401600060405180830381600087803b15801561095157600080fd5b505af1158015610965573d6000803e3d6000fd5b505050505b50506001016107dd565b5050505050565b604051635d87380560e11b815260040160405180910390fd5b60005461010090046001600160a01b031633146109c4576040516330cd747160e01b815260040160405180910390fd5b4281116109e45760405163a1ff8dcd60e01b815260040160405180910390fd5b60018190556040518181527f55d7e6f1a179e3ea50ffc19aaf954604d6fe7263c7afd9d254f0f52ec8c6396a9060200160405180910390a150565b610a55604051806080016040528060006001600160a01b0316815260200160608152602001606081526020016000151581525090565b60008080805b600254811015610bc857856001600160a01b031660028281548110610a8257610a8261216f565b60009182526020909120600490910201546001600160a01b031603610bc05760028181548110610ab457610ab461216f565b60009182526020918290206001805460408051608081018252600490950290930180546001600160a01b0316855282810180548551818902810189019096528086529196889693958893858301939192830182828015610b3d57602002820191906000526020600020905b81546001600160a01b03168152600190910190602001808311610b1f575b5050505050815260200160028201805480602002602001604051908101604052809291908181526020018280548015610b9557602002820191906000526020600020905b815481526020019060010190808311610b81575b50505091835250506003919091015460ff161515602090910152985091965094509250610c0f915050565b600101610a5b565b50610bff604051806080016040528060006001600160a01b0316815260200160608152602001606081526020016000151581525090565b6001549094506000935091508290505b9193509193565b60005460609061010090046001600160a01b03163314610c49576040516330cd747160e01b815260040160405180910390fd5b6002805480602002602001604051908101604052809291908181526020016000905b82821015610d75576000848152602090819020604080516080810182526004860290920180546001600160a01b03168352600181018054835181870281018701909452808452939491938583019392830182828015610cf357602002820191906000526020600020905b81546001600160a01b03168152600190910190602001808311610cd5575b5050505050815260200160028201805480602002602001604051908101604052809291908181526020018280548015610d4b57602002820191906000526020600020905b815481526020019060010190808311610d37575b50505091835250506003919091015460ff1615156020918201529082526001929092019101610c6b565b50505050905090565b60005461010090046001600160a01b03163314801590610dc75750336001600160a01b037f00000000000000000000000000000000000000000000000000000000000000001614155b15610de55760405163fa49961f60e01b815260040160405180910390fd5b600154421115610e0857604051630c88fd1360e41b815260040160405180910390fd5b610e11856116ac565b15610e2f5760405163a7ed968360e01b815260040160405180910390fd5b828114610e4f57604051635fc168dd60e01b815260040160405180910390fd5b60005b83811015610f7c5760007f00000000000000000000000000000000000000000000000000000000000000006001600160a01b031663522c1d58878785818110610e9d57610e9d61216f565b9050602002016020810190610eb29190611edb565b6040516001600160e01b031960e084901b1681526001600160a01b0390911660048201526024016040805180830381865afa158015610ef5573d6000803e3d6000fd5b505050506040513d601f19601f82011682018060405250810190610f1991906121e5565b50905080610f3a576040516307c241ad60e51b815260040160405180910390fd5b838383818110610f4c57610f4c61216f565b90506020020135600003610f7357604051635e85ae7360e01b815260040160405180910390fd5b50600101610e52565b5034156110f95760007f00000000000000000000000000000000000000000000000000000000000000006001600160a01b03163460405160006040518083038185875af1925050503d8060008114610ff0576040519150601f19603f3d011682016040523d82523d6000602084013e610ff5565b606091505b505090508061103f5760405162461bcd60e51b815260206004820152601160248201527011551208195cd8dc9bddc819985a5b1959607a1b60448201526064015b60405180910390fd5b6040516352a664d960e01b81526001600160a01b037f000000000000000000000000000000000000000000000000000000000000000016906352a664d99061109090309060009034906004016121b1565b600060405180830381600087803b1580156110aa57600080fd5b505af11580156110be573d6000803e3d6000fd5b50506040513481523392507feae5b80234999a4b42b46917a5dab593f3c42f9d37fe8f2039418b9d38714d8e915060200160405180910390a2505b6000805b8481101561116f5760008686838181106111195761111961216f565b905060200201602081019061112e9190611edb565b6001600160a01b0316036111675783838281811061114e5761114e61216f565b90506020020135826111609190612185565b915061116f565b6001016110fd565b5034811115611191576040516342f7487960e11b815260040160405180910390fd5b600061119d8234612222565b9050801561126857604051600090339083908381818185875af1925050503d80600081146111e7576040519150601f19603f3d011682016040523d82523d6000602084013e6111ec565b606091505b50509050806112315760405162461bcd60e51b8152602060048201526011602482015270115512081c995d1d5c9b8819985a5b1959607a1b6044820152606401611036565b60405182815233907f6f27e80f202b24c64ffdcbf7a0835230ff4bc1c0d3ba24c78d642c9ed47e14c19060200160405180910390a2505b60005b8581101561153f5760008585838181106112875761128761216f565b905060200201351180156112cb575060008787838181106112aa576112aa61216f565b90506020020160208101906112bf9190611edb565b6001600160a01b031614155b156115375760008787838181106112e4576112e461216f565b90506020020160208101906112f99190611edb565b6001600160a01b03166323b872dd337f000000000000000000000000000000000000000000000000000000000000000089898781811061133b5761133b61216f565b905060200201356040518463ffffffff1660e01b8152600401611360939291906121b1565b6020604051808303816000875af115801561137f573d6000803e3d6000fd5b505050506040513d601f19601f820116820180604052508101906113a39190612235565b9050806113ea5760405162461bcd60e51b8152602060048201526015602482015274151bdad95b881d1c985b9cd9995c8819985a5b1959605a1b6044820152606401611036565b7f00000000000000000000000000000000000000000000000000000000000000006001600160a01b03166352a664d9308a8a8681811061142c5761142c61216f565b90506020020160208101906114419190611edb565b8989878181106114535761145361216f565b905060200201356040518463ffffffff1660e01b8152600401611478939291906121b1565b600060405180830381600087803b15801561149257600080fd5b505af11580156114a6573d6000803e3d6000fd5b50505050336001600160a01b03168888848181106114c6576114c661216f565b90506020020160208101906114db9190611edb565b6001600160a01b03167f32a93f8a38bc516fc22f65806911afd3e0129ecf96868676c9c60ff5ba4868dd8888868181106115175761151761216f565b9050602002013560405161152d91815260200190565b60405180910390a3505b60010161126b565b5060026040518060800160405280896001600160a01b0316815260200188888080602002602001604051908101604052809392919081815260200183836020028082843760009201919091525050509082525060408051602088810282810182019093528882529283019290918991899182918501908490808284376000920182905250938552505050602091820181905283546001808201865594825290829020835160049092020180546001600160a01b0319166001600160a01b039092169190911781558282015180519394919361162293928501929190910190611ceb565b506040820151805161163e916002840191602090910190611d50565b50606091909101516003909101805460ff19169115159190911790556040516001600160a01b038816907f9510aa1c262d7a3afd173216aa08c0ff9e61ee8412d17732c67487b39a7e0e9e9061169b908990899089908990612250565b60405180910390a250505050505050565b6000805b60025481101561170757826001600160a01b0316600282815481106116d7576116d761216f565b60009182526020909120600490910201546001600160a01b0316036116ff5750600192915050565b6001016116b0565b50600092915050565b336001600160a01b037f0000000000000000000000000000000000000000000000000000000000000000161461175957604051631966391b60e11b815260040160405180910390fd5b60005460ff161561177c5760405162dc149f60e41b815260040160405180910390fd5b6000805460016001600160a81b03199091166101006001600160a01b038616021781179091558190556040513081527f97cd7b8b8920f0a9a090edccf4e2be3e26140dbc939b0242e8d8b7b218ad50029060200160405180910390a15050565b60005461010090046001600160a01b0316331461180c576040516330cd747160e01b815260040160405180910390fd5b60015442111561182f57604051630c88fd1360e41b815260040160405180910390fd5b600080600061183d84610a1f565b93505092509250801561097b57600061185585611c4e565b9050801561192f57600054604051631c024c5f60e21b81526001600160a01b037f0000000000000000000000000000000000000000000000000000000000000000811692637009317c926118b69230926101009004169086906004016121b1565b600060405180830381600087803b1580156118d057600080fd5b505af11580156118e4573d6000803e3d6000fd5b50506000546040518481526101009091046001600160a01b031692507f1106cc671dfb7223886e8547434ee324eebf38142ef82a994a844836320688d9915060200160405180910390a25b60005b846020015151811015611aff576000856040015182815181106119575761195761216f565b60200260200101511115611af7577f00000000000000000000000000000000000000000000000000000000000000006001600160a01b031663da3e8ce430876020015184815181106119ab576119ab61216f565b6020026020010151600060019054906101000a90046001600160a01b0316896040015186815181106119df576119df61216f565b60209081029190910101516040516001600160e01b031960e087901b1681526001600160a01b0394851660048201529284166024840152921660448201526064810191909152608401600060405180830381600087803b158015611a4257600080fd5b505af1158015611a56573d6000803e3d6000fd5b50505050600060019054906101000a90046001600160a01b03166001600160a01b031685602001518281518110611a8f57611a8f61216f565b60200260200101516001600160a01b03167f2c7402912a005a8b8fa7095a2810dec8789391b772fb8a5e09817a177c76d3e687604001518481518110611ad757611ad761216f565b6020026020010151604051611aee91815260200190565b60405180910390a35b600101611932565b5060028054611b1090600190612222565b81548110611b2057611b2061216f565b906000526020600020906004020160028481548110611b4157611b4161216f565b60009182526020909120825460049092020180546001600160a01b0319166001600160a01b0390921691909117815560018083018054611b849284019190611d8b565b5060028281018054611b999284019190611d8b565b506003918201549101805460ff191660ff90921615159190911790556002805480611bc657611bc66122cc565b60008281526020812060046000199093019283020180546001600160a01b031916815590611bf76001830182611dcb565b611c05600283016000611dcb565b50600301805460ff1916905590556040516001600160a01b038616907f1a7209727e630887f10df0c1048028b1b5d634699b5b845f1d10e7156cb0e6bd90600090a25050505050565b6000806000611c5c84610a1f565b9350505091508015611ce15760005b826020015151811015611cdf5760006001600160a01b031683602001518281518110611c9957611c9961216f565b60200260200101516001600160a01b031603611cd75782604001518181518110611cc557611cc561216f565b60200260200101519350505050919050565b600101611c6b565b505b5060009392505050565b828054828255906000526020600020908101928215611d40579160200282015b82811115611d4057825182546001600160a01b0319166001600160a01b03909116178255602090920191600190910190611d0b565b50611d4c929150611dec565b5090565b828054828255906000526020600020908101928215611d40579160200282015b82811115611d40578251825591602001919060010190611d70565b828054828255906000526020600020908101928215611d405760005260206000209182015b82811115611d40578254825591600101919060010190611db0565b5080546000825590600052602060002090810190611de99190611dec565b50565b5b80821115611d4c5760008155600101611ded565b600081518084526020840193506020830160005b82811015611e33578151865260209586019590910190600101611e15565b5093949350505050565b6060808252845190820181905260009060208601906080840190835b81811015611e805783516001600160a01b0316835260209384019390920191600101611e59565b50508381036020850152611e948187611e01565b92505050826040830152949350505050565b600060208284031215611eb857600080fd5b5035919050565b80356001600160a01b0381168114611ed657600080fd5b919050565b600060208284031215611eed57600080fd5b611ef682611ebf565b9392505050565b80516001600160a01b03168252602080820151608082850181905281519085018190526000929190910190829060a08601905b80831015611f5b5783516001600160a01b031682526020938401936001939093019290910190611f30565b50604085015192508581036040870152611f758184611e01565b925050506060830151611f8c606086018215159052565b509392505050565b608081526000611fa76080830187611efd565b60208301959095525060408101929092521515606090910152919050565b6000602082016020835280845180835260408501915060408160051b86010192506020860160005b8281101561201e57603f19878603018452612009858351611efd565b94506020938401939190910190600101611fed565b50929695505050505050565b60008083601f84011261203c57600080fd5b50813567ffffffffffffffff81111561205457600080fd5b6020830191508360208260051b850101111561206f57600080fd5b9250929050565b60008060008060006060868803121561208e57600080fd5b61209786611ebf565b9450602086013567ffffffffffffffff8111156120b357600080fd5b6120bf8882890161202a565b909550935050604086013567ffffffffffffffff8111156120df57600080fd5b6120eb8882890161202a565b969995985093965092949392505050565b6000806040838503121561210f57600080fd5b61211883611ebf565b946020939093013593505050565b634e487b7160e01b600052601160045260246000fd5b808202811582820484141761215357612153612126565b92915050565b634e487b7160e01b600052604160045260246000fd5b634e487b7160e01b600052603260045260246000fd5b8082018082111561215357612153612126565b6000600182016121aa576121aa612126565b5060010190565b6001600160a01b039384168152919092166020820152604081019190915260600190565b80518015158114611ed657600080fd5b600080604083850312156121f857600080fd5b612201836121d5565b9150602083015160ff8116811461221757600080fd5b809150509250929050565b8181038181111561215357612153612126565b60006020828403121561224757600080fd5b611ef6826121d5565b6040808252810184905260008560608301825b87811015612291576001600160a01b0361227c84611ebf565b16825260209283019290910190600101612263565b5083810360208501528481526001600160fb1b038511156122b157600080fd5b8460051b915081866020830137016020019695505050505050565b634e487b7160e01b600052603160045260246000fdfea2646970667358221220143e5e6c401872bfe0c1771a94e93fc3162161ff4f4d456f989987dc4b21524d64736f6c634300081c0033",
  "linkReferences": {},
  "deployedLinkReferences": {}
}