{
  "_format": "hh-sol-artifact-1",
  "contractName": "WillRegistry",
  "sourceName": "contracts/WillRegistry.sol",
  "abi": [
    {
      "anonymous": false,
      "inputs": [
        {
          "indexed": false,
          "internalType": "address",
          "name": "will",
          "type": "address"
        }
      ],
      "name": "WillExecuted",
      "type": "event"
    },
    {
      "inputs": [
        {
          "internalType": "bytes",
          "name": "",
          "type": "bytes"
        }
      ],
      "name": "checkUpkeep",
      "outputs": [
        {
          "internalType": "bool",
          "name": "upkeepNeeded",
          "type": "bool"
        },
        {
          "internalType": "bytes",
          "name": "performData",
          "type": "bytes"
        }
      ],
      "stateMutability": "view",
      "type": "function"
    },
    {
      "inputs": [],
      "name": "factory",
      "outputs": [
        {
          "internalType": "address",
          "name": "",
          "type": "address"
        }
      ],
      "stateMutability": "view",
      "type": "function"
    },
    {
      "inputs": [],
      "name": "getWills",
      "outputs": [
        {
          "internalType": "address[]",
          "name": "",
          "type": "address[]"
        }
      ],
      "stateMutability": "view",
      "type": "function"
    },
    {
      "inputs": [
        {
          "internalType": "bytes",
          "name": "performData",
          "type": "bytes"
        }
      ],
      "name": "performUpkeep",
      "outputs": [],
      "stateMutability": "nonpayable",
      "type": "function"
    },
    {
      "inputs": [
        {
          "internalType": "address",
          "name": "will",
          "type": "address"
        }
      ],
      "name": "registerWill",
      "outputs": [],
      "stateMutability": "nonpayable",
      "type": "function"
    },
    {
      "inputs": [
        {
          "internalType": "address",
          "name": "_factory",
          "type": "address"
        }
      ],
      "name": "setFactory",
      "outputs": [],
      "stateMutability": "nonpayable",
      "type": "function"
    },
    {
      "inputs": [
        {
          "internalType": "uint256",
          "name": "",
          "type": "uint256"
        }
      ],
      "name": "wills",
      "outputs": [
        {
          "internalType": "address",
          "name": "",
          "type": "address"
        }
      ],
      "stateMutability": "view",
      "type": "function"
    }
  ],
  "bytecode": "0x6080604052348015600f57600080fd5b506103d48061001f6000396000f3fe608060405234801561001057600080fd5b506004361061007d5760003560e01c80636e04ff0d1161005b5780636e04ff0d1461012557806384541bf91461015f5780638db7fbe714610174578063c45a01551461019f57600080fd5b80631946632a146100825780634585e33b146100e35780635bb47808146100f5575b600080fd5b6100e161009036600461023e565b6001805480820182556000919091527fb10e2d527612073b26eecdfd717e6a320cf44b4afac2b0732d9fcbe2b7fa0cf60180546001600160a01b0319166001600160a01b0392909216919091179055565b005b6100e16100f136600461026e565b5050565b6100e161010336600461023e565b600080546001600160a01b0319166001600160a01b0392909216919091179055565b61014861013336600461026e565b50506040805160208101909152600080825291565b6040516101569291906102e2565b60405180910390f35b6101676101b2565b6040516101569190610339565b610187610182366004610385565b610214565b6040516001600160a01b039091168152602001610156565b600054610187906001600160a01b031681565b6060600180548060200260200160405190810160405280929190818152602001828054801561020a57602002820191906000526020600020905b81546001600160a01b031681526001909101906020018083116101ec575b5050505050905090565b6001818154811061022457600080fd5b6000918252602090912001546001600160a01b0316905081565b60006020828403121561025057600080fd5b81356001600160a01b038116811461026757600080fd5b9392505050565b6000806020838503121561028157600080fd5b823567ffffffffffffffff81111561029857600080fd5b8301601f810185136102a957600080fd5b803567ffffffffffffffff8111156102c057600080fd5b8560208284010111156102d257600080fd5b6020919091019590945092505050565b8215158152604060208201526000825180604084015260005b8181101561031857602081860181015160608684010152016102fb565b506000606082850101526060601f19601f8301168401019150509392505050565b602080825282518282018190526000918401906040840190835b8181101561037a5783516001600160a01b0316835260209384019390920191600101610353565b509095945050505050565b60006020828403121561039757600080fd5b503591905056fea2646970667358221220024277be85d7886763587884658e24bcf29dd2626b626deee65a97ec37c62b6264736f6c634300081c0033",
  "linkReferences": {},
  "deployedLinkReferences": {}
}