{
  "_format": "hh-sol-artifact-1",
  "contractName": "WillFactory",
  "sourceName": "contracts/WillFactory.sol",
  "abi": [
    {
      "inputs": [
        {
          "internalType": "address",
          "name": "_registry",
          "type": "address"
        }
      ],
      "stateMutability": "nonpayable",
      "type": "constructor"
    },
    {
      "inputs": [],
      "name": "FailedDeployment",
      "type": "error"
    },
    {
      "inputs": [
        {
          "internalType": "uint256",
          "name": "balance",
          "type": "uint256"
        },
        {
          "internalType": "uint256",
          "name": "needed",
          "type": "uint256"
        }
      ],
      "name": "InsufficientBalance",
      "type": "error"
    },
    {
      "inputs": [],
      "name": "InvalidDueDate",
      "type": "error"
    },
    {
      "inputs": [
        {
          "internalType": "address",
          "name": "owner",
          "type": "address"
        }
      ],
      "name": "OwnableInvalidOwner",
      "type": "error"
    },
    {
      "inputs": [
        {
          "internalType": "address",
          "name": "account",
          "type": "address"
        }
      ],
      "name": "OwnableUnauthorizedAccount",
      "type": "error"
    },
    {
      "inputs": [],
      "name": "TokenAlreadyWhitelisted",
      "type": "error"
    },
    {
      "inputs": [],
      "name": "TokenNotWhitelisted",
      "type": "error"
    },
    {
      "inputs": [],
      "name": "Unauthorized",
      "type": "error"
    },
    {
      "anonymous": false,
      "inputs": [
        {
          "indexed": true,
          "internalType": "address",
          "name": "previousOwner",
          "type": "address"
        },
        {
          "indexed": true,
          "internalType": "address",
          "name": "newOwner",
          "type": "address"
        }
      ],
      "name": "OwnershipTransferred",
      "type": "event"
    },
    {
      "anonymous": false,
      "inputs": [
        {
          "indexed": false,
          "internalType": "address",
          "name": "virtualLiquidityToken",
          "type": "address"
        }
      ],
      "name": "TokenAddedToWhiteList",
      "type": "event"
    },
    {
      "anonymous": false,
      "inputs": [
        {
          "indexed": false,
          "internalType": "address",
          "name": "virtualLiquidityToken",
          "type": "address"
        }
      ],
      "name": "TokenRemovedFromWhiteList",
      "type": "event"
    },
    {
      "anonymous": false,
      "inputs": [
        {
          "indexed": true,
          "internalType": "address",
          "name": "will",
          "type": "address"
        },
        {
          "indexed": true,
          "internalType": "address",
          "name": "creator",
          "type": "address"
        },
        {
          "indexed": false,
          "internalType": "uint256",
          "name": "dueDate",
          "type": "uint256"
        }
      ],
      "name": "WillInitialized",
      "type": "event"
    },
    {
      "inputs": [
        {
          "internalType": "address",
          "name": "token",
          "type": "address"
        }
      ],
      "name": "addTokenToWhiteList",
      "outputs": [],
      "stateMutability": "nonpayable",
      "type": "function"
    },
    {
      "inputs": [
        {
          "internalType": "uint256",
          "name": "dueDate",
          "type": "uint256"
        }
      ],
      "name": "createLastWill",
      "outputs": [
        {
          "internalType": "address",
          "name": "lastWill",
          "type": "address"
        }
      ],
      "stateMutability": "nonpayable",
      "type": "function"
    },
    {
      "inputs": [
        {
          "internalType": "address",
          "name": "",
          "type": "address"
        }
      ],
      "name": "creatorToWill",
      "outputs": [
        {
          "internalType": "address",
          "name": "",
          "type": "address"
        }
      ],
      "stateMutability": "view",
      "type": "function"
    },
    {
      "inputs": [],
      "name": "getCreatedWill",
      "outputs": [
        {
          "internalType": "address",
          "name": "will",
          "type": "address"
        }
      ],
      "stateMutability": "view",
      "type": "function"
    },
    {
      "inputs": [],
      "name": "getInheritedWills",
      "outputs": [
        {
          "internalType": "address[]",
          "name": "",
          "type": "address[]"
        }
      ],
      "stateMutability": "view",
      "type": "function"
    },
    {
      "inputs": [],
      "name": "getWhiteListedTokens",
      "outputs": [
        {
          "internalType": "address[]",
          "name": "",
          "type": "address[]"
        },
        {
          "internalType": "uint8[]",
          "name": "",
          "type": "uint8[]"
        }
      ],
      "stateMutability": "view",
      "type": "function"
    },
    {
      "inputs": [
        {
          "internalType": "address",
          "name": "",
          "type": "address"
        },
        {
          "internalType": "uint256",
          "name": "",
          "type": "uint256"
        }
      ],
      "name": "heirToWills",
      "outputs": [
        {
          "internalType": "address",
          "name": "",
          "type": "address"
        }
      ],
      "stateMutability": "view",
      "type": "function"
    },
    {
      "inputs": [],
      "name": "lastWillImplementation",
      "outputs": [
        {
          "internalType": "address",
          "name": "",
          "type": "address"
        }
      ],
      "stateMutability": "view",
      "type": "function"
    },
    {
      "inputs": [],
      "name": "owner",
      "outputs": [
        {
          "internalType": "address",
          "name": "",
          "type": "address"
        }
      ],
      "stateMutability": "view",
      "type": "function"
    },
    {
      "inputs": [],
      "name": "registry",
      "outputs": [
        {
          "internalType": "address",
          "name": "",
          "type": "address"
        }
      ],
      "stateMutability": "view",
      "type": "function"
    },
    {
      "inputs": [
        {
          "internalType": "address",
          "name": "token",
          "type": "address"
        }
      ],
      "name": "removeTokenFromWhiteList",
      "outputs": [],
      "stateMutability": "nonpayable",
      "type": "function"
    },
    {
      "inputs": [],
      "name": "renounceOwnership",
      "outputs": [],
      "stateMutability": "nonpayable",
      "type": "function"
    },
    {
      "inputs": [
        {
          "internalType": "address",
          "name": "",
          "type": "address"
        }
      ],
      "name": "tokenWhiteList",
      "outputs": [
        {
          "internalType": "bool",
          "name": "allowed",
          "type": "bool"
        },
        {
          "internalType": "uint8",
          "name": "decimals",
          "type": "uint8"
        }
      ],
      "stateMutability": "view",
      "type": "function"
    },
    {
      "inputs": [
        {
          "internalType": "address",
          "name": "newOwner",
          "type": "address"
        }
      ],
      "name": "transferOwnership",
      "outputs": [],
      "stateMutability": "nonpayable",
      "type": "function"
    },
    {
      "inputs": [
        {
          "internalType": "uint256",
          "name": "",
          "type": "uint256"
        }
      ],
      "name": "whiteListedTokens",
      "outputs": [
        {
          "internalType": "address",
          "name": "",
          "type": "address"
        }
      ],
      "stateMutability": "view",
      "type": "function"
    }
  ],
  "bytecode": "0x60c060405234801561001057600080fd5b5060405161142138038061142183398101604081905261002f91610120565b338061005557604051631e4fbdf760e01b81526000600482015260240160405180910390fd5b61005e816100c3565b503060008260405161006f90610113565b6001600160a01b03938416815291831660208301529091166040820152606001604051809103906000f0801580156100ab573d6000803e3d6000fd5b506001600160a01b039081166080521660a052610150565b600080546001600160a01b038381166001600160a01b0319831681178455604051919092169283917f8be0079c531659141344cd1fd0a4f28419497f9722a3daafe3b4186f6b6457e09190a35050565b61064e80610dd383390190565b60006020828403121561013257600080fd5b81516001600160a01b038116811461014957600080fd5b9392505050565b60805160a051610c5761017c60003960006101e501526000818161013601526107fb0152610c576000f3fe608060405234801561001057600080fd5b50600436106100f55760003560e01c80637b10399911610097578063c396811111610066578063c396811114610257578063c4d24acd1461026c578063f2dc892b1461027f578063f2fde38b1461029257600080fd5b80637b103999146101e0578063811e7294146102075780638da5cb5b1461023057806399da57881461024157600080fd5b8063522c1d58116100d3578063522c1d581461016d57806367a332ae146101b25780636aee0e63146101c5578063715018a6146101d857600080fd5b8063124830f2146100fa57806335fd539b1461013157806342a7a66914610158575b600080fd5b336000908152600160205260409020546001600160a01b03165b6040516001600160a01b0390911681526020015b60405180910390f35b6101147f000000000000000000000000000000000000000000000000000000000000000081565b61016b610166366004610a81565b6102a5565b005b61019961017b366004610a81565b60036020526000908152604090205460ff8082169161010090041682565b60408051921515835260ff909116602083015201610128565b61016b6101c0366004610a81565b61045d565b6101146101d3366004610aa3565b6105d2565b61016b6105fc565b6101147f000000000000000000000000000000000000000000000000000000000000000081565b610114610215366004610a81565b6001602052600090815260409020546001600160a01b031681565b6000546001600160a01b0316610114565b610249610610565b604051610128929190610b01565b61025f610769565b6040516101289190610b5e565b61011461027a366004610aa3565b6107d4565b61011461028d366004610b71565b6108c7565b61016b6102a0366004610a81565b6108ff565b6102ad61093f565b6001600160a01b03811660009081526003602052604090205460ff161561045a57604080518082018252600080825260208083018281526001600160a01b0386168352600390915292812091518254935161ffff1990941690151561ff0019161761010060ff909416939093029290921790555b60045481101561041c57816001600160a01b03166004828154811061034857610348610b9b565b6000918252602090912001546001600160a01b031603610414576004805461037290600190610bb1565b8154811061038257610382610b9b565b600091825260209091200154600480546001600160a01b0390921691839081106103ae576103ae610b9b565b9060005260206000200160006101000a8154816001600160a01b0302191690836001600160a01b0316021790555060048054806103ed576103ed610bd2565b600082815260209020810160001990810180546001600160a01b031916905501905561041c565b600101610321565b506040516001600160a01b03821681527fdb65ca12c74e820c195286369a2a2aa73d182657f18e9bd39aac77baf88c3af69060200160405180910390a15b50565b61046561093f565b6001600160a01b03811660009081526003602052604090205460ff161561049f57604051634424109160e01b815260040160405180910390fd5b6000816001600160a01b031663313ce5676040518163ffffffff1660e01b8152600401602060405180830381865afa1580156104df573d6000803e3d6000fd5b505050506040513d601f19601f820116820180604052508101906105039190610be8565b604080518082018252600180825260ff84811660208085019182526001600160a01b03891660008181526003835287812096518754945161ffff1990951690151561ff0019161761010094909516939093029390931790945560048054938401815590527f8a35acfbc15ff81a39ae7d344fd709f28e8600b4aa8c65c6b64bfe7fe36bd19b90910180546001600160a01b0319168217905591519182529192507f23352a89f03ccc858cb204b2e383f548e48fa238ad69cf3209e6428771ae8811910160405180910390a15050565b600481815481106105e257600080fd5b6000918252602090912001546001600160a01b0316905081565b61060461093f565b61060e600061096c565b565b600454606090819060008167ffffffffffffffff81111561063357610633610c0b565b60405190808252806020026020018201604052801561065c578160200160208202803683370190505b50905060008267ffffffffffffffff81111561067a5761067a610c0b565b6040519080825280602002602001820160405280156106a3578160200160208202803683370190505b50905060005b8381101561075e576000600482815481106106c6576106c6610b9b565b9060005260206000200160009054906101000a90046001600160a01b03169050808483815181106106f9576106f9610b9b565b6001600160a01b03928316602091820292909201810191909152908216600090815260039091526040902054835161010090910460ff169084908490811061074357610743610b9b565b60ff90921660209283029190910190910152506001016106a9565b509094909350915050565b336000908152600260209081526040918290208054835181840281018401909452808452606093928301828280156107ca57602002820191906000526020600020905b81546001600160a01b031681526001909101906020018083116107ac575b5050505050905090565b60004282116107f65760405163a1ff8dcd60e01b815260040160405180910390fd5b61081f7f00000000000000000000000000000000000000000000000000000000000000006109bc565b60405163cd6dc68760e01b8152336004820152602481018490529091506001600160a01b0382169063cd6dc68790604401600060405180830381600087803b15801561086a57600080fd5b505af115801561087e573d6000803e3d6000fd5b50506040518481523392506001600160a01b03841691507fdfa6f1f9b85face8f90d2ec39035322d7d66e2962d491482e3079120f77985f69060200160405180910390a3919050565b600260205281600052604060002081815481106108e357600080fd5b6000918252602090912001546001600160a01b03169150829050565b61090761093f565b6001600160a01b03811661093657604051631e4fbdf760e01b8152600060048201526024015b60405180910390fd5b61045a8161096c565b6000546001600160a01b0316331461060e5760405163118cdaa760e01b815233600482015260240161092d565b600080546001600160a01b038381166001600160a01b0319831681178455604051919092169283917f8be0079c531659141344cd1fd0a4f28419497f9722a3daafe3b4186f6b6457e09190a35050565b60006109c98260006109cf565b92915050565b6000814710156109fb5760405163cf47918160e01b81524760048201526024810183905260440161092d565b763d602d80600a3d3981f3363d3d373d3d3d363d730000008360601b60e81c176000526e5af43d82803e903d91602b57fd5bf38360781b176020526037600983f090506001600160a01b0381166109c95760405163b06ebf3d60e01b815260040160405180910390fd5b80356001600160a01b0381168114610a7c57600080fd5b919050565b600060208284031215610a9357600080fd5b610a9c82610a65565b9392505050565b600060208284031215610ab557600080fd5b5035919050565b600081518084526020840193506020830160005b82811015610af75781516001600160a01b0316865260209586019590910190600101610ad0565b5093949350505050565b604081526000610b146040830185610abc565b828103602084015280845180835260208301915060208601925060005b81811015610b5257835160ff16835260209384019390920191600101610b31565b50909695505050505050565b602081526000610a9c6020830184610abc565b60008060408385031215610b8457600080fd5b610b8d83610a65565b946020939093013593505050565b634e487b7160e01b600052603260045260246000fd5b818103818111156109c957634e487b7160e01b600052601160045260246000fd5b634e487b7160e01b600052603160045260246000fd5b600060208284031215610bfa57600080fd5b815160ff81168114610a9c57600080fd5b634e487b7160e01b600052604160045260246000fdfea2646970667358221220c45f7d17619e1924be589f650cc6d221c194d6391de5fa8a60e4fb140d1b873c64736f6c634300081c003360a0604052348015600f57600080fd5b5060405161064e38038061064e833981016040819052602c916076565b506001600160a01b03918216608052600280549190921661010002610100600160a81b031990911617905560b2565b80516001600160a01b0381168114607157600080fd5b919050565b600080600060608486031215608a57600080fd5b609184605b565b9250609d60208501605b565b915060a960408501605b565b90509250925092565b6080516105816100cd600039600061014b01526105816000f3fe608060405234801561001057600080fd5b506004361061009e5760003560e01c80636c9e538c116100665780636c9e538c14610127578063786716fe1461012f578063c45a015514610146578063cd6dc6871461016d578063e2fdcc171461018057600080fd5b8063158ef93e146100a35780631c0795c3146100c557806324f5ba4d146100f057806331a38c89146101055780634eae51f414610112575b600080fd5b6000546100b09060ff1681565b60405190151581526020015b60405180910390f35b6100d86100d33660046103ea565b610198565b6040516001600160a01b0390911681526020016100bc565b6101036100fe3660046103ea565b6101c7565b005b6002546100b09060ff1681565b61011a610202565b6040516100bc919061043f565b610103610327565b61013860015481565b6040519081526020016100bc565b6100d87f000000000000000000000000000000000000000000000000000000000000000081565b61010361017b366004610513565b61037d565b6002546100d89061010090046001600160a01b031681565b600381815481106101a857600080fd5b60009182526020909120600390910201546001600160a01b0316905081565b60018190556040518181527f55d7e6f1a179e3ea50ffc19aaf954604d6fe7263c7afd9d254f0f52ec8c6396a9060200160405180910390a150565b60606003805480602002602001604051908101604052809291908181526020016000905b8282101561031e576000848152602090819020604080516060810182526003860290920180546001600160a01b031683526001810180548351818702810187019094528084529394919385830193928301828280156102ae57602002820191906000526020600020905b81546001600160a01b03168152600190910190602001808311610290575b505050505081526020016002820180548060200260200160405190810160405280929190818152602001828054801561030657602002820191906000526020600020905b8154815260200190600101908083116102f2575b50505050508152505081526020019060010190610226565b50505050905090565b60025460ff161561034b57604051630dc1019760e01b815260040160405180910390fd5b60015442101561036e57604051630fabf49160e31b815260040160405180910390fd5b6002805460ff19166001179055565b60005460ff16156103a05760405162dc149f60e41b815260040160405180910390fd5b6000805460ff191660019081179091558190556040513081527f97cd7b8b8920f0a9a090edccf4e2be3e26140dbc939b0242e8d8b7b218ad50029060200160405180910390a15050565b6000602082840312156103fc57600080fd5b5035919050565b600081518084526020840193506020830160005b82811015610435578151865260209586019590910190600101610417565b5093949350505050565b6000602082016020835280845180835260408501915060408160051b86010192506020860160005b8281101561050757868503603f19018452815180516001600160a01b031686526020808201516060828901819052815190890181905291019060009060808901905b808310156104d45783516001600160a01b0316825260209384019360019390930192909101906104a9565b506040840151935088810360408a01526104ee8185610403565b9850505060209586019593909301925050600101610467565b50929695505050505050565b6000806040838503121561052657600080fd5b82356001600160a01b038116811461053d57600080fd5b94602093909301359350505056fea2646970667358221220978f2260f771438a3e34bcf840191ce74b1c7d39892f12722b1c5acc1319949764736f6c634300081c0033",
  "linkReferences": {},
  "deployedLinkReferences": {}
}