{
  "_format": "hh-sol-artifact-1",
  "contractName": "WillEscrow",
  "sourceName": "contracts/WillEscrow.sol",
  "abi": [
    {
      "inputs": [],
      "stateMutability": "nonpayable",
      "type": "constructor"
    },
    {
      "inputs": [],
      "name": "AlreadyExecuted",
      "type": "error"
    },
    {
      "inputs": [],
      "name": "InsufficientBalance",
      "type": "error"
    },
    {
      "inputs": [],
      "name": "InvalidTransfer",
      "type": "error"
    },
    {
      "inputs": [],
      "name": "NotDueYet",
      "type": "error"
    },
    {
      "inputs": [],
      "name": "NotFactory",
      "type": "error"
    },
    {
      "inputs": [
        {
          "internalType": "address",
          "name": "owner",
          "type": "address"
        }
      ],
      "name": "OwnableInvalidOwner",
      "type": "error"
    },
    {
      "inputs": [
        {
          "internalType": "address",
          "name": "account",
          "type": "address"
        }
      ],
      "name": "OwnableUnauthorizedAccount",
      "type": "error"
    },
    {
      "inputs": [],
      "name": "WillNotRegistered",
      "type": "error"
    },
    {
      "anonymous": false,
      "inputs": [
        {
          "indexed": true,
          "internalType": "address",
          "name": "previousOwner",
          "type": "address"
        },
        {
          "indexed": true,
          "internalType": "address",
          "name": "newOwner",
          "type": "address"
        }
      ],
      "name": "OwnershipTransferred",
      "type": "event"
    },
    {
      "inputs": [
        {
          "internalType": "address",
          "name": "",
          "type": "address"
        }
      ],
      "name": "authorizedCallers",
      "outputs": [
        {
          "internalType": "bool",
          "name": "",
          "type": "bool"
        }
      ],
      "stateMutability": "view",
      "type": "function"
    },
    {
      "inputs": [],
      "name": "factory",
      "outputs": [
        {
          "internalType": "address",
          "name": "",
          "type": "address"
        }
      ],
      "stateMutability": "view",
      "type": "function"
    },
    {
      "inputs": [
        {
          "internalType": "address",
          "name": "",
          "type": "address"
        }
      ],
      "name": "nativeBalances",
      "outputs": [
        {
          "internalType": "uint256",
          "name": "",
          "type": "uint256"
        }
      ],
      "stateMutability": "view",
      "type": "function"
    },
    {
      "inputs": [],
      "name": "owner",
      "outputs": [
        {
          "internalType": "address",
          "name": "",
          "type": "address"
        }
      ],
      "stateMutability": "view",
      "type": "function"
    },
    {
      "inputs": [
        {
          "internalType": "address",
          "name": "will",
          "type": "address"
        },
        {
          "internalType": "address",
          "name": "token",
          "type": "address"
        },
        {
          "internalType": "uint256",
          "name": "amount",
          "type": "uint256"
        }
      ],
      "name": "registerDeposit",
      "outputs": [],
      "stateMutability": "nonpayable",
      "type": "function"
    },
    {
      "inputs": [
        {
          "internalType": "address",
          "name": "will",
          "type": "address"
        }
      ],
      "name": "registerWill",
      "outputs": [],
      "stateMutability": "nonpayable",
      "type": "function"
    },
    {
      "inputs": [
        {
          "internalType": "address",
          "name": "",
          "type": "address"
        }
      ],
      "name": "registeredWills",
      "outputs": [
        {
          "internalType": "bool",
          "name": "",
          "type": "bool"
        }
      ],
      "stateMutability": "view",
      "type": "function"
    },
    {
      "inputs": [],
      "name": "renounceOwnership",
      "outputs": [],
      "stateMutability": "nonpayable",
      "type": "function"
    },
    {
      "inputs": [
        {
          "internalType": "address",
          "name": "_factory",
          "type": "address"
        }
      ],
      "name": "setFactory",
      "outputs": [],
      "stateMutability": "nonpayable",
      "type": "function"
    },
    {
      "inputs": [
        {
          "internalType": "address",
          "name": "",
          "type": "address"
        },
        {
          "internalType": "address",
          "name": "",
          "type": "address"
        }
      ],
      "name": "tokenBalances",
      "outputs": [
        {
          "internalType": "uint256",
          "name": "amount",
          "type": "uint256"
        },
        {
          "internalType": "address",
          "name": "owner",
          "type": "address"
        }
      ],
      "stateMutability": "view",
      "type": "function"
    },
    {
      "inputs": [
        {
          "internalType": "address",
          "name": "will",
          "type": "address"
        },
        {
          "internalType": "address",
          "name": "token",
          "type": "address"
        },
        {
          "internalType": "address",
          "name": "to",
          "type": "address"
        },
        {
          "internalType": "uint256",
          "name": "amount",
          "type": "uint256"
        }
      ],
      "name": "transferERC20",
      "outputs": [],
      "stateMutability": "nonpayable",
      "type": "function"
    },
    {
      "inputs": [
        {
          "internalType": "address",
          "name": "will",
          "type": "address"
        },
        {
          "internalType": "address payable",
          "name": "to",
          "type": "address"
        },
        {
          "internalType": "uint256",
          "name": "amount",
          "type": "uint256"
        }
      ],
      "name": "transferETH",
      "outputs": [],
      "stateMutability": "nonpayable",
      "type": "function"
    },
    {
      "inputs": [
        {
          "internalType": "address",
          "name": "newOwner",
          "type": "address"
        }
      ],
      "name": "transferOwnership",
      "outputs": [],
      "stateMutability": "nonpayable",
      "type": "function"
    },
    {
      "stateMutability": "payable",
      "type": "receive"
    }
  ],
  "bytecode": "0x6080604052348015600f57600080fd5b503380603557604051631e4fbdf760e01b81526000600482015260240160405180910390fd5b603c816041565b506091565b600080546001600160a01b038381166001600160a01b0319831681178455604051919092169283917f8be0079c531659141344cd1fd0a4f28419497f9722a3daafe3b4186f6b6457e09190a35050565b610fa3806100a06000396000f3fe6080604052600436106100c65760003560e01c80637009317c1161007f57806395ad89e61161005957806395ad89e614610275578063c45a0155146102b0578063da3e8ce4146102d0578063f2fde38b146102f057600080fd5b80637009317c1461020e578063715018a61461022e5780638da5cb5b1461024357600080fd5b806317186e40146100d25780631946632a146101175780634dbf6c5a1461013957806352a664d91461019e578063536fff6c146101be5780635bb47808146101ee57600080fd5b366100cd57005b600080fd5b3480156100de57600080fd5b506101026100ed366004610b90565b60056020526000908152604090205460ff1681565b60405190151581526020015b60405180910390f35b34801561012357600080fd5b50610137610132366004610b90565b610310565b005b34801561014557600080fd5b50610181610154366004610bb4565b6002602090815260009283526040808420909152908252902080546001909101546001600160a01b031682565b604080519283526001600160a01b0390911660208301520161010e565b3480156101aa57600080fd5b506101376101b9366004610bed565b61035f565b3480156101ca57600080fd5b506101026101d9366004610b90565b60046020526000908152604090205460ff1681565b3480156101fa57600080fd5b50610137610209366004610b90565b610477565b34801561021a57600080fd5b50610137610229366004610bed565b6104ba565b34801561023a57600080fd5b506101376106e2565b34801561024f57600080fd5b506000546001600160a01b03165b6040516001600160a01b03909116815260200161010e565b34801561028157600080fd5b506102a2610290366004610b90565b60036020526000908152604090205481565b60405190815260200161010e565b3480156102bc57600080fd5b5060015461025d906001600160a01b031681565b3480156102dc57600080fd5b506101376102eb366004610c2e565b6106f6565b3480156102fc57600080fd5b5061013761030b366004610b90565b61091a565b6001546001600160a01b0316331461033b57604051631966391b60e11b815260040160405180910390fd5b6001600160a01b03166000908152600560205260409020805460ff19166001179055565b3360009081526005602052604090205460ff1661038f57604051635aa22c7960e01b815260040160405180910390fd5b6001600160a01b038216610421576001600160a01b038316600090815260036020526040812080548392906103c5908490610c95565b90915550506040805180820182529182523360208084019182526001600160a01b03958616600090815260028252838120818052909152919091209151825551600190910180546001600160a01b031916919093161790915550565b6040805180820182529182523360208084019182526001600160a01b0395861660009081526002825283812095871681529490529220905181559051600190910180546001600160a01b03191691909216179055565b61047f610958565b600180546001600160a01b039092166001600160a01b031990921682178155600091825260046020526040909120805460ff19169091179055565b3360009081526005602052604090205460ff166104ea57604051635aa22c7960e01b815260040160405180910390fd5b6001600160a01b03831660009081526003602052604090205481111561052357604051631e9acf1760e31b815260040160405180910390fd5b6001600160a01b03838116600090815260026020908152604080832083805290915281206001015490911633149061055d85858584610985565b905080156105e757846001600160a01b031663786716fe6040518163ffffffff1660e01b8152600401602060405180830381865afa1580156105a3573d6000803e3d6000fd5b505050506040513d601f19601f820116820180604052508101906105c79190610cae565b4210156105e757604051630fabf49160e31b815260040160405180910390fd5b811580156105f3575080155b1561061157604051632f35253160e01b815260040160405180910390fd5b6001600160a01b03851660009081526003602052604081208054859290610639908490610cc7565b90915550506040516000906001600160a01b0386169085908381818185875af1925050503d8060008114610689576040519150601f19603f3d011682016040523d82523d6000602084013e61068e565b606091505b50509050806106da5760405162461bcd60e51b8152602060048201526013602482015272115512081d1c985b9cd9995c8819985a5b1959606a1b60448201526064015b60405180910390fd5b505050505050565b6106ea610958565b6106f46000610b2b565b565b3360009081526005602052604090205460ff1661072657604051635aa22c7960e01b815260040160405180910390fd5b6001600160a01b038085166000908152600260209081526040808320938716835292905220805482111561076d57604051631e9acf1760e31b815260040160405180910390fd5b60018101546001600160a01b03163314600061078b87868689610985565b9050801561081557866001600160a01b031663786716fe6040518163ffffffff1660e01b8152600401602060405180830381865afa1580156107d1573d6000803e3d6000fd5b505050506040513d601f19601f820116820180604052508101906107f59190610cae565b42101561081557604051630fabf49160e31b815260040160405180910390fd5b81158015610821575080155b1561083f57604051632f35253160e01b815260040160405180910390fd5b838360000160008282546108539190610cc7565b909155505060405163a9059cbb60e01b81526001600160a01b038681166004830152602482018690526000919088169063a9059cbb906044016020604051808303816000875af11580156108ab573d6000803e3d6000fd5b505050506040513d601f19601f820116820180604052508101906108cf9190610cef565b9050806109105760405162461bcd60e51b815260206004820152600f60248201526e151c985b9cd9995c8819985a5b1959608a1b60448201526064016106d1565b5050505050505050565b610922610958565b6001600160a01b03811661094c57604051631e4fbdf760e01b8152600060048201526024016106d1565b61095581610b2b565b50565b6000546001600160a01b031633146106f45760405163118cdaa760e01b81523360048201526024016106d1565b604051634da2f2f960e01b81526001600160a01b038481166004830152600091869183918291841690634da2f2f990602401600060405180830381865afa1580156109d4573d6000803e3d6000fd5b505050506040513d6000823e601f3d908101601f191682016040526109fc9190810190610e0b565b9350505091508015610b1b576001600160a01b038516610a955760405160016205477f60e41b031981526001600160a01b0388811660048301526000919085169063ffab881090602401602060405180830381865afa158015610a63573d6000803e3d6000fd5b505050506040513d601f19601f82011682018060405250810190610a879190610cae565b87149450610b239350505050565b60005b826020015151811015610b1957856001600160a01b031683602001518281518110610ac557610ac5610f57565b60200260200101516001600160a01b0316148015610aff57508683604001518281518110610af557610af5610f57565b6020026020010151145b15610b11576001945050505050610b23565b600101610a98565b505b600093505050505b949350505050565b600080546001600160a01b038381166001600160a01b0319831681178455604051919092169283917f8be0079c531659141344cd1fd0a4f28419497f9722a3daafe3b4186f6b6457e09190a35050565b6001600160a01b038116811461095557600080fd5b600060208284031215610ba257600080fd5b8135610bad81610b7b565b9392505050565b60008060408385031215610bc757600080fd5b8235610bd281610b7b565b91506020830135610be281610b7b565b809150509250929050565b600080600060608486031215610c0257600080fd5b8335610c0d81610b7b565b92506020840135610c1d81610b7b565b929592945050506040919091013590565b60008060008060808587031215610c4457600080fd5b8435610c4f81610b7b565b93506020850135610c5f81610b7b565b92506040850135610c6f81610b7b565b9396929550929360600135925050565b634e487b7160e01b600052601160045260246000fd5b80820180821115610ca857610ca8610c7f565b92915050565b600060208284031215610cc057600080fd5b5051919050565b81810381811115610ca857610ca8610c7f565b80518015158114610cea57600080fd5b919050565b600060208284031215610d0157600080fd5b610bad82610cda565b634e487b7160e01b600052604160045260246000fd5b6040516080810167ffffffffffffffff81118282101715610d4357610d43610d0a565b60405290565b604051601f8201601f1916810167ffffffffffffffff81118282101715610d7257610d72610d0a565b604052919050565b600067ffffffffffffffff821115610d9457610d94610d0a565b5060051b60200190565b600082601f830112610daf57600080fd5b8151610dc2610dbd82610d7a565b610d49565b8082825260208201915060208360051b860101925085831115610de457600080fd5b602085015b83811015610e01578051835260209283019201610de9565b5095945050505050565b60008060008060808587031215610e2157600080fd5b845167ffffffffffffffff811115610e3857600080fd5b850160808188031215610e4a57600080fd5b610e52610d20565b8151610e5d81610b7b565b8152602082015167ffffffffffffffff811115610e7957600080fd5b8201601f81018913610e8a57600080fd5b8051610e98610dbd82610d7a565b8082825260208201915060208360051b85010192508b831115610eba57600080fd5b6020840193505b82841015610ee5578351610ed481610b7b565b825260209384019390910190610ec1565b6020850152505050604082015167ffffffffffffffff811115610f0757600080fd5b610f1389828501610d9e565b604083015250610f2560608301610cda565b606082810191909152602088015160408901519297509550909350610f4c91508601610cda565b905092959194509250565b634e487b7160e01b600052603260045260246000fdfea264697066735822122008a8a36ade8dbcfa4b4358cb3dd34649eddb57b6fc515ad2c65b996ab1c3302864736f6c634300081c0033",
  "linkReferences": {},
  "deployedLinkReferences": {}
}