{
  "_format": "hh-sol-artifact-1",
  "contractName": "WillEscrow",
  "sourceName": "contracts/WillEscrow.sol",
  "abi": [
    {
      "inputs": [],
      "name": "Unauthorized",
      "type": "error"
    },
    {
      "inputs": [
        {
          "internalType": "address",
          "name": "caller",
          "type": "address"
        }
      ],
      "name": "authorize",
      "outputs": [],
      "stateMutability": "nonpayable",
      "type": "function"
    },
    {
      "inputs": [
        {
          "internalType": "address",
          "name": "",
          "type": "address"
        }
      ],
      "name": "authorizedCallers",
      "outputs": [
        {
          "internalType": "bool",
          "name": "",
          "type": "bool"
        }
      ],
      "stateMutability": "view",
      "type": "function"
    },
    {
      "inputs": [],
      "name": "factory",
      "outputs": [
        {
          "internalType": "address",
          "name": "",
          "type": "address"
        }
      ],
      "stateMutability": "view",
      "type": "function"
    },
    {
      "inputs": [
        {
          "internalType": "address",
          "name": "_factory",
          "type": "address"
        }
      ],
      "name": "setFactory",
      "outputs": [],
      "stateMutability": "nonpayable",
      "type": "function"
    },
    {
      "inputs": [
        {
          "internalType": "address",
          "name": "token",
          "type": "address"
        },
        {
          "internalType": "address",
          "name": "to",
          "type": "address"
        },
        {
          "internalType": "uint256",
          "name": "amount",
          "type": "uint256"
        }
      ],
      "name": "transferERC20",
      "outputs": [],
      "stateMutability": "nonpayable",
      "type": "function"
    },
    {
      "inputs": [
        {
          "internalType": "address payable",
          "name": "to",
          "type": "address"
        },
        {
          "internalType": "uint256",
          "name": "amount",
          "type": "uint256"
        }
      ],
      "name": "transferETH",
      "outputs": [],
      "stateMutability": "nonpayable",
      "type": "function"
    },
    {
      "stateMutability": "payable",
      "type": "receive"
    }
  ],
  "bytecode": "0x6080604052348015600f57600080fd5b506104a48061001f6000396000f3fe6080604052600436106100595760003560e01c8063536fff6c146100655780635bb47808146100aa5780637b1a4909146101025780639db5dbe414610122578063b6a5d7de14610142578063c45a01551461016257600080fd5b3661006057005b600080fd5b34801561007157600080fd5b506100956100803660046103bb565b60016020526000908152604090205460ff1681565b60405190151581526020015b60405180910390f35b3480156100b657600080fd5b506101006100c53660046103bb565b600080546001600160a01b039092166001600160a01b031990921682178155908152600160208190526040909120805460ff19169091179055565b005b34801561010e57600080fd5b5061010061011d3660046103df565b61019a565b34801561012e57600080fd5b5061010061013d36600461040b565b61026c565b34801561014e57600080fd5b5061010061015d3660046103bb565b610352565b34801561016e57600080fd5b50600054610182906001600160a01b031681565b6040516001600160a01b0390911681526020016100a1565b3360009081526001602052604090205460ff166101c9576040516282b42960e81b815260040160405180910390fd5b6000826001600160a01b03168260405160006040518083038185875af1925050503d8060008114610216576040519150601f19603f3d011682016040523d82523d6000602084013e61021b565b606091505b50509050806102675760405162461bcd60e51b8152602060048201526013602482015272115512081d1c985b9cd9995c8819985a5b1959606a1b60448201526064015b60405180910390fd5b505050565b3360009081526001602052604090205460ff1661029b576040516282b42960e81b815260040160405180910390fd5b60405163a9059cbb60e01b81526001600160a01b0383811660048301526024820183905284169063a9059cbb906044016020604051808303816000875af11580156102ea573d6000803e3d6000fd5b505050506040513d601f19601f8201168201806040525081019061030e919061044c565b6102675760405162461bcd60e51b8152602060048201526015602482015274115490cc8c081d1c985b9cd9995c8819985a5b1959605a1b604482015260640161025e565b6000546001600160a01b0316331461037c576040516282b42960e81b815260040160405180910390fd5b6001600160a01b03166000908152600160208190526040909120805460ff19169091179055565b6001600160a01b03811681146103b857600080fd5b50565b6000602082840312156103cd57600080fd5b81356103d8816103a3565b9392505050565b600080604083850312156103f257600080fd5b82356103fd816103a3565b946020939093013593505050565b60008060006060848603121561042057600080fd5b833561042b816103a3565b9250602084013561043b816103a3565b929592945050506040919091013590565b60006020828403121561045e57600080fd5b815180151581146103d857600080fdfea264697066735822122030879d59bee938bb3300eefdcfd014522967cf1fa9131a9f5fb67233904186e664736f6c634300081c0033",
  "linkReferences": {},
  "deployedLinkReferences": {}
}