{
  "_format": "hh-sol-artifact-1",
  "contractName": "WillRegistry",
  "sourceName": "contracts/WillRegistry.sol",
  "abi": [
    {
      "inputs": [],
      "stateMutability": "nonpayable",
      "type": "constructor"
    },
    {
      "inputs": [],
      "name": "NotFactory",
      "type": "error"
    },
    {
      "inputs": [
        {
          "internalType": "address",
          "name": "owner",
          "type": "address"
        }
      ],
      "name": "OwnableInvalidOwner",
      "type": "error"
    },
    {
      "inputs": [
        {
          "internalType": "address",
          "name": "account",
          "type": "address"
        }
      ],
      "name": "OwnableUnauthorizedAccount",
      "type": "error"
    },
    {
      "anonymous": false,
      "inputs": [
        {
          "indexed": true,
          "internalType": "address",
          "name": "previousOwner",
          "type": "address"
        },
        {
          "indexed": true,
          "internalType": "address",
          "name": "newOwner",
          "type": "address"
        }
      ],
      "name": "OwnershipTransferred",
      "type": "event"
    },
    {
      "anonymous": false,
      "inputs": [
        {
          "indexed": false,
          "internalType": "address",
          "name": "will",
          "type": "address"
        }
      ],
      "name": "WillExecuted",
      "type": "event"
    },
    {
      "inputs": [],
      "name": "MAX_SCAN_SIZE",
      "outputs": [
        {
          "internalType": "uint256",
          "name": "",
          "type": "uint256"
        }
      ],
      "stateMutability": "view",
      "type": "function"
    },
    {
      "inputs": [],
      "name": "MAX_WILLS_TO_EXECUTE",
      "outputs": [
        {
          "internalType": "uint256",
          "name": "",
          "type": "uint256"
        }
      ],
      "stateMutability": "view",
      "type": "function"
    },
    {
      "inputs": [
        {
          "internalType": "bytes",
          "name": "",
          "type": "bytes"
        }
      ],
      "name": "checkUpkeep",
      "outputs": [
        {
          "internalType": "bool",
          "name": "upkeepNeeded",
          "type": "bool"
        },
        {
          "internalType": "bytes",
          "name": "performData",
          "type": "bytes"
        }
      ],
      "stateMutability": "view",
      "type": "function"
    },
    {
      "inputs": [],
      "name": "factory",
      "outputs": [
        {
          "internalType": "address",
          "name": "",
          "type": "address"
        }
      ],
      "stateMutability": "view",
      "type": "function"
    },
    {
      "inputs": [],
      "name": "getWills",
      "outputs": [
        {
          "internalType": "address[]",
          "name": "",
          "type": "address[]"
        }
      ],
      "stateMutability": "view",
      "type": "function"
    },
    {
      "inputs": [],
      "name": "lastCheckedIndex",
      "outputs": [
        {
          "internalType": "uint256",
          "name": "",
          "type": "uint256"
        }
      ],
      "stateMutability": "view",
      "type": "function"
    },
    {
      "inputs": [],
      "name": "owner",
      "outputs": [
        {
          "internalType": "address",
          "name": "",
          "type": "address"
        }
      ],
      "stateMutability": "view",
      "type": "function"
    },
    {
      "inputs": [
        {
          "internalType": "bytes",
          "name": "performData",
          "type": "bytes"
        }
      ],
      "name": "performUpkeep",
      "outputs": [],
      "stateMutability": "nonpayable",
      "type": "function"
    },
    {
      "inputs": [
        {
          "internalType": "address",
          "name": "will",
          "type": "address"
        }
      ],
      "name": "registerWill",
      "outputs": [],
      "stateMutability": "nonpayable",
      "type": "function"
    },
    {
      "inputs": [
        {
          "internalType": "uint256",
          "name": "",
          "type": "uint256"
        }
      ],
      "name": "registeredWills",
      "outputs": [
        {
          "internalType": "address",
          "name": "",
          "type": "address"
        }
      ],
      "stateMutability": "view",
      "type": "function"
    },
    {
      "inputs": [],
      "name": "renounceOwnership",
      "outputs": [],
      "stateMutability": "nonpayable",
      "type": "function"
    },
    {
      "inputs": [
        {
          "internalType": "address",
          "name": "_factory",
          "type": "address"
        }
      ],
      "name": "setFactory",
      "outputs": [],
      "stateMutability": "nonpayable",
      "type": "function"
    },
    {
      "inputs": [
        {
          "internalType": "address",
          "name": "newOwner",
          "type": "address"
        }
      ],
      "name": "transferOwnership",
      "outputs": [],
      "stateMutability": "nonpayable",
      "type": "function"
    }
  ],
  "bytecode": "0x6080604052348015600f57600080fd5b503380603557604051631e4fbdf760e01b81526000600482015260240160405180910390fd5b603c816041565b506091565b600080546001600160a01b038381166001600160a01b0319831681178455604051919092169283917f8be0079c531659141344cd1fd0a4f28419497f9722a3daafe3b4186f6b6457e09190a35050565b610e20806100a06000396000f3fe608060405234801561001057600080fd5b50600436106100cf5760003560e01c806384541bf91161008c578063aa38150e11610066578063aa38150e146101a4578063acd88349146101ad578063c45a0155146101b6578063f2fde38b146101c957600080fd5b806384541bf91461015357806387efb692146101685780638da5cb5b1461019357600080fd5b80631946632a146100d45780634585e33b146100e9578063555ead4c146100fc5780635bb47808146101175780636e04ff0d1461012a578063715018a61461014b575b600080fd5b6100e76100e2366004610820565b6101dc565b005b6100e76100f7366004610844565b610259565b610104600a81565b6040519081526020015b60405180910390f35b6100e7610125366004610820565b6104d9565b61013d610138366004610844565b610503565b60405161010e9291906108b8565b6100e76106ab565b61015b6106bf565b60405161010e919061090f565b61017b61017636600461095b565b610721565b6040516001600160a01b03909116815260200161010e565b6000546001600160a01b031661017b565b6101046101f481565b61010460035481565b60015461017b906001600160a01b031681565b6100e76101d7366004610820565b61074b565b6001546001600160a01b0316331461020757604051631966391b60e11b815260040160405180910390fd5b600280546001810182556000919091527f405787fa12a823e0f2b7631cc41b3ba8828b3321ca811111fa75cd3aa3bb5ace0180546001600160a01b0319166001600160a01b0392909216919091179055565b6000808061026984860186610a08565b600254929550909350915061027e9082610ab4565b60035560005b828110156104d15760008482815181106102a0576102a0610ad6565b6020026020010151905060028054905081106102bc57506104c9565b6000600282815481106102d1576102d1610ad6565b6000918252602082200154604080516313ab947d60e21b815290516001600160a01b0390921693508392634eae51f4926004808401938290030181865afa92505050801561034157506040513d6000823e601f3d908101601f1916820160405261033e9190810190610b69565b60015b156104c65760005b81518110156103da57826001600160a01b031663239e024883838151811061037357610373610ad6565b6020908102919091010151516040516001600160e01b031960e084901b1681526001600160a01b039091166004820152602401600060405180830381600087803b1580156103c057600080fd5b505af19250505080156103d1575060015b50600101610349565b506040516001600160a01b03831681527f16346f65adf8d84422b57ad74cb5607bf6c9e55c3c1fea66344057e5bba8a7ee9060200160405180910390a16002805461042790600190610d27565b8154811061043757610437610ad6565b600091825260209091200154600280546001600160a01b03909216918590811061046357610463610ad6565b9060005260206000200160006101000a8154816001600160a01b0302191690836001600160a01b0316021790555060028054806104a2576104a2610d40565b600082815260209020810160001990810180546001600160a01b0319169055019055505b50505b600101610284565b505050505050565b6104e161078e565b600180546001600160a01b0319166001600160a01b0392909216919091179055565b60025460009060609080830361052c5750506040805160208101909152600080825291506106a4565b60408051600a808252610160820190925260009160208201610140803683370190505090506000806101f48410610565576101f4610567565b835b6003549091506000905b82821080156105805750600a84105b156106705760006002828154811061059a5761059a610ad6565b6000918252602091829020015460408051633c338b7f60e11b815290516001600160a01b039092169350839263786716fe926004808401938290030181865afa1580156105eb573d6000803e3d6000fd5b505050506040513d601f19601f8201168201806040525081019061060f9190610d56565b4210610645578186868151811061062857610628610ad6565b60209081029190910101528461063d81610d6f565b955050600198505b86610651836001610d88565b61065b9190610ab4565b91508261066781610d6f565b93505050610571565b871561069d5784848260405160200161068b93929190610d9b565b60405160208183030381529060405296505b5050505050505b9250929050565b6106b361078e565b6106bd60006107bb565b565b6060600280548060200260200160405190810160405280929190818152602001828054801561071757602002820191906000526020600020905b81546001600160a01b031681526001909101906020018083116106f9575b5050505050905090565b6002818154811061073157600080fd5b6000918252602090912001546001600160a01b0316905081565b61075361078e565b6001600160a01b03811661078257604051631e4fbdf760e01b8152600060048201526024015b60405180910390fd5b61078b816107bb565b50565b6000546001600160a01b031633146106bd5760405163118cdaa760e01b8152336004820152602401610779565b600080546001600160a01b038381166001600160a01b0319831681178455604051919092169283917f8be0079c531659141344cd1fd0a4f28419497f9722a3daafe3b4186f6b6457e09190a35050565b6001600160a01b038116811461078b57600080fd5b60006020828403121561083257600080fd5b813561083d8161080b565b9392505050565b6000806020838503121561085757600080fd5b823567ffffffffffffffff81111561086e57600080fd5b8301601f8101851361087f57600080fd5b803567ffffffffffffffff81111561089657600080fd5b8560208284010111156108a857600080fd5b6020919091019590945092505050565b8215158152604060208201526000825180604084015260005b818110156108ee57602081860181015160608684010152016108d1565b506000606082850101526060601f19601f8301168401019150509392505050565b602080825282518282018190526000918401906040840190835b818110156109505783516001600160a01b0316835260209384019390920191600101610929565b509095945050505050565b60006020828403121561096d57600080fd5b5035919050565b634e487b7160e01b600052604160045260246000fd5b6040516080810167ffffffffffffffff811182821017156109ad576109ad610974565b60405290565b604051601f8201601f1916810167ffffffffffffffff811182821017156109dc576109dc610974565b604052919050565b600067ffffffffffffffff8211156109fe576109fe610974565b5060051b60200190565b600080600060608486031215610a1d57600080fd5b833567ffffffffffffffff811115610a3457600080fd5b8401601f81018613610a4557600080fd5b8035610a58610a53826109e4565b6109b3565b8082825260208201915060208360051b850101925088831115610a7a57600080fd5b6020840193505b82841015610a9c578335825260209384019390910190610a81565b98602088013598506040909701359695505050505050565b600082610ad157634e487b7160e01b600052601260045260246000fd5b500690565b634e487b7160e01b600052603260045260246000fd5b600082601f830112610afd57600080fd5b8151610b0b610a53826109e4565b8082825260208201915060208360051b860101925085831115610b2d57600080fd5b602085015b83811015610b4a578051835260209283019201610b32565b5095945050505050565b80518015158114610b6457600080fd5b919050565b600060208284031215610b7b57600080fd5b815167ffffffffffffffff811115610b9257600080fd5b8201601f81018413610ba357600080fd5b8051610bb1610a53826109e4565b8082825260208201915060208360051b850101925086831115610bd357600080fd5b602084015b83811015610d0657805167ffffffffffffffff811115610bf757600080fd5b85016080818a03601f19011215610c0d57600080fd5b610c1561098a565b6020820151610c238161080b565b8152604082015167ffffffffffffffff811115610c3f57600080fd5b82016020810190603f018b13610c5457600080fd5b8051610c62610a53826109e4565b8082825260208201915060208360051b85010192508d831115610c8457600080fd5b6020840193505b82841015610caf578351610c9e8161080b565b825260209384019390910190610c8b565b6020850152505050606082015167ffffffffffffffff811115610cd157600080fd5b610ce08b602083860101610aec565b604083015250610cf260808301610b54565b606082015284525060209283019201610bd8565b509695505050505050565b634e487b7160e01b600052601160045260246000fd5b81810381811115610d3a57610d3a610d11565b92915050565b634e487b7160e01b600052603160045260246000fd5b600060208284031215610d6857600080fd5b5051919050565b600060018201610d8157610d81610d11565b5060010190565b80820180821115610d3a57610d3a610d11565b6060808252845190820181905260009060208601906080840190835b81811015610dd5578351835260209384019390920191600101610db7565b5050602084019590955250506040015291905056fea264697066735822122095f464dfb1fc5eab942961b5bcf2d9ae0de2950a17cb77a01402be20b6ddf0bc64736f6c634300081c0033",
  "linkReferences": {},
  "deployedLinkReferences": {}
}